{
	"/ritual-chain-workshop/hardhat/contracts/CommitReveal.sol": {
		"CommitReveal": {
			"abi": [
				{
					"inputs": [],
					"name": "AlreadyCommitted",
					"type": "error"
				},
				{
					"inputs": [],
					"name": "AlreadyRevealed",
					"type": "error"
				},
				{
					"inputs": [],
					"name": "AnswerTooLong",
					"type": "error"
				},
				{
					"inputs": [],
					"name": "BountyAlreadyRegistered",
					"type": "error"
				},
				{
					"inputs": [],
					"name": "BountyNotRegistered",
					"type": "error"
				},
				{
					"inputs": [],
					"name": "CommitPhaseClosed",
					"type": "error"
				},
				{
					"inputs": [],
					"name": "HashMismatch",
					"type": "error"
				},
				{
					"inputs": [],
					"name": "InvalidDeadline",
					"type": "error"
				},
				{
					"inputs": [],
					"name": "NotRevealedYet",
					"type": "error"
				},
				{
					"inputs": [],
					"name": "NothingCommitted",
					"type": "error"
				},
				{
					"inputs": [],
					"name": "RevealPhaseClosed",
					"type": "error"
				},
				{
					"inputs": [],
					"name": "RevealPhaseNotOpen",
					"type": "error"
				},
				{
					"anonymous": false,
					"inputs": [
						{
							"indexed": true,
							"internalType": "uint256",
							"name": "bountyId",
							"type": "uint256"
						},
						{
							"indexed": false,
							"internalType": "uint256",
							"name": "deadline",
							"type": "uint256"
						}
					],
					"name": "BountyRegistered",
					"type": "event"
				},
				{
					"anonymous": false,
					"inputs": [
						{
							"indexed": true,
							"internalType": "uint256",
							"name": "bountyId",
							"type": "uint256"
						},
						{
							"indexed": true,
							"internalType": "address",
							"name": "participant",
							"type": "address"
						},
						{
							"indexed": false,
							"internalType": "bytes32",
							"name": "commitment",
							"type": "bytes32"
						}
					],
					"name": "Committed",
					"type": "event"
				},
				{
					"anonymous": false,
					"inputs": [
						{
							"indexed": true,
							"internalType": "uint256",
							"name": "bountyId",
							"type": "uint256"
						},
						{
							"indexed": true,
							"internalType": "address",
							"name": "participant",
							"type": "address"
						},
						{
							"indexed": false,
							"internalType": "string",
							"name": "answer",
							"type": "string"
						},
						{
							"indexed": false,
							"internalType": "bytes32",
							"name": "salt",
							"type": "bytes32"
						}
					],
					"name": "Revealed",
					"type": "event"
				},
				{
					"inputs": [],
					"name": "MAX_ANSWER_LENGTH",
					"outputs": [
						{
							"internalType": "uint256",
							"name": "",
							"type": "uint256"
						}
					],
					"stateMutability": "view",
					"type": "function"
				},
				{
					"inputs": [],
					"name": "REVEAL_WINDOW",
					"outputs": [
						{
							"internalType": "uint256",
							"name": "",
							"type": "uint256"
						}
					],
					"stateMutability": "view",
					"type": "function"
				},
				{
					"inputs": [
						{
							"internalType": "uint256",
							"name": "",
							"type": "uint256"
						}
					],
					"name": "bountyMeta",
					"outputs": [
						{
							"internalType": "uint256",
							"name": "deadline",
							"type": "uint256"
						},
						{
							"internalType": "bool",
							"name": "registered",
							"type": "bool"
						}
					],
					"stateMutability": "view",
					"type": "function"
				},
				{
					"inputs": [
						{
							"internalType": "uint256",
							"name": "bountyId",
							"type": "uint256"
						}
					],
					"name": "currentPhase",
					"outputs": [
						{
							"internalType": "uint8",
							"name": "",
							"type": "uint8"
						}
					],
					"stateMutability": "view",
					"type": "function"
				},
				{
					"inputs": [
						{
							"internalType": "uint256",
							"name": "",
							"type": "uint256"
						},
						{
							"internalType": "address",
							"name": "",
							"type": "address"
						}
					],
					"name": "entries",
					"outputs": [
						{
							"internalType": "bytes32",
							"name": "commitment",
							"type": "bytes32"
						},
						{
							"internalType": "string",
							"name": "answer",
							"type": "string"
						},
						{
							"internalType": "bytes32",
							"name": "salt",
							"type": "bytes32"
						},
						{
							"internalType": "bool",
							"name": "revealed",
							"type": "bool"
						}
					],
					"stateMutability": "view",
					"type": "function"
				},
				{
					"inputs": [
						{
							"internalType": "uint256",
							"name": "bountyId",
							"type": "uint256"
						},
						{
							"internalType": "address",
							"name": "participant",
							"type": "address"
						}
					],
					"name": "getAnswer",
					"outputs": [
						{
							"internalType": "string",
							"name": "",
							"type": "string"
						}
					],
					"stateMutability": "view",
					"type": "function"
				},
				{
					"inputs": [
						{
							"internalType": "uint256",
							"name": "bountyId",
							"type": "uint256"
						},
						{
							"internalType": "address",
							"name": "participant",
							"type": "address"
						}
					],
					"name": "hasRevealed",
					"outputs": [
						{
							"internalType": "bool",
							"name": "",
							"type": "bool"
						}
					],
					"stateMutability": "view",
					"type": "function"
				},
				{
					"inputs": [
						{
							"internalType": "string",
							"name": "answer",
							"type": "string"
						},
						{
							"internalType": "bytes32",
							"name": "salt",
							"type": "bytes32"
						},
						{
							"internalType": "address",
							"name": "participant",
							"type": "address"
						},
						{
							"internalType": "uint256",
							"name": "bountyId",
							"type": "uint256"
						}
					],
					"name": "makeCommitment",
					"outputs": [
						{
							"internalType": "bytes32",
							"name": "",
							"type": "bytes32"
						}
					],
					"stateMutability": "pure",
					"type": "function"
				},
				{
					"inputs": [
						{
							"internalType": "uint256",
							"name": "bountyId",
							"type": "uint256"
						},
						{
							"internalType": "uint256",
							"name": "deadline",
							"type": "uint256"
						}
					],
					"name": "registerBounty",
					"outputs": [],
					"stateMutability": "nonpayable",
					"type": "function"
				},
				{
					"inputs": [
						{
							"internalType": "uint256",
							"name": "bountyId",
							"type": "uint256"
						},
						{
							"internalType": "string",
							"name": "answer",
							"type": "string"
						},
						{
							"internalType": "bytes32",
							"name": "salt",
							"type": "bytes32"
						}
					],
					"name": "revealAnswer",
					"outputs": [],
					"stateMutability": "nonpayable",
					"type": "function"
				},
				{
					"inputs": [
						{
							"internalType": "uint256",
							"name": "bountyId",
							"type": "uint256"
						},
						{
							"internalType": "bytes32",
							"name": "commitment",
							"type": "bytes32"
						}
					],
					"name": "submitCommitment",
					"outputs": [],
					"stateMutability": "nonpayable",
					"type": "function"
				}
			],
			"devdoc": {
				"kind": "dev",
				"methods": {
					"registerBounty(uint256,uint256)": {
						"params": {
							"bountyId": "The bounty identifier from AIJudge.",
							"deadline": "block.timestamp deadline copied from AIJudge.Bounty.deadline."
						}
					},
					"revealAnswer(uint256,string,bytes32)": {
						"params": {
							"answer": "Plaintext answer string committed earlier.",
							"bountyId": "Target bounty.",
							"salt": "Random salt used when building the commitment. Valid window: (deadline, deadline + REVEAL_WINDOW]"
						}
					},
					"submitCommitment(uint256,bytes32)": {
						"params": {
							"bountyId": "Target bounty.",
							"commitment": "keccak256(abi.encodePacked(answer, salt, msg.sender, bountyId))"
						}
					}
				},
				"title": "CommitReveal",
				"version": 1
			},
			"evm": {
				"assembly": "    /* \"/ritual-chain-workshop/hardhat/contracts/CommitReveal.sol\":488:8311  contract CommitReveal {... */\n  mstore(0x40, 0x80)\n  callvalue\n  dup1\n  iszero\n  tag_1\n  jumpi\n  revert(0x00, 0x00)\ntag_1:\n  pop\n  dataSize(sub_0)\n  dup1\n  dataOffset(sub_0)\n  0x00\n  codecopy\n  0x00\n  return\nstop\n\nsub_0: assembly {\n        /* \"/ritual-chain-workshop/hardhat/contracts/CommitReveal.sol\":488:8311  contract CommitReveal {... */\n      mstore(0x40, 0x80)\n      callvalue\n      dup1\n      iszero\n      tag_1\n      jumpi\n      revert(0x00, 0x00)\n    tag_1:\n      pop\n      jumpi(tag_2, lt(calldatasize, 0x04))\n      shr(0xe0, calldataload(0x00))\n      dup1\n      0xb1fb6405\n      gt\n      tag_14\n      jumpi\n      dup1\n      0xb1fb6405\n      eq\n      tag_8\n      jumpi\n      dup1\n      0xd5198a71\n      eq\n      tag_9\n      jumpi\n      dup1\n      0xe3ca7323\n      eq\n      tag_10\n      jumpi\n      dup1\n      0xe6a3d9dc\n      eq\n      tag_11\n      jumpi\n      dup1\n      0xedf69225\n      eq\n      tag_12\n      jumpi\n      dup1\n      0xfd3a8329\n      eq\n      tag_13\n      jumpi\n      jump(tag_2)\n    tag_14:\n      dup1\n      0x0d1d771b\n      eq\n      tag_3\n      jumpi\n      dup1\n      0x16b5551d\n      eq\n      tag_4\n      jumpi\n      dup1\n      0x17e931cf\n      eq\n      tag_5\n      jumpi\n      dup1\n      0x37eb3e3b\n      eq\n      tag_6\n      jumpi\n      dup1\n      0x9b339394\n      eq\n      tag_7\n      jumpi\n    tag_2:\n      revert(0x00, 0x00)\n        /* \"/ritual-chain-workshop/hardhat/contracts/CommitReveal.sol\":2462:2510  mapping(uint256 => BountyMeta) public bountyMeta */\n    tag_3:\n      tag_15\n      0x04\n      dup1\n      calldatasize\n      sub\n      dup2\n      add\n      swap1\n      tag_16\n      swap2\n      swap1\n      tag_17\n      jump\t// in\n    tag_16:\n      tag_18\n      jump\t// in\n    tag_15:\n      mload(0x40)\n      tag_19\n      swap3\n      swap2\n      swap1\n      tag_20\n      jump\t// in\n    tag_19:\n      mload(0x40)\n      dup1\n      swap2\n      sub\n      swap1\n      return\n        /* \"/ritual-chain-workshop/hardhat/contracts/CommitReveal.sol\":7748:7900  function hasRevealed(uint256 bountyId, address participant) external view returns (bool) {... */\n    tag_4:\n      tag_21\n      0x04\n      dup1\n      calldatasize\n      sub\n      dup2\n      add\n      swap1\n      tag_22\n      swap2\n      swap1\n      tag_23\n      jump\t// in\n    tag_22:\n      tag_24\n      jump\t// in\n    tag_21:\n      mload(0x40)\n      tag_25\n      swap2\n      swap1\n      tag_26\n      jump\t// in\n    tag_25:\n      mload(0x40)\n      dup1\n      swap2\n      sub\n      swap1\n      return\n        /* \"/ritual-chain-workshop/hardhat/contracts/CommitReveal.sol\":1520:1567  uint256 public constant REVEAL_WINDOW = 1 hours */\n    tag_5:\n      tag_27\n      tag_28\n      jump\t// in\n    tag_27:\n      mload(0x40)\n      tag_29\n      swap2\n      swap1\n      tag_30\n      jump\t// in\n    tag_29:\n      mload(0x40)\n      dup1\n      swap2\n      sub\n      swap1\n      return\n        /* \"/ritual-chain-workshop/hardhat/contracts/CommitReveal.sol\":6893:7152  function makeCommitment(... */\n    tag_6:\n      tag_31\n      0x04\n      dup1\n      calldatasize\n      sub\n      dup2\n      add\n      swap1\n      tag_32\n      swap2\n      swap1\n      tag_33\n      jump\t// in\n    tag_32:\n      tag_34\n      jump\t// in\n    tag_31:\n      mload(0x40)\n      tag_35\n      swap2\n      swap1\n      tag_36\n      jump\t// in\n    tag_35:\n      mload(0x40)\n      dup1\n      swap2\n      sub\n      swap1\n      return\n        /* \"/ritual-chain-workshop/hardhat/contracts/CommitReveal.sol\":2564:2624  mapping(uint256 => mapping(address => Entry)) public entries */\n    tag_7:\n      tag_37\n      0x04\n      dup1\n      calldatasize\n      sub\n      dup2\n      add\n      swap1\n      tag_38\n      swap2\n      swap1\n      tag_23\n      jump\t// in\n    tag_38:\n      tag_39\n      jump\t// in\n    tag_37:\n      mload(0x40)\n      tag_40\n      swap5\n      swap4\n      swap3\n      swap2\n      swap1\n      tag_41\n      jump\t// in\n    tag_40:\n      mload(0x40)\n      dup1\n      swap2\n      sub\n      swap1\n      return\n        /* \"/ritual-chain-workshop/hardhat/contracts/CommitReveal.sol\":7295:7660  function currentPhase(uint256 bountyId) external view returns (uint8) {... */\n    tag_8:\n      tag_42\n      0x04\n      dup1\n      calldatasize\n      sub\n      dup2\n      add\n      swap1\n      tag_43\n      swap2\n      swap1\n      tag_17\n      jump\t// in\n    tag_43:\n      tag_44\n      jump\t// in\n    tag_42:\n      mload(0x40)\n      tag_45\n      swap2\n      swap1\n      tag_46\n      jump\t// in\n    tag_45:\n      mload(0x40)\n      dup1\n      swap2\n      sub\n      swap1\n      return\n        /* \"/ritual-chain-workshop/hardhat/contracts/CommitReveal.sol\":5497:6579  function revealAnswer(uint256 bountyId, string calldata answer, bytes32 salt) external {... */\n    tag_9:\n      tag_47\n      0x04\n      dup1\n      calldatasize\n      sub\n      dup2\n      add\n      swap1\n      tag_48\n      swap2\n      swap1\n      tag_49\n      jump\t// in\n    tag_48:\n      tag_50\n      jump\t// in\n    tag_47:\n      stop\n        /* \"/ritual-chain-workshop/hardhat/contracts/CommitReveal.sol\":8073:8309  function getAnswer(uint256 bountyId, address participant) external view returns (string memory) {... */\n    tag_10:\n      tag_51\n      0x04\n      dup1\n      calldatasize\n      sub\n      dup2\n      add\n      swap1\n      tag_52\n      swap2\n      swap1\n      tag_23\n      jump\t// in\n    tag_52:\n      tag_53\n      jump\t// in\n    tag_51:\n      mload(0x40)\n      tag_54\n      swap2\n      swap1\n      tag_55\n      jump\t// in\n    tag_54:\n      mload(0x40)\n      dup1\n      swap2\n      sub\n      swap1\n      return\n        /* \"/ritual-chain-workshop/hardhat/contracts/CommitReveal.sol\":4428:4951  function submitCommitment(uint256 bountyId, bytes32 commitment) external {... */\n    tag_11:\n      tag_56\n      0x04\n      dup1\n      calldatasize\n      sub\n      dup2\n      add\n      swap1\n      tag_57\n      swap2\n      swap1\n      tag_58\n      jump\t// in\n    tag_57:\n      tag_59\n      jump\t// in\n    tag_56:\n      stop\n        /* \"/ritual-chain-workshop/hardhat/contracts/CommitReveal.sol\":3638:3999  function registerBounty(uint256 bountyId, uint256 deadline) external {... */\n    tag_12:\n      tag_60\n      0x04\n      dup1\n      calldatasize\n      sub\n      dup2\n      add\n      swap1\n      tag_61\n      swap2\n      swap1\n      tag_62\n      jump\t// in\n    tag_61:\n      tag_63\n      jump\t// in\n    tag_60:\n      stop\n        /* \"/ritual-chain-workshop/hardhat/contracts/CommitReveal.sol\":1383:1432  uint256 public constant MAX_ANSWER_LENGTH = 2_000 */\n    tag_13:\n      tag_64\n      tag_65\n      jump\t// in\n    tag_64:\n      mload(0x40)\n      tag_66\n      swap2\n      swap1\n      tag_30\n      jump\t// in\n    tag_66:\n      mload(0x40)\n      dup1\n      swap2\n      sub\n      swap1\n      return\n        /* \"/ritual-chain-workshop/hardhat/contracts/CommitReveal.sol\":2462:2510  mapping(uint256 => BountyMeta) public bountyMeta */\n    tag_18:\n      mstore(0x20, 0x00)\n      dup1\n      0x00\n      mstore\n      keccak256(0x00, 0x40)\n      0x00\n      swap2\n      pop\n      swap1\n      pop\n      dup1\n      0x00\n      add\n      sload\n      swap1\n      dup1\n      0x01\n      add\n      0x00\n      swap1\n      sload\n      swap1\n      0x0100\n      exp\n      swap1\n      div\n      0xff\n      and\n      swap1\n      pop\n      dup3\n      jump\t// out\n        /* \"/ritual-chain-workshop/hardhat/contracts/CommitReveal.sol\":7748:7900  function hasRevealed(uint256 bountyId, address participant) external view returns (bool) {... */\n    tag_24:\n        /* \"/ritual-chain-workshop/hardhat/contracts/CommitReveal.sol\":7831:7835  bool */\n      0x00\n        /* \"/ritual-chain-workshop/hardhat/contracts/CommitReveal.sol\":7854:7861  entries */\n      0x01\n        /* \"/ritual-chain-workshop/hardhat/contracts/CommitReveal.sol\":7854:7871  entries[bountyId] */\n      0x00\n        /* \"/ritual-chain-workshop/hardhat/contracts/CommitReveal.sol\":7862:7870  bountyId */\n      dup5\n        /* \"/ritual-chain-workshop/hardhat/contracts/CommitReveal.sol\":7854:7871  entries[bountyId] */\n      dup2\n      mstore\n      0x20\n      add\n      swap1\n      dup2\n      mstore\n      0x20\n      add\n      0x00\n      keccak256\n        /* \"/ritual-chain-workshop/hardhat/contracts/CommitReveal.sol\":7854:7884  entries[bountyId][participant] */\n      0x00\n        /* \"/ritual-chain-workshop/hardhat/contracts/CommitReveal.sol\":7872:7883  participant */\n      dup4\n        /* \"/ritual-chain-workshop/hardhat/contracts/CommitReveal.sol\":7854:7884  entries[bountyId][participant] */\n      0xffffffffffffffffffffffffffffffffffffffff\n      and\n      0xffffffffffffffffffffffffffffffffffffffff\n      and\n      dup2\n      mstore\n      0x20\n      add\n      swap1\n      dup2\n      mstore\n      0x20\n      add\n      0x00\n      keccak256\n        /* \"/ritual-chain-workshop/hardhat/contracts/CommitReveal.sol\":7854:7893  entries[bountyId][participant].revealed */\n      0x03\n      add\n      0x00\n      swap1\n      sload\n      swap1\n      0x0100\n      exp\n      swap1\n      div\n      0xff\n      and\n        /* \"/ritual-chain-workshop/hardhat/contracts/CommitReveal.sol\":7847:7893  return entries[bountyId][participant].revealed */\n      swap1\n      pop\n        /* \"/ritual-chain-workshop/hardhat/contracts/CommitReveal.sol\":7748:7900  function hasRevealed(uint256 bountyId, address participant) external view returns (bool) {... */\n      swap3\n      swap2\n      pop\n      pop\n      jump\t// out\n        /* \"/ritual-chain-workshop/hardhat/contracts/CommitReveal.sol\":1520:1567  uint256 public constant REVEAL_WINDOW = 1 hours */\n    tag_28:\n        /* \"/ritual-chain-workshop/hardhat/contracts/CommitReveal.sol\":1560:1567  1 hours */\n      0x0e10\n        /* \"/ritual-chain-workshop/hardhat/contracts/CommitReveal.sol\":1520:1567  uint256 public constant REVEAL_WINDOW = 1 hours */\n      dup2\n      jump\t// out\n        /* \"/ritual-chain-workshop/hardhat/contracts/CommitReveal.sol\":6893:7152  function makeCommitment(... */\n    tag_34:\n        /* \"/ritual-chain-workshop/hardhat/contracts/CommitReveal.sol\":7055:7062  bytes32 */\n      0x00\n        /* \"/ritual-chain-workshop/hardhat/contracts/CommitReveal.sol\":7108:7114  answer */\n      dup6\n      dup6\n        /* \"/ritual-chain-workshop/hardhat/contracts/CommitReveal.sol\":7116:7120  salt */\n      dup6\n        /* \"/ritual-chain-workshop/hardhat/contracts/CommitReveal.sol\":7122:7133  participant */\n      dup6\n        /* \"/ritual-chain-workshop/hardhat/contracts/CommitReveal.sol\":7135:7143  bountyId */\n      dup6\n        /* \"/ritual-chain-workshop/hardhat/contracts/CommitReveal.sol\":7091:7144  abi.encodePacked(answer, salt, participant, bountyId) */\n      add(0x20, mload(0x40))\n      tag_69\n      swap6\n      swap5\n      swap4\n      swap3\n      swap2\n      swap1\n      tag_70\n      jump\t// in\n    tag_69:\n      mload(0x40)\n      0x20\n      dup2\n      dup4\n      sub\n      sub\n      dup2\n      mstore\n      swap1\n      0x40\n      mstore\n        /* \"/ritual-chain-workshop/hardhat/contracts/CommitReveal.sol\":7081:7145  keccak256(abi.encodePacked(answer, salt, participant, bountyId)) */\n      dup1\n      mload\n      swap1\n      0x20\n      add\n      keccak256\n        /* \"/ritual-chain-workshop/hardhat/contracts/CommitReveal.sol\":7074:7145  return keccak256(abi.encodePacked(answer, salt, participant, bountyId)) */\n      swap1\n      pop\n        /* \"/ritual-chain-workshop/hardhat/contracts/CommitReveal.sol\":6893:7152  function makeCommitment(... */\n      swap6\n      swap5\n      pop\n      pop\n      pop\n      pop\n      pop\n      jump\t// out\n        /* \"/ritual-chain-workshop/hardhat/contracts/CommitReveal.sol\":2564:2624  mapping(uint256 => mapping(address => Entry)) public entries */\n    tag_39:\n      mstore(0x20, 0x01)\n      dup2\n      0x00\n      mstore\n      mstore(0x20, keccak256(0x00, 0x40))\n      dup1\n      0x00\n      mstore\n      keccak256(0x00, 0x40)\n      0x00\n      swap2\n      pop\n      swap2\n      pop\n      pop\n      dup1\n      0x00\n      add\n      sload\n      swap1\n      dup1\n      0x01\n      add\n      dup1\n      sload\n      tag_71\n      swap1\n      tag_72\n      jump\t// in\n    tag_71:\n      dup1\n      0x1f\n      add\n      0x20\n      dup1\n      swap2\n      div\n      mul\n      0x20\n      add\n      mload(0x40)\n      swap1\n      dup2\n      add\n      0x40\n      mstore\n      dup1\n      swap3\n      swap2\n      swap1\n      dup2\n      dup2\n      mstore\n      0x20\n      add\n      dup3\n      dup1\n      sload\n      tag_73\n      swap1\n      tag_72\n      jump\t// in\n    tag_73:\n      dup1\n      iszero\n      tag_74\n      jumpi\n      dup1\n      0x1f\n      lt\n      tag_75\n      jumpi\n      0x0100\n      dup1\n      dup4\n      sload\n      div\n      mul\n      dup4\n      mstore\n      swap2\n      0x20\n      add\n      swap2\n      jump(tag_74)\n    tag_75:\n      dup3\n      add\n      swap2\n      swap1\n      0x00\n      mstore\n      keccak256(0x00, 0x20)\n      swap1\n    tag_76:\n      dup2\n      sload\n      dup2\n      mstore\n      swap1\n      0x01\n      add\n      swap1\n      0x20\n      add\n      dup1\n      dup4\n      gt\n      tag_76\n      jumpi\n      dup3\n      swap1\n      sub\n      0x1f\n      and\n      dup3\n      add\n      swap2\n    tag_74:\n      pop\n      pop\n      pop\n      pop\n      pop\n      swap1\n      dup1\n      0x02\n      add\n      sload\n      swap1\n      dup1\n      0x03\n      add\n      0x00\n      swap1\n      sload\n      swap1\n      0x0100\n      exp\n      swap1\n      div\n      0xff\n      and\n      swap1\n      pop\n      dup5\n      jump\t// out\n        /* \"/ritual-chain-workshop/hardhat/contracts/CommitReveal.sol\":7295:7660  function currentPhase(uint256 bountyId) external view returns (uint8) {... */\n    tag_44:\n        /* \"/ritual-chain-workshop/hardhat/contracts/CommitReveal.sol\":7358:7363  uint8 */\n      0x00\n        /* \"/ritual-chain-workshop/hardhat/contracts/CommitReveal.sol\":7375:7398  BountyMeta storage meta */\n      0x00\n        /* \"/ritual-chain-workshop/hardhat/contracts/CommitReveal.sol\":7401:7411  bountyMeta */\n      0x00\n        /* \"/ritual-chain-workshop/hardhat/contracts/CommitReveal.sol\":7401:7421  bountyMeta[bountyId] */\n      0x00\n        /* \"/ritual-chain-workshop/hardhat/contracts/CommitReveal.sol\":7412:7420  bountyId */\n      dup5\n        /* \"/ritual-chain-workshop/hardhat/contracts/CommitReveal.sol\":7401:7421  bountyMeta[bountyId] */\n      dup2\n      mstore\n      0x20\n      add\n      swap1\n      dup2\n      mstore\n      0x20\n      add\n      0x00\n      keccak256\n        /* \"/ritual-chain-workshop/hardhat/contracts/CommitReveal.sol\":7375:7421  BountyMeta storage meta = bountyMeta[bountyId] */\n      swap1\n      pop\n        /* \"/ritual-chain-workshop/hardhat/contracts/CommitReveal.sol\":7436:7440  meta */\n      dup1\n        /* \"/ritual-chain-workshop/hardhat/contracts/CommitReveal.sol\":7436:7451  meta.registered */\n      0x01\n      add\n      0x00\n      swap1\n      sload\n      swap1\n      0x0100\n      exp\n      swap1\n      div\n      0xff\n      and\n        /* \"/ritual-chain-workshop/hardhat/contracts/CommitReveal.sol\":7431:7492  if (!meta.registered)                                return 2 */\n      tag_78\n      jumpi\n        /* \"/ritual-chain-workshop/hardhat/contracts/CommitReveal.sol\":7491:7492  2 */\n      0x02\n        /* \"/ritual-chain-workshop/hardhat/contracts/CommitReveal.sol\":7484:7492  return 2 */\n      swap2\n      pop\n      pop\n      jump(tag_77)\n        /* \"/ritual-chain-workshop/hardhat/contracts/CommitReveal.sol\":7431:7492  if (!meta.registered)                                return 2 */\n    tag_78:\n        /* \"/ritual-chain-workshop/hardhat/contracts/CommitReveal.sol\":7524:7528  meta */\n      dup1\n        /* \"/ritual-chain-workshop/hardhat/contracts/CommitReveal.sol\":7524:7537  meta.deadline */\n      0x00\n      add\n      sload\n        /* \"/ritual-chain-workshop/hardhat/contracts/CommitReveal.sol\":7506:7521  block.timestamp */\n      timestamp\n        /* \"/ritual-chain-workshop/hardhat/contracts/CommitReveal.sol\":7506:7537  block.timestamp < meta.deadline */\n      lt\n        /* \"/ritual-chain-workshop/hardhat/contracts/CommitReveal.sol\":7502:7563  if (block.timestamp < meta.deadline)                 return 0 */\n      iszero\n      tag_79\n      jumpi\n        /* \"/ritual-chain-workshop/hardhat/contracts/CommitReveal.sol\":7562:7563  0 */\n      0x00\n        /* \"/ritual-chain-workshop/hardhat/contracts/CommitReveal.sol\":7555:7563  return 0 */\n      swap2\n      pop\n      pop\n      jump(tag_77)\n        /* \"/ritual-chain-workshop/hardhat/contracts/CommitReveal.sol\":7502:7563  if (block.timestamp < meta.deadline)                 return 0 */\n    tag_79:\n        /* \"/ritual-chain-workshop/hardhat/contracts/CommitReveal.sol\":1560:1567  1 hours */\n      0x0e10\n        /* \"/ritual-chain-workshop/hardhat/contracts/CommitReveal.sol\":7596:7600  meta */\n      dup2\n        /* \"/ritual-chain-workshop/hardhat/contracts/CommitReveal.sol\":7596:7609  meta.deadline */\n      0x00\n      add\n      sload\n        /* \"/ritual-chain-workshop/hardhat/contracts/CommitReveal.sol\":7596:7625  meta.deadline + REVEAL_WINDOW */\n      tag_80\n      swap2\n      swap1\n      tag_81\n      jump\t// in\n    tag_80:\n        /* \"/ritual-chain-workshop/hardhat/contracts/CommitReveal.sol\":7577:7592  block.timestamp */\n      timestamp\n        /* \"/ritual-chain-workshop/hardhat/contracts/CommitReveal.sol\":7577:7625  block.timestamp <= meta.deadline + REVEAL_WINDOW */\n      gt\n        /* \"/ritual-chain-workshop/hardhat/contracts/CommitReveal.sol\":7573:7635  if (block.timestamp <= meta.deadline + REVEAL_WINDOW) return 1 */\n      tag_82\n      jumpi\n        /* \"/ritual-chain-workshop/hardhat/contracts/CommitReveal.sol\":7634:7635  1 */\n      0x01\n        /* \"/ritual-chain-workshop/hardhat/contracts/CommitReveal.sol\":7627:7635  return 1 */\n      swap2\n      pop\n      pop\n      jump(tag_77)\n        /* \"/ritual-chain-workshop/hardhat/contracts/CommitReveal.sol\":7573:7635  if (block.timestamp <= meta.deadline + REVEAL_WINDOW) return 1 */\n    tag_82:\n        /* \"/ritual-chain-workshop/hardhat/contracts/CommitReveal.sol\":7652:7653  2 */\n      0x02\n        /* \"/ritual-chain-workshop/hardhat/contracts/CommitReveal.sol\":7645:7653  return 2 */\n      swap2\n      pop\n      pop\n        /* \"/ritual-chain-workshop/hardhat/contracts/CommitReveal.sol\":7295:7660  function currentPhase(uint256 bountyId) external view returns (uint8) {... */\n    tag_77:\n      swap2\n      swap1\n      pop\n      jump\t// out\n        /* \"/ritual-chain-workshop/hardhat/contracts/CommitReveal.sol\":5497:6579  function revealAnswer(uint256 bountyId, string calldata answer, bytes32 salt) external {... */\n    tag_50:\n        /* \"/ritual-chain-workshop/hardhat/contracts/CommitReveal.sol\":5594:5617  BountyMeta storage meta */\n      0x00\n        /* \"/ritual-chain-workshop/hardhat/contracts/CommitReveal.sol\":5620:5630  bountyMeta */\n      0x00\n        /* \"/ritual-chain-workshop/hardhat/contracts/CommitReveal.sol\":5620:5640  bountyMeta[bountyId] */\n      0x00\n        /* \"/ritual-chain-workshop/hardhat/contracts/CommitReveal.sol\":5631:5639  bountyId */\n      dup7\n        /* \"/ritual-chain-workshop/hardhat/contracts/CommitReveal.sol\":5620:5640  bountyMeta[bountyId] */\n      dup2\n      mstore\n      0x20\n      add\n      swap1\n      dup2\n      mstore\n      0x20\n      add\n      0x00\n      keccak256\n        /* \"/ritual-chain-workshop/hardhat/contracts/CommitReveal.sol\":5594:5640  BountyMeta storage meta = bountyMeta[bountyId] */\n      swap1\n      pop\n        /* \"/ritual-chain-workshop/hardhat/contracts/CommitReveal.sol\":5655:5659  meta */\n      dup1\n        /* \"/ritual-chain-workshop/hardhat/contracts/CommitReveal.sol\":5655:5670  meta.registered */\n      0x01\n      add\n      0x00\n      swap1\n      sload\n      swap1\n      0x0100\n      exp\n      swap1\n      div\n      0xff\n      and\n        /* \"/ritual-chain-workshop/hardhat/contracts/CommitReveal.sol\":5650:5733  if (!meta.registered)                                  revert BountyNotRegistered() */\n      tag_84\n      jumpi\n        /* \"/ritual-chain-workshop/hardhat/contracts/CommitReveal.sol\":5712:5733  BountyNotRegistered() */\n      mload(0x40)\n      0xfc8c599700000000000000000000000000000000000000000000000000000000\n      dup2\n      mstore\n      0x04\n      add\n      mload(0x40)\n      dup1\n      swap2\n      sub\n      swap1\n      revert\n        /* \"/ritual-chain-workshop/hardhat/contracts/CommitReveal.sol\":5650:5733  if (!meta.registered)                                  revert BountyNotRegistered() */\n    tag_84:\n        /* \"/ritual-chain-workshop/hardhat/contracts/CommitReveal.sol\":5766:5770  meta */\n      dup1\n        /* \"/ritual-chain-workshop/hardhat/contracts/CommitReveal.sol\":5766:5779  meta.deadline */\n      0x00\n      add\n      sload\n        /* \"/ritual-chain-workshop/hardhat/contracts/CommitReveal.sol\":5747:5762  block.timestamp */\n      timestamp\n        /* \"/ritual-chain-workshop/hardhat/contracts/CommitReveal.sol\":5747:5779  block.timestamp <= meta.deadline */\n      gt\n        /* \"/ritual-chain-workshop/hardhat/contracts/CommitReveal.sol\":5743:5825  if (block.timestamp <= meta.deadline)                  revert RevealPhaseNotOpen() */\n      tag_85\n      jumpi\n        /* \"/ritual-chain-workshop/hardhat/contracts/CommitReveal.sol\":5805:5825  RevealPhaseNotOpen() */\n      mload(0x40)\n      0x7ff3813100000000000000000000000000000000000000000000000000000000\n      dup2\n      mstore\n      0x04\n      add\n      mload(0x40)\n      dup1\n      swap2\n      sub\n      swap1\n      revert\n        /* \"/ritual-chain-workshop/hardhat/contracts/CommitReveal.sol\":5743:5825  if (block.timestamp <= meta.deadline)                  revert RevealPhaseNotOpen() */\n    tag_85:\n        /* \"/ritual-chain-workshop/hardhat/contracts/CommitReveal.sol\":1560:1567  1 hours */\n      0x0e10\n        /* \"/ritual-chain-workshop/hardhat/contracts/CommitReveal.sol\":5857:5861  meta */\n      dup2\n        /* \"/ritual-chain-workshop/hardhat/contracts/CommitReveal.sol\":5857:5870  meta.deadline */\n      0x00\n      add\n      sload\n        /* \"/ritual-chain-workshop/hardhat/contracts/CommitReveal.sol\":5857:5886  meta.deadline + REVEAL_WINDOW */\n      tag_86\n      swap2\n      swap1\n      tag_81\n      jump\t// in\n    tag_86:\n        /* \"/ritual-chain-workshop/hardhat/contracts/CommitReveal.sol\":5839:5854  block.timestamp */\n      timestamp\n        /* \"/ritual-chain-workshop/hardhat/contracts/CommitReveal.sol\":5839:5886  block.timestamp > meta.deadline + REVEAL_WINDOW */\n      gt\n        /* \"/ritual-chain-workshop/hardhat/contracts/CommitReveal.sol\":5835:5916  if (block.timestamp > meta.deadline + REVEAL_WINDOW)   revert RevealPhaseClosed() */\n      iszero\n      tag_87\n      jumpi\n        /* \"/ritual-chain-workshop/hardhat/contracts/CommitReveal.sol\":5897:5916  RevealPhaseClosed() */\n      mload(0x40)\n      0x59f7396100000000000000000000000000000000000000000000000000000000\n      dup2\n      mstore\n      0x04\n      add\n      mload(0x40)\n      dup1\n      swap2\n      sub\n      swap1\n      revert\n        /* \"/ritual-chain-workshop/hardhat/contracts/CommitReveal.sol\":5835:5916  if (block.timestamp > meta.deadline + REVEAL_WINDOW)   revert RevealPhaseClosed() */\n    tag_87:\n        /* \"/ritual-chain-workshop/hardhat/contracts/CommitReveal.sol\":1427:1432  2_000 */\n      0x07d0\n        /* \"/ritual-chain-workshop/hardhat/contracts/CommitReveal.sol\":5936:5942  answer */\n      dup5\n      dup5\n        /* \"/ritual-chain-workshop/hardhat/contracts/CommitReveal.sol\":5930:5950  bytes(answer).length */\n      swap1\n      pop\n        /* \"/ritual-chain-workshop/hardhat/contracts/CommitReveal.sol\":5930:5970  bytes(answer).length > MAX_ANSWER_LENGTH */\n      gt\n        /* \"/ritual-chain-workshop/hardhat/contracts/CommitReveal.sol\":5926:6003  if (bytes(answer).length > MAX_ANSWER_LENGTH)          revert AnswerTooLong() */\n      iszero\n      tag_88\n      jumpi\n        /* \"/ritual-chain-workshop/hardhat/contracts/CommitReveal.sol\":5988:6003  AnswerTooLong() */\n      mload(0x40)\n      0x727c70e100000000000000000000000000000000000000000000000000000000\n      dup2\n      mstore\n      0x04\n      add\n      mload(0x40)\n      dup1\n      swap2\n      sub\n      swap1\n      revert\n        /* \"/ritual-chain-workshop/hardhat/contracts/CommitReveal.sol\":5926:6003  if (bytes(answer).length > MAX_ANSWER_LENGTH)          revert AnswerTooLong() */\n    tag_88:\n        /* \"/ritual-chain-workshop/hardhat/contracts/CommitReveal.sol\":6014:6029  Entry storage e */\n      0x00\n        /* \"/ritual-chain-workshop/hardhat/contracts/CommitReveal.sol\":6032:6039  entries */\n      0x01\n        /* \"/ritual-chain-workshop/hardhat/contracts/CommitReveal.sol\":6032:6049  entries[bountyId] */\n      0x00\n        /* \"/ritual-chain-workshop/hardhat/contracts/CommitReveal.sol\":6040:6048  bountyId */\n      dup8\n        /* \"/ritual-chain-workshop/hardhat/contracts/CommitReveal.sol\":6032:6049  entries[bountyId] */\n      dup2\n      mstore\n      0x20\n      add\n      swap1\n      dup2\n      mstore\n      0x20\n      add\n      0x00\n      keccak256\n        /* \"/ritual-chain-workshop/hardhat/contracts/CommitReveal.sol\":6032:6061  entries[bountyId][msg.sender] */\n      0x00\n        /* \"/ritual-chain-workshop/hardhat/contracts/CommitReveal.sol\":6050:6060  msg.sender */\n      caller\n        /* \"/ritual-chain-workshop/hardhat/contracts/CommitReveal.sol\":6032:6061  entries[bountyId][msg.sender] */\n      0xffffffffffffffffffffffffffffffffffffffff\n      and\n      0xffffffffffffffffffffffffffffffffffffffff\n      and\n      dup2\n      mstore\n      0x20\n      add\n      swap1\n      dup2\n      mstore\n      0x20\n      add\n      0x00\n      keccak256\n        /* \"/ritual-chain-workshop/hardhat/contracts/CommitReveal.sol\":6014:6061  Entry storage e = entries[bountyId][msg.sender] */\n      swap1\n      pop\n        /* \"/ritual-chain-workshop/hardhat/contracts/CommitReveal.sol\":6091:6092  0 */\n      0x00\n        /* \"/ritual-chain-workshop/hardhat/contracts/CommitReveal.sol\":6075:6092  e.commitment == 0 */\n      0x00\n      shl\n        /* \"/ritual-chain-workshop/hardhat/contracts/CommitReveal.sol\":6075:6076  e */\n      dup2\n        /* \"/ritual-chain-workshop/hardhat/contracts/CommitReveal.sol\":6075:6087  e.commitment */\n      0x00\n      add\n      sload\n        /* \"/ritual-chain-workshop/hardhat/contracts/CommitReveal.sol\":6075:6092  e.commitment == 0 */\n      sub\n        /* \"/ritual-chain-workshop/hardhat/contracts/CommitReveal.sol\":6071:6120  if (e.commitment == 0)  revert NothingCommitted() */\n      tag_89\n      jumpi\n        /* \"/ritual-chain-workshop/hardhat/contracts/CommitReveal.sol\":6102:6120  NothingCommitted() */\n      mload(0x40)\n      0x835a24b100000000000000000000000000000000000000000000000000000000\n      dup2\n      mstore\n      0x04\n      add\n      mload(0x40)\n      dup1\n      swap2\n      sub\n      swap1\n      revert\n        /* \"/ritual-chain-workshop/hardhat/contracts/CommitReveal.sol\":6071:6120  if (e.commitment == 0)  revert NothingCommitted() */\n    tag_89:\n        /* \"/ritual-chain-workshop/hardhat/contracts/CommitReveal.sol\":6134:6135  e */\n      dup1\n        /* \"/ritual-chain-workshop/hardhat/contracts/CommitReveal.sol\":6134:6144  e.revealed */\n      0x03\n      add\n      0x00\n      swap1\n      sload\n      swap1\n      0x0100\n      exp\n      swap1\n      div\n      0xff\n      and\n        /* \"/ritual-chain-workshop/hardhat/contracts/CommitReveal.sol\":6130:6178  if (e.revealed)         revert AlreadyRevealed() */\n      iszero\n      tag_90\n      jumpi\n        /* \"/ritual-chain-workshop/hardhat/contracts/CommitReveal.sol\":6161:6178  AlreadyRevealed() */\n      mload(0x40)\n      0xa89ac15100000000000000000000000000000000000000000000000000000000\n      dup2\n      mstore\n      0x04\n      add\n      mload(0x40)\n      dup1\n      swap2\n      sub\n      swap1\n      revert\n        /* \"/ritual-chain-workshop/hardhat/contracts/CommitReveal.sol\":6130:6178  if (e.revealed)         revert AlreadyRevealed() */\n    tag_90:\n        /* \"/ritual-chain-workshop/hardhat/contracts/CommitReveal.sol\":6285:6301  bytes32 expected */\n      0x00\n        /* \"/ritual-chain-workshop/hardhat/contracts/CommitReveal.sol\":6331:6337  answer */\n      dup6\n      dup6\n        /* \"/ritual-chain-workshop/hardhat/contracts/CommitReveal.sol\":6339:6343  salt */\n      dup6\n        /* \"/ritual-chain-workshop/hardhat/contracts/CommitReveal.sol\":6345:6355  msg.sender */\n      caller\n        /* \"/ritual-chain-workshop/hardhat/contracts/CommitReveal.sol\":6357:6365  bountyId */\n      dup11\n        /* \"/ritual-chain-workshop/hardhat/contracts/CommitReveal.sol\":6314:6366  abi.encodePacked(answer, salt, msg.sender, bountyId) */\n      add(0x20, mload(0x40))\n      tag_91\n      swap6\n      swap5\n      swap4\n      swap3\n      swap2\n      swap1\n      tag_70\n      jump\t// in\n    tag_91:\n      mload(0x40)\n      0x20\n      dup2\n      dup4\n      sub\n      sub\n      dup2\n      mstore\n      swap1\n      0x40\n      mstore\n        /* \"/ritual-chain-workshop/hardhat/contracts/CommitReveal.sol\":6304:6367  keccak256(abi.encodePacked(answer, salt, msg.sender, bountyId)) */\n      dup1\n      mload\n      swap1\n      0x20\n      add\n      keccak256\n        /* \"/ritual-chain-workshop/hardhat/contracts/CommitReveal.sol\":6285:6367  bytes32 expected = keccak256(abi.encodePacked(answer, salt, msg.sender, bountyId)) */\n      swap1\n      pop\n        /* \"/ritual-chain-workshop/hardhat/contracts/CommitReveal.sol\":6393:6394  e */\n      dup2\n        /* \"/ritual-chain-workshop/hardhat/contracts/CommitReveal.sol\":6393:6405  e.commitment */\n      0x00\n      add\n      sload\n        /* \"/ritual-chain-workshop/hardhat/contracts/CommitReveal.sol\":6381:6389  expected */\n      dup2\n        /* \"/ritual-chain-workshop/hardhat/contracts/CommitReveal.sol\":6381:6405  expected != e.commitment */\n      eq\n        /* \"/ritual-chain-workshop/hardhat/contracts/CommitReveal.sol\":6377:6428  if (expected != e.commitment) revert HashMismatch() */\n      tag_92\n      jumpi\n        /* \"/ritual-chain-workshop/hardhat/contracts/CommitReveal.sol\":6414:6428  HashMismatch() */\n      mload(0x40)\n      0x3f4d605300000000000000000000000000000000000000000000000000000000\n      dup2\n      mstore\n      0x04\n      add\n      mload(0x40)\n      dup1\n      swap2\n      sub\n      swap1\n      revert\n        /* \"/ritual-chain-workshop/hardhat/contracts/CommitReveal.sol\":6377:6428  if (expected != e.commitment) revert HashMismatch() */\n    tag_92:\n        /* \"/ritual-chain-workshop/hardhat/contracts/CommitReveal.sol\":6452:6458  answer */\n      dup6\n      dup6\n        /* \"/ritual-chain-workshop/hardhat/contracts/CommitReveal.sol\":6439:6440  e */\n      dup4\n        /* \"/ritual-chain-workshop/hardhat/contracts/CommitReveal.sol\":6439:6447  e.answer */\n      0x01\n      add\n        /* \"/ritual-chain-workshop/hardhat/contracts/CommitReveal.sol\":6439:6458  e.answer   = answer */\n      swap2\n      dup3\n      tag_93\n      swap3\n      swap2\n      swap1\n      tag_94\n      jump\t// in\n    tag_93:\n      pop\n        /* \"/ritual-chain-workshop/hardhat/contracts/CommitReveal.sol\":6481:6485  salt */\n      dup4\n        /* \"/ritual-chain-workshop/hardhat/contracts/CommitReveal.sol\":6468:6469  e */\n      dup3\n        /* \"/ritual-chain-workshop/hardhat/contracts/CommitReveal.sol\":6468:6474  e.salt */\n      0x02\n      add\n        /* \"/ritual-chain-workshop/hardhat/contracts/CommitReveal.sol\":6468:6485  e.salt     = salt */\n      dup2\n      swap1\n      sstore\n      pop\n        /* \"/ritual-chain-workshop/hardhat/contracts/CommitReveal.sol\":6508:6512  true */\n      0x01\n        /* \"/ritual-chain-workshop/hardhat/contracts/CommitReveal.sol\":6495:6496  e */\n      dup3\n        /* \"/ritual-chain-workshop/hardhat/contracts/CommitReveal.sol\":6495:6505  e.revealed */\n      0x03\n      add\n      0x00\n        /* \"/ritual-chain-workshop/hardhat/contracts/CommitReveal.sol\":6495:6512  e.revealed = true */\n      0x0100\n      exp\n      dup2\n      sload\n      dup2\n      0xff\n      mul\n      not\n      and\n      swap1\n      dup4\n      iszero\n      iszero\n      mul\n      or\n      swap1\n      sstore\n      pop\n        /* \"/ritual-chain-workshop/hardhat/contracts/CommitReveal.sol\":6547:6557  msg.sender */\n      caller\n        /* \"/ritual-chain-workshop/hardhat/contracts/CommitReveal.sol\":6528:6572  Revealed(bountyId, msg.sender, answer, salt) */\n      0xffffffffffffffffffffffffffffffffffffffff\n      and\n        /* \"/ritual-chain-workshop/hardhat/contracts/CommitReveal.sol\":6537:6545  bountyId */\n      dup8\n        /* \"/ritual-chain-workshop/hardhat/contracts/CommitReveal.sol\":6528:6572  Revealed(bountyId, msg.sender, answer, salt) */\n      0xa129ccbaf9f77b4d5415c89beea575cd28ea63a9b5b776c955c8d2508e471a22\n        /* \"/ritual-chain-workshop/hardhat/contracts/CommitReveal.sol\":6559:6565  answer */\n      dup9\n      dup9\n        /* \"/ritual-chain-workshop/hardhat/contracts/CommitReveal.sol\":6567:6571  salt */\n      dup9\n        /* \"/ritual-chain-workshop/hardhat/contracts/CommitReveal.sol\":6528:6572  Revealed(bountyId, msg.sender, answer, salt) */\n      mload(0x40)\n      tag_95\n      swap4\n      swap3\n      swap2\n      swap1\n      tag_96\n      jump\t// in\n    tag_95:\n      mload(0x40)\n      dup1\n      swap2\n      sub\n      swap1\n      log3\n        /* \"/ritual-chain-workshop/hardhat/contracts/CommitReveal.sol\":5584:6579  {... */\n      pop\n      pop\n      pop\n        /* \"/ritual-chain-workshop/hardhat/contracts/CommitReveal.sol\":5497:6579  function revealAnswer(uint256 bountyId, string calldata answer, bytes32 salt) external {... */\n      pop\n      pop\n      pop\n      pop\n      jump\t// out\n        /* \"/ritual-chain-workshop/hardhat/contracts/CommitReveal.sol\":8073:8309  function getAnswer(uint256 bountyId, address participant) external view returns (string memory) {... */\n    tag_53:\n        /* \"/ritual-chain-workshop/hardhat/contracts/CommitReveal.sol\":8154:8167  string memory */\n      0x60\n        /* \"/ritual-chain-workshop/hardhat/contracts/CommitReveal.sol\":8179:8194  Entry storage e */\n      0x00\n        /* \"/ritual-chain-workshop/hardhat/contracts/CommitReveal.sol\":8197:8204  entries */\n      0x01\n        /* \"/ritual-chain-workshop/hardhat/contracts/CommitReveal.sol\":8197:8214  entries[bountyId] */\n      0x00\n        /* \"/ritual-chain-workshop/hardhat/contracts/CommitReveal.sol\":8205:8213  bountyId */\n      dup6\n        /* \"/ritual-chain-workshop/hardhat/contracts/CommitReveal.sol\":8197:8214  entries[bountyId] */\n      dup2\n      mstore\n      0x20\n      add\n      swap1\n      dup2\n      mstore\n      0x20\n      add\n      0x00\n      keccak256\n        /* \"/ritual-chain-workshop/hardhat/contracts/CommitReveal.sol\":8197:8227  entries[bountyId][participant] */\n      0x00\n        /* \"/ritual-chain-workshop/hardhat/contracts/CommitReveal.sol\":8215:8226  participant */\n      dup5\n        /* \"/ritual-chain-workshop/hardhat/contracts/CommitReveal.sol\":8197:8227  entries[bountyId][participant] */\n      0xffffffffffffffffffffffffffffffffffffffff\n      and\n      0xffffffffffffffffffffffffffffffffffffffff\n      and\n      dup2\n      mstore\n      0x20\n      add\n      swap1\n      dup2\n      mstore\n      0x20\n      add\n      0x00\n      keccak256\n        /* \"/ritual-chain-workshop/hardhat/contracts/CommitReveal.sol\":8179:8227  Entry storage e = entries[bountyId][participant] */\n      swap1\n      pop\n        /* \"/ritual-chain-workshop/hardhat/contracts/CommitReveal.sol\":8242:8243  e */\n      dup1\n        /* \"/ritual-chain-workshop/hardhat/contracts/CommitReveal.sol\":8242:8252  e.revealed */\n      0x03\n      add\n      0x00\n      swap1\n      sload\n      swap1\n      0x0100\n      exp\n      swap1\n      div\n      0xff\n      and\n        /* \"/ritual-chain-workshop/hardhat/contracts/CommitReveal.sol\":8237:8277  if (!e.revealed) revert NotRevealedYet() */\n      tag_98\n      jumpi\n        /* \"/ritual-chain-workshop/hardhat/contracts/CommitReveal.sol\":8261:8277  NotRevealedYet() */\n      mload(0x40)\n      0x19738cc400000000000000000000000000000000000000000000000000000000\n      dup2\n      mstore\n      0x04\n      add\n      mload(0x40)\n      dup1\n      swap2\n      sub\n      swap1\n      revert\n        /* \"/ritual-chain-workshop/hardhat/contracts/CommitReveal.sol\":8237:8277  if (!e.revealed) revert NotRevealedYet() */\n    tag_98:\n        /* \"/ritual-chain-workshop/hardhat/contracts/CommitReveal.sol\":8294:8295  e */\n      dup1\n        /* \"/ritual-chain-workshop/hardhat/contracts/CommitReveal.sol\":8294:8302  e.answer */\n      0x01\n      add\n        /* \"/ritual-chain-workshop/hardhat/contracts/CommitReveal.sol\":8287:8302  return e.answer */\n      dup1\n      sload\n      tag_99\n      swap1\n      tag_72\n      jump\t// in\n    tag_99:\n      dup1\n      0x1f\n      add\n      0x20\n      dup1\n      swap2\n      div\n      mul\n      0x20\n      add\n      mload(0x40)\n      swap1\n      dup2\n      add\n      0x40\n      mstore\n      dup1\n      swap3\n      swap2\n      swap1\n      dup2\n      dup2\n      mstore\n      0x20\n      add\n      dup3\n      dup1\n      sload\n      tag_100\n      swap1\n      tag_72\n      jump\t// in\n    tag_100:\n      dup1\n      iszero\n      tag_101\n      jumpi\n      dup1\n      0x1f\n      lt\n      tag_102\n      jumpi\n      0x0100\n      dup1\n      dup4\n      sload\n      div\n      mul\n      dup4\n      mstore\n      swap2\n      0x20\n      add\n      swap2\n      jump(tag_101)\n    tag_102:\n      dup3\n      add\n      swap2\n      swap1\n      0x00\n      mstore\n      keccak256(0x00, 0x20)\n      swap1\n    tag_103:\n      dup2\n      sload\n      dup2\n      mstore\n      swap1\n      0x01\n      add\n      swap1\n      0x20\n      add\n      dup1\n      dup4\n      gt\n      tag_103\n      jumpi\n      dup3\n      swap1\n      sub\n      0x1f\n      and\n      dup3\n      add\n      swap2\n    tag_101:\n      pop\n      pop\n      pop\n      pop\n      pop\n      swap2\n      pop\n      pop\n        /* \"/ritual-chain-workshop/hardhat/contracts/CommitReveal.sol\":8073:8309  function getAnswer(uint256 bountyId, address participant) external view returns (string memory) {... */\n      swap3\n      swap2\n      pop\n      pop\n      jump\t// out\n        /* \"/ritual-chain-workshop/hardhat/contracts/CommitReveal.sol\":4428:4951  function submitCommitment(uint256 bountyId, bytes32 commitment) external {... */\n    tag_59:\n        /* \"/ritual-chain-workshop/hardhat/contracts/CommitReveal.sol\":4511:4534  BountyMeta storage meta */\n      0x00\n        /* \"/ritual-chain-workshop/hardhat/contracts/CommitReveal.sol\":4537:4547  bountyMeta */\n      0x00\n        /* \"/ritual-chain-workshop/hardhat/contracts/CommitReveal.sol\":4537:4557  bountyMeta[bountyId] */\n      0x00\n        /* \"/ritual-chain-workshop/hardhat/contracts/CommitReveal.sol\":4548:4556  bountyId */\n      dup5\n        /* \"/ritual-chain-workshop/hardhat/contracts/CommitReveal.sol\":4537:4557  bountyMeta[bountyId] */\n      dup2\n      mstore\n      0x20\n      add\n      swap1\n      dup2\n      mstore\n      0x20\n      add\n      0x00\n      keccak256\n        /* \"/ritual-chain-workshop/hardhat/contracts/CommitReveal.sol\":4511:4557  BountyMeta storage meta = bountyMeta[bountyId] */\n      swap1\n      pop\n        /* \"/ritual-chain-workshop/hardhat/contracts/CommitReveal.sol\":4572:4576  meta */\n      dup1\n        /* \"/ritual-chain-workshop/hardhat/contracts/CommitReveal.sol\":4572:4587  meta.registered */\n      0x01\n      add\n      0x00\n      swap1\n      sload\n      swap1\n      0x0100\n      exp\n      swap1\n      div\n      0xff\n      and\n        /* \"/ritual-chain-workshop/hardhat/contracts/CommitReveal.sol\":4567:4647  if (!meta.registered)                               revert BountyNotRegistered() */\n      tag_105\n      jumpi\n        /* \"/ritual-chain-workshop/hardhat/contracts/CommitReveal.sol\":4626:4647  BountyNotRegistered() */\n      mload(0x40)\n      0xfc8c599700000000000000000000000000000000000000000000000000000000\n      dup2\n      mstore\n      0x04\n      add\n      mload(0x40)\n      dup1\n      swap2\n      sub\n      swap1\n      revert\n        /* \"/ritual-chain-workshop/hardhat/contracts/CommitReveal.sol\":4567:4647  if (!meta.registered)                               revert BountyNotRegistered() */\n    tag_105:\n        /* \"/ritual-chain-workshop/hardhat/contracts/CommitReveal.sol\":4680:4684  meta */\n      dup1\n        /* \"/ritual-chain-workshop/hardhat/contracts/CommitReveal.sol\":4680:4693  meta.deadline */\n      0x00\n      add\n      sload\n        /* \"/ritual-chain-workshop/hardhat/contracts/CommitReveal.sol\":4661:4676  block.timestamp */\n      timestamp\n        /* \"/ritual-chain-workshop/hardhat/contracts/CommitReveal.sol\":4661:4693  block.timestamp >= meta.deadline */\n      lt\n        /* \"/ritual-chain-workshop/hardhat/contracts/CommitReveal.sol\":4657:4735  if (block.timestamp >= meta.deadline)               revert CommitPhaseClosed() */\n      tag_106\n      jumpi\n        /* \"/ritual-chain-workshop/hardhat/contracts/CommitReveal.sol\":4716:4735  CommitPhaseClosed() */\n      mload(0x40)\n      0x5d0e774000000000000000000000000000000000000000000000000000000000\n      dup2\n      mstore\n      0x04\n      add\n      mload(0x40)\n      dup1\n      swap2\n      sub\n      swap1\n      revert\n        /* \"/ritual-chain-workshop/hardhat/contracts/CommitReveal.sol\":4657:4735  if (block.timestamp >= meta.deadline)               revert CommitPhaseClosed() */\n    tag_106:\n        /* \"/ritual-chain-workshop/hardhat/contracts/CommitReveal.sol\":4793:4794  0 */\n      0x00\n        /* \"/ritual-chain-workshop/hardhat/contracts/CommitReveal.sol\":4749:4794  entries[bountyId][msg.sender].commitment != 0 */\n      0x00\n      shl\n        /* \"/ritual-chain-workshop/hardhat/contracts/CommitReveal.sol\":4749:4756  entries */\n      0x01\n        /* \"/ritual-chain-workshop/hardhat/contracts/CommitReveal.sol\":4749:4766  entries[bountyId] */\n      0x00\n        /* \"/ritual-chain-workshop/hardhat/contracts/CommitReveal.sol\":4757:4765  bountyId */\n      dup6\n        /* \"/ritual-chain-workshop/hardhat/contracts/CommitReveal.sol\":4749:4766  entries[bountyId] */\n      dup2\n      mstore\n      0x20\n      add\n      swap1\n      dup2\n      mstore\n      0x20\n      add\n      0x00\n      keccak256\n        /* \"/ritual-chain-workshop/hardhat/contracts/CommitReveal.sol\":4749:4778  entries[bountyId][msg.sender] */\n      0x00\n        /* \"/ritual-chain-workshop/hardhat/contracts/CommitReveal.sol\":4767:4777  msg.sender */\n      caller\n        /* \"/ritual-chain-workshop/hardhat/contracts/CommitReveal.sol\":4749:4778  entries[bountyId][msg.sender] */\n      0xffffffffffffffffffffffffffffffffffffffff\n      and\n      0xffffffffffffffffffffffffffffffffffffffff\n      and\n      dup2\n      mstore\n      0x20\n      add\n      swap1\n      dup2\n      mstore\n      0x20\n      add\n      0x00\n      keccak256\n        /* \"/ritual-chain-workshop/hardhat/contracts/CommitReveal.sol\":4749:4789  entries[bountyId][msg.sender].commitment */\n      0x00\n      add\n      sload\n        /* \"/ritual-chain-workshop/hardhat/contracts/CommitReveal.sol\":4749:4794  entries[bountyId][msg.sender].commitment != 0 */\n      eq\n        /* \"/ritual-chain-workshop/hardhat/contracts/CommitReveal.sol\":4745:4822  if (entries[bountyId][msg.sender].commitment != 0)  revert AlreadyCommitted() */\n      tag_107\n      jumpi\n        /* \"/ritual-chain-workshop/hardhat/contracts/CommitReveal.sol\":4804:4822  AlreadyCommitted() */\n      mload(0x40)\n      0xbfec555800000000000000000000000000000000000000000000000000000000\n      dup2\n      mstore\n      0x04\n      add\n      mload(0x40)\n      dup1\n      swap2\n      sub\n      swap1\n      revert\n        /* \"/ritual-chain-workshop/hardhat/contracts/CommitReveal.sol\":4745:4822  if (entries[bountyId][msg.sender].commitment != 0)  revert AlreadyCommitted() */\n    tag_107:\n        /* \"/ritual-chain-workshop/hardhat/contracts/CommitReveal.sol\":4876:4886  commitment */\n      dup2\n        /* \"/ritual-chain-workshop/hardhat/contracts/CommitReveal.sol\":4833:4840  entries */\n      0x01\n        /* \"/ritual-chain-workshop/hardhat/contracts/CommitReveal.sol\":4833:4850  entries[bountyId] */\n      0x00\n        /* \"/ritual-chain-workshop/hardhat/contracts/CommitReveal.sol\":4841:4849  bountyId */\n      dup6\n        /* \"/ritual-chain-workshop/hardhat/contracts/CommitReveal.sol\":4833:4850  entries[bountyId] */\n      dup2\n      mstore\n      0x20\n      add\n      swap1\n      dup2\n      mstore\n      0x20\n      add\n      0x00\n      keccak256\n        /* \"/ritual-chain-workshop/hardhat/contracts/CommitReveal.sol\":4833:4862  entries[bountyId][msg.sender] */\n      0x00\n        /* \"/ritual-chain-workshop/hardhat/contracts/CommitReveal.sol\":4851:4861  msg.sender */\n      caller\n        /* \"/ritual-chain-workshop/hardhat/contracts/CommitReveal.sol\":4833:4862  entries[bountyId][msg.sender] */\n      0xffffffffffffffffffffffffffffffffffffffff\n      and\n      0xffffffffffffffffffffffffffffffffffffffff\n      and\n      dup2\n      mstore\n      0x20\n      add\n      swap1\n      dup2\n      mstore\n      0x20\n      add\n      0x00\n      keccak256\n        /* \"/ritual-chain-workshop/hardhat/contracts/CommitReveal.sol\":4833:4873  entries[bountyId][msg.sender].commitment */\n      0x00\n      add\n        /* \"/ritual-chain-workshop/hardhat/contracts/CommitReveal.sol\":4833:4886  entries[bountyId][msg.sender].commitment = commitment */\n      dup2\n      swap1\n      sstore\n      pop\n        /* \"/ritual-chain-workshop/hardhat/contracts/CommitReveal.sol\":4921:4931  msg.sender */\n      caller\n        /* \"/ritual-chain-workshop/hardhat/contracts/CommitReveal.sol\":4901:4944  Committed(bountyId, msg.sender, commitment) */\n      0xffffffffffffffffffffffffffffffffffffffff\n      and\n        /* \"/ritual-chain-workshop/hardhat/contracts/CommitReveal.sol\":4911:4919  bountyId */\n      dup4\n        /* \"/ritual-chain-workshop/hardhat/contracts/CommitReveal.sol\":4901:4944  Committed(bountyId, msg.sender, commitment) */\n      0x26a454697a4923cb3646779d831b5e4696bd3fab14b67dd6dfe23d72354f57dd\n        /* \"/ritual-chain-workshop/hardhat/contracts/CommitReveal.sol\":4933:4943  commitment */\n      dup5\n        /* \"/ritual-chain-workshop/hardhat/contracts/CommitReveal.sol\":4901:4944  Committed(bountyId, msg.sender, commitment) */\n      mload(0x40)\n      tag_108\n      swap2\n      swap1\n      tag_36\n      jump\t// in\n    tag_108:\n      mload(0x40)\n      dup1\n      swap2\n      sub\n      swap1\n      log3\n        /* \"/ritual-chain-workshop/hardhat/contracts/CommitReveal.sol\":4501:4951  {... */\n      pop\n        /* \"/ritual-chain-workshop/hardhat/contracts/CommitReveal.sol\":4428:4951  function submitCommitment(uint256 bountyId, bytes32 commitment) external {... */\n      pop\n      pop\n      jump\t// out\n        /* \"/ritual-chain-workshop/hardhat/contracts/CommitReveal.sol\":3638:3999  function registerBounty(uint256 bountyId, uint256 deadline) external {... */\n    tag_63:\n        /* \"/ritual-chain-workshop/hardhat/contracts/CommitReveal.sol\":3721:3731  bountyMeta */\n      0x00\n        /* \"/ritual-chain-workshop/hardhat/contracts/CommitReveal.sol\":3721:3741  bountyMeta[bountyId] */\n      0x00\n        /* \"/ritual-chain-workshop/hardhat/contracts/CommitReveal.sol\":3732:3740  bountyId */\n      dup4\n        /* \"/ritual-chain-workshop/hardhat/contracts/CommitReveal.sol\":3721:3741  bountyMeta[bountyId] */\n      dup2\n      mstore\n      0x20\n      add\n      swap1\n      dup2\n      mstore\n      0x20\n      add\n      0x00\n      keccak256\n        /* \"/ritual-chain-workshop/hardhat/contracts/CommitReveal.sol\":3721:3752  bountyMeta[bountyId].registered */\n      0x01\n      add\n      0x00\n      swap1\n      sload\n      swap1\n      0x0100\n      exp\n      swap1\n      div\n      0xff\n      and\n        /* \"/ritual-chain-workshop/hardhat/contracts/CommitReveal.sol\":3717:3786  if (bountyMeta[bountyId].registered) revert BountyAlreadyRegistered() */\n      iszero\n      tag_110\n      jumpi\n        /* \"/ritual-chain-workshop/hardhat/contracts/CommitReveal.sol\":3761:3786  BountyAlreadyRegistered() */\n      mload(0x40)\n      0xa9bd404600000000000000000000000000000000000000000000000000000000\n      dup2\n      mstore\n      0x04\n      add\n      mload(0x40)\n      dup1\n      swap2\n      sub\n      swap1\n      revert\n        /* \"/ritual-chain-workshop/hardhat/contracts/CommitReveal.sol\":3717:3786  if (bountyMeta[bountyId].registered) revert BountyAlreadyRegistered() */\n    tag_110:\n        /* \"/ritual-chain-workshop/hardhat/contracts/CommitReveal.sol\":3812:3827  block.timestamp */\n      timestamp\n        /* \"/ritual-chain-workshop/hardhat/contracts/CommitReveal.sol\":3800:3808  deadline */\n      dup2\n        /* \"/ritual-chain-workshop/hardhat/contracts/CommitReveal.sol\":3800:3827  deadline <= block.timestamp */\n      gt\n        /* \"/ritual-chain-workshop/hardhat/contracts/CommitReveal.sol\":3796:3857  if (deadline <= block.timestamp)     revert InvalidDeadline() */\n      tag_111\n      jumpi\n        /* \"/ritual-chain-workshop/hardhat/contracts/CommitReveal.sol\":3840:3857  InvalidDeadline() */\n      mload(0x40)\n      0x769d11e400000000000000000000000000000000000000000000000000000000\n      dup2\n      mstore\n      0x04\n      add\n      mload(0x40)\n      dup1\n      swap2\n      sub\n      swap1\n      revert\n        /* \"/ritual-chain-workshop/hardhat/contracts/CommitReveal.sol\":3796:3857  if (deadline <= block.timestamp)     revert InvalidDeadline() */\n    tag_111:\n        /* \"/ritual-chain-workshop/hardhat/contracts/CommitReveal.sol\":3891:3941  BountyMeta({deadline: deadline, registered: true}) */\n      mload(0x40)\n      dup1\n      0x40\n      add\n      0x40\n      mstore\n      dup1\n        /* \"/ritual-chain-workshop/hardhat/contracts/CommitReveal.sol\":3913:3921  deadline */\n      dup3\n        /* \"/ritual-chain-workshop/hardhat/contracts/CommitReveal.sol\":3891:3941  BountyMeta({deadline: deadline, registered: true}) */\n      dup2\n      mstore\n      0x20\n      add\n        /* \"/ritual-chain-workshop/hardhat/contracts/CommitReveal.sol\":3935:3939  true */\n      0x01\n        /* \"/ritual-chain-workshop/hardhat/contracts/CommitReveal.sol\":3891:3941  BountyMeta({deadline: deadline, registered: true}) */\n      iszero\n      iszero\n      dup2\n      mstore\n      pop\n        /* \"/ritual-chain-workshop/hardhat/contracts/CommitReveal.sol\":3868:3878  bountyMeta */\n      0x00\n        /* \"/ritual-chain-workshop/hardhat/contracts/CommitReveal.sol\":3868:3888  bountyMeta[bountyId] */\n      0x00\n        /* \"/ritual-chain-workshop/hardhat/contracts/CommitReveal.sol\":3879:3887  bountyId */\n      dup5\n        /* \"/ritual-chain-workshop/hardhat/contracts/CommitReveal.sol\":3868:3888  bountyMeta[bountyId] */\n      dup2\n      mstore\n      0x20\n      add\n      swap1\n      dup2\n      mstore\n      0x20\n      add\n      0x00\n      keccak256\n        /* \"/ritual-chain-workshop/hardhat/contracts/CommitReveal.sol\":3868:3941  bountyMeta[bountyId] = BountyMeta({deadline: deadline, registered: true}) */\n      0x00\n      dup3\n      add\n      mload\n      dup2\n      0x00\n      add\n      sstore\n      0x20\n      dup3\n      add\n      mload\n      dup2\n      0x01\n      add\n      exp(0x0100, 0x00)\n      dup2\n      sload\n      dup2\n      0xff\n      mul\n      not\n      and\n      swap1\n      dup4\n      iszero\n      iszero\n      mul\n      or\n      swap1\n      sstore\n      pop\n      swap1\n      pop\n      pop\n        /* \"/ritual-chain-workshop/hardhat/contracts/CommitReveal.sol\":3973:3981  bountyId */\n      dup2\n        /* \"/ritual-chain-workshop/hardhat/contracts/CommitReveal.sol\":3956:3992  BountyRegistered(bountyId, deadline) */\n      0x75f6a44b2756cd8e77c70d23d4bcb8afb24746b7966d1a125bf43236e27b9d34\n        /* \"/ritual-chain-workshop/hardhat/contracts/CommitReveal.sol\":3983:3991  deadline */\n      dup3\n        /* \"/ritual-chain-workshop/hardhat/contracts/CommitReveal.sol\":3956:3992  BountyRegistered(bountyId, deadline) */\n      mload(0x40)\n      tag_112\n      swap2\n      swap1\n      tag_30\n      jump\t// in\n    tag_112:\n      mload(0x40)\n      dup1\n      swap2\n      sub\n      swap1\n      log2\n        /* \"/ritual-chain-workshop/hardhat/contracts/CommitReveal.sol\":3638:3999  function registerBounty(uint256 bountyId, uint256 deadline) external {... */\n      pop\n      pop\n      jump\t// out\n        /* \"/ritual-chain-workshop/hardhat/contracts/CommitReveal.sol\":1383:1432  uint256 public constant MAX_ANSWER_LENGTH = 2_000 */\n    tag_65:\n        /* \"/ritual-chain-workshop/hardhat/contracts/CommitReveal.sol\":1427:1432  2_000 */\n      0x07d0\n        /* \"/ritual-chain-workshop/hardhat/contracts/CommitReveal.sol\":1383:1432  uint256 public constant MAX_ANSWER_LENGTH = 2_000 */\n      dup2\n      jump\t// out\n        /* \"#utility.yul\":88:205   */\n    tag_114:\n        /* \"#utility.yul\":197:198   */\n      0x00\n        /* \"#utility.yul\":194:195   */\n      0x00\n        /* \"#utility.yul\":187:199   */\n      revert\n        /* \"#utility.yul\":211:328   */\n    tag_115:\n        /* \"#utility.yul\":320:321   */\n      0x00\n        /* \"#utility.yul\":317:318   */\n      0x00\n        /* \"#utility.yul\":310:322   */\n      revert\n        /* \"#utility.yul\":334:411   */\n    tag_116:\n        /* \"#utility.yul\":371:378   */\n      0x00\n        /* \"#utility.yul\":400:405   */\n      dup2\n        /* \"#utility.yul\":389:405   */\n      swap1\n      pop\n        /* \"#utility.yul\":334:411   */\n      swap2\n      swap1\n      pop\n      jump\t// out\n        /* \"#utility.yul\":417:539   */\n    tag_117:\n        /* \"#utility.yul\":490:514   */\n      tag_178\n        /* \"#utility.yul\":508:513   */\n      dup2\n        /* \"#utility.yul\":490:514   */\n      tag_116\n      jump\t// in\n    tag_178:\n        /* \"#utility.yul\":483:488   */\n      dup2\n        /* \"#utility.yul\":480:515   */\n      eq\n        /* \"#utility.yul\":470:533   */\n      tag_179\n      jumpi\n        /* \"#utility.yul\":529:530   */\n      0x00\n        /* \"#utility.yul\":526:527   */\n      0x00\n        /* \"#utility.yul\":519:531   */\n      revert\n        /* \"#utility.yul\":470:533   */\n    tag_179:\n        /* \"#utility.yul\":417:539   */\n      pop\n      jump\t// out\n        /* \"#utility.yul\":545:684   */\n    tag_118:\n        /* \"#utility.yul\":591:596   */\n      0x00\n        /* \"#utility.yul\":629:635   */\n      dup2\n        /* \"#utility.yul\":616:636   */\n      calldataload\n        /* \"#utility.yul\":607:636   */\n      swap1\n      pop\n        /* \"#utility.yul\":645:678   */\n      tag_181\n        /* \"#utility.yul\":672:677   */\n      dup2\n        /* \"#utility.yul\":645:678   */\n      tag_117\n      jump\t// in\n    tag_181:\n        /* \"#utility.yul\":545:684   */\n      swap3\n      swap2\n      pop\n      pop\n      jump\t// out\n        /* \"#utility.yul\":690:1019   */\n    tag_17:\n        /* \"#utility.yul\":749:755   */\n      0x00\n        /* \"#utility.yul\":798:800   */\n      0x20\n        /* \"#utility.yul\":786:795   */\n      dup3\n        /* \"#utility.yul\":777:784   */\n      dup5\n        /* \"#utility.yul\":773:796   */\n      sub\n        /* \"#utility.yul\":769:801   */\n      slt\n        /* \"#utility.yul\":766:885   */\n      iszero\n      tag_183\n      jumpi\n        /* \"#utility.yul\":804:883   */\n      tag_184\n      tag_114\n      jump\t// in\n    tag_184:\n        /* \"#utility.yul\":766:885   */\n    tag_183:\n        /* \"#utility.yul\":924:925   */\n      0x00\n        /* \"#utility.yul\":949:1002   */\n      tag_185\n        /* \"#utility.yul\":994:1001   */\n      dup5\n        /* \"#utility.yul\":985:991   */\n      dup3\n        /* \"#utility.yul\":974:983   */\n      dup6\n        /* \"#utility.yul\":970:992   */\n      add\n        /* \"#utility.yul\":949:1002   */\n      tag_118\n      jump\t// in\n    tag_185:\n        /* \"#utility.yul\":939:1002   */\n      swap2\n      pop\n        /* \"#utility.yul\":895:1012   */\n      pop\n        /* \"#utility.yul\":690:1019   */\n      swap3\n      swap2\n      pop\n      pop\n      jump\t// out\n        /* \"#utility.yul\":1025:1143   */\n    tag_119:\n        /* \"#utility.yul\":1112:1136   */\n      tag_187\n        /* \"#utility.yul\":1130:1135   */\n      dup2\n        /* \"#utility.yul\":1112:1136   */\n      tag_116\n      jump\t// in\n    tag_187:\n        /* \"#utility.yul\":1107:1110   */\n      dup3\n        /* \"#utility.yul\":1100:1137   */\n      mstore\n        /* \"#utility.yul\":1025:1143   */\n      pop\n      pop\n      jump\t// out\n        /* \"#utility.yul\":1149:1239   */\n    tag_120:\n        /* \"#utility.yul\":1183:1190   */\n      0x00\n        /* \"#utility.yul\":1226:1231   */\n      dup2\n        /* \"#utility.yul\":1219:1232   */\n      iszero\n        /* \"#utility.yul\":1212:1233   */\n      iszero\n        /* \"#utility.yul\":1201:1233   */\n      swap1\n      pop\n        /* \"#utility.yul\":1149:1239   */\n      swap2\n      swap1\n      pop\n      jump\t// out\n        /* \"#utility.yul\":1245:1354   */\n    tag_121:\n        /* \"#utility.yul\":1326:1347   */\n      tag_190\n        /* \"#utility.yul\":1341:1346   */\n      dup2\n        /* \"#utility.yul\":1326:1347   */\n      tag_120\n      jump\t// in\n    tag_190:\n        /* \"#utility.yul\":1321:1324   */\n      dup3\n        /* \"#utility.yul\":1314:1348   */\n      mstore\n        /* \"#utility.yul\":1245:1354   */\n      pop\n      pop\n      jump\t// out\n        /* \"#utility.yul\":1360:1680   */\n    tag_20:\n        /* \"#utility.yul\":1475:1479   */\n      0x00\n        /* \"#utility.yul\":1513:1515   */\n      0x40\n        /* \"#utility.yul\":1502:1511   */\n      dup3\n        /* \"#utility.yul\":1498:1516   */\n      add\n        /* \"#utility.yul\":1490:1516   */\n      swap1\n      pop\n        /* \"#utility.yul\":1526:1597   */\n      tag_192\n        /* \"#utility.yul\":1594:1595   */\n      0x00\n        /* \"#utility.yul\":1583:1592   */\n      dup4\n        /* \"#utility.yul\":1579:1596   */\n      add\n        /* \"#utility.yul\":1570:1576   */\n      dup6\n        /* \"#utility.yul\":1526:1597   */\n      tag_119\n      jump\t// in\n    tag_192:\n        /* \"#utility.yul\":1607:1673   */\n      tag_193\n        /* \"#utility.yul\":1669:1671   */\n      0x20\n        /* \"#utility.yul\":1658:1667   */\n      dup4\n        /* \"#utility.yul\":1654:1672   */\n      add\n        /* \"#utility.yul\":1645:1651   */\n      dup5\n        /* \"#utility.yul\":1607:1673   */\n      tag_121\n      jump\t// in\n    tag_193:\n        /* \"#utility.yul\":1360:1680   */\n      swap4\n      swap3\n      pop\n      pop\n      pop\n      jump\t// out\n        /* \"#utility.yul\":1686:1812   */\n    tag_122:\n        /* \"#utility.yul\":1723:1730   */\n      0x00\n        /* \"#utility.yul\":1763:1805   */\n      0xffffffffffffffffffffffffffffffffffffffff\n        /* \"#utility.yul\":1756:1761   */\n      dup3\n        /* \"#utility.yul\":1752:1806   */\n      and\n        /* \"#utility.yul\":1741:1806   */\n      swap1\n      pop\n        /* \"#utility.yul\":1686:1812   */\n      swap2\n      swap1\n      pop\n      jump\t// out\n        /* \"#utility.yul\":1818:1914   */\n    tag_123:\n        /* \"#utility.yul\":1855:1862   */\n      0x00\n        /* \"#utility.yul\":1884:1908   */\n      tag_196\n        /* \"#utility.yul\":1902:1907   */\n      dup3\n        /* \"#utility.yul\":1884:1908   */\n      tag_122\n      jump\t// in\n    tag_196:\n        /* \"#utility.yul\":1873:1908   */\n      swap1\n      pop\n        /* \"#utility.yul\":1818:1914   */\n      swap2\n      swap1\n      pop\n      jump\t// out\n        /* \"#utility.yul\":1920:2042   */\n    tag_124:\n        /* \"#utility.yul\":1993:2017   */\n      tag_198\n        /* \"#utility.yul\":2011:2016   */\n      dup2\n        /* \"#utility.yul\":1993:2017   */\n      tag_123\n      jump\t// in\n    tag_198:\n        /* \"#utility.yul\":1986:1991   */\n      dup2\n        /* \"#utility.yul\":1983:2018   */\n      eq\n        /* \"#utility.yul\":1973:2036   */\n      tag_199\n      jumpi\n        /* \"#utility.yul\":2032:2033   */\n      0x00\n        /* \"#utility.yul\":2029:2030   */\n      0x00\n        /* \"#utility.yul\":2022:2034   */\n      revert\n        /* \"#utility.yul\":1973:2036   */\n    tag_199:\n        /* \"#utility.yul\":1920:2042   */\n      pop\n      jump\t// out\n        /* \"#utility.yul\":2048:2187   */\n    tag_125:\n        /* \"#utility.yul\":2094:2099   */\n      0x00\n        /* \"#utility.yul\":2132:2138   */\n      dup2\n        /* \"#utility.yul\":2119:2139   */\n      calldataload\n        /* \"#utility.yul\":2110:2139   */\n      swap1\n      pop\n        /* \"#utility.yul\":2148:2181   */\n      tag_201\n        /* \"#utility.yul\":2175:2180   */\n      dup2\n        /* \"#utility.yul\":2148:2181   */\n      tag_124\n      jump\t// in\n    tag_201:\n        /* \"#utility.yul\":2048:2187   */\n      swap3\n      swap2\n      pop\n      pop\n      jump\t// out\n        /* \"#utility.yul\":2193:2667   */\n    tag_23:\n        /* \"#utility.yul\":2261:2267   */\n      0x00\n        /* \"#utility.yul\":2269:2275   */\n      0x00\n        /* \"#utility.yul\":2318:2320   */\n      0x40\n        /* \"#utility.yul\":2306:2315   */\n      dup4\n        /* \"#utility.yul\":2297:2304   */\n      dup6\n        /* \"#utility.yul\":2293:2316   */\n      sub\n        /* \"#utility.yul\":2289:2321   */\n      slt\n        /* \"#utility.yul\":2286:2405   */\n      iszero\n      tag_203\n      jumpi\n        /* \"#utility.yul\":2324:2403   */\n      tag_204\n      tag_114\n      jump\t// in\n    tag_204:\n        /* \"#utility.yul\":2286:2405   */\n    tag_203:\n        /* \"#utility.yul\":2444:2445   */\n      0x00\n        /* \"#utility.yul\":2469:2522   */\n      tag_205\n        /* \"#utility.yul\":2514:2521   */\n      dup6\n        /* \"#utility.yul\":2505:2511   */\n      dup3\n        /* \"#utility.yul\":2494:2503   */\n      dup7\n        /* \"#utility.yul\":2490:2512   */\n      add\n        /* \"#utility.yul\":2469:2522   */\n      tag_118\n      jump\t// in\n    tag_205:\n        /* \"#utility.yul\":2459:2522   */\n      swap3\n      pop\n        /* \"#utility.yul\":2415:2532   */\n      pop\n        /* \"#utility.yul\":2571:2573   */\n      0x20\n        /* \"#utility.yul\":2597:2650   */\n      tag_206\n        /* \"#utility.yul\":2642:2649   */\n      dup6\n        /* \"#utility.yul\":2633:2639   */\n      dup3\n        /* \"#utility.yul\":2622:2631   */\n      dup7\n        /* \"#utility.yul\":2618:2640   */\n      add\n        /* \"#utility.yul\":2597:2650   */\n      tag_125\n      jump\t// in\n    tag_206:\n        /* \"#utility.yul\":2587:2650   */\n      swap2\n      pop\n        /* \"#utility.yul\":2542:2660   */\n      pop\n        /* \"#utility.yul\":2193:2667   */\n      swap3\n      pop\n      swap3\n      swap1\n      pop\n      jump\t// out\n        /* \"#utility.yul\":2673:2883   */\n    tag_26:\n        /* \"#utility.yul\":2760:2764   */\n      0x00\n        /* \"#utility.yul\":2798:2800   */\n      0x20\n        /* \"#utility.yul\":2787:2796   */\n      dup3\n        /* \"#utility.yul\":2783:2801   */\n      add\n        /* \"#utility.yul\":2775:2801   */\n      swap1\n      pop\n        /* \"#utility.yul\":2811:2876   */\n      tag_208\n        /* \"#utility.yul\":2873:2874   */\n      0x00\n        /* \"#utility.yul\":2862:2871   */\n      dup4\n        /* \"#utility.yul\":2858:2875   */\n      add\n        /* \"#utility.yul\":2849:2855   */\n      dup5\n        /* \"#utility.yul\":2811:2876   */\n      tag_121\n      jump\t// in\n    tag_208:\n        /* \"#utility.yul\":2673:2883   */\n      swap3\n      swap2\n      pop\n      pop\n      jump\t// out\n        /* \"#utility.yul\":2889:3111   */\n    tag_30:\n        /* \"#utility.yul\":2982:2986   */\n      0x00\n        /* \"#utility.yul\":3020:3022   */\n      0x20\n        /* \"#utility.yul\":3009:3018   */\n      dup3\n        /* \"#utility.yul\":3005:3023   */\n      add\n        /* \"#utility.yul\":2997:3023   */\n      swap1\n      pop\n        /* \"#utility.yul\":3033:3104   */\n      tag_210\n        /* \"#utility.yul\":3101:3102   */\n      0x00\n        /* \"#utility.yul\":3090:3099   */\n      dup4\n        /* \"#utility.yul\":3086:3103   */\n      add\n        /* \"#utility.yul\":3077:3083   */\n      dup5\n        /* \"#utility.yul\":3033:3104   */\n      tag_119\n      jump\t// in\n    tag_210:\n        /* \"#utility.yul\":2889:3111   */\n      swap3\n      swap2\n      pop\n      pop\n      jump\t// out\n        /* \"#utility.yul\":3117:3234   */\n    tag_126:\n        /* \"#utility.yul\":3226:3227   */\n      0x00\n        /* \"#utility.yul\":3223:3224   */\n      0x00\n        /* \"#utility.yul\":3216:3228   */\n      revert\n        /* \"#utility.yul\":3240:3357   */\n    tag_127:\n        /* \"#utility.yul\":3349:3350   */\n      0x00\n        /* \"#utility.yul\":3346:3347   */\n      0x00\n        /* \"#utility.yul\":3339:3351   */\n      revert\n        /* \"#utility.yul\":3363:3480   */\n    tag_128:\n        /* \"#utility.yul\":3472:3473   */\n      0x00\n        /* \"#utility.yul\":3469:3470   */\n      0x00\n        /* \"#utility.yul\":3462:3474   */\n      revert\n        /* \"#utility.yul\":3500:4053   */\n    tag_129:\n        /* \"#utility.yul\":3558:3566   */\n      0x00\n        /* \"#utility.yul\":3568:3574   */\n      0x00\n        /* \"#utility.yul\":3618:3621   */\n      dup4\n        /* \"#utility.yul\":3611:3615   */\n      0x1f\n        /* \"#utility.yul\":3603:3609   */\n      dup5\n        /* \"#utility.yul\":3599:3616   */\n      add\n        /* \"#utility.yul\":3595:3622   */\n      slt\n        /* \"#utility.yul\":3585:3707   */\n      tag_215\n      jumpi\n        /* \"#utility.yul\":3626:3705   */\n      tag_216\n      tag_126\n      jump\t// in\n    tag_216:\n        /* \"#utility.yul\":3585:3707   */\n    tag_215:\n        /* \"#utility.yul\":3739:3745   */\n      dup3\n        /* \"#utility.yul\":3726:3746   */\n      calldataload\n        /* \"#utility.yul\":3716:3746   */\n      swap1\n      pop\n        /* \"#utility.yul\":3769:3787   */\n      0xffffffffffffffff\n        /* \"#utility.yul\":3761:3767   */\n      dup2\n        /* \"#utility.yul\":3758:3788   */\n      gt\n        /* \"#utility.yul\":3755:3872   */\n      iszero\n      tag_217\n      jumpi\n        /* \"#utility.yul\":3791:3870   */\n      tag_218\n      tag_127\n      jump\t// in\n    tag_218:\n        /* \"#utility.yul\":3755:3872   */\n    tag_217:\n        /* \"#utility.yul\":3905:3909   */\n      0x20\n        /* \"#utility.yul\":3897:3903   */\n      dup4\n        /* \"#utility.yul\":3893:3910   */\n      add\n        /* \"#utility.yul\":3881:3910   */\n      swap2\n      pop\n        /* \"#utility.yul\":3959:3962   */\n      dup4\n        /* \"#utility.yul\":3951:3955   */\n      0x01\n        /* \"#utility.yul\":3943:3949   */\n      dup3\n        /* \"#utility.yul\":3939:3956   */\n      mul\n        /* \"#utility.yul\":3929:3937   */\n      dup4\n        /* \"#utility.yul\":3925:3957   */\n      add\n        /* \"#utility.yul\":3922:3963   */\n      gt\n        /* \"#utility.yul\":3919:4047   */\n      iszero\n      tag_219\n      jumpi\n        /* \"#utility.yul\":3966:4045   */\n      tag_220\n      tag_128\n      jump\t// in\n    tag_220:\n        /* \"#utility.yul\":3919:4047   */\n    tag_219:\n        /* \"#utility.yul\":3500:4053   */\n      swap3\n      pop\n      swap3\n      swap1\n      pop\n      jump\t// out\n        /* \"#utility.yul\":4059:4136   */\n    tag_130:\n        /* \"#utility.yul\":4096:4103   */\n      0x00\n        /* \"#utility.yul\":4125:4130   */\n      dup2\n        /* \"#utility.yul\":4114:4130   */\n      swap1\n      pop\n        /* \"#utility.yul\":4059:4136   */\n      swap2\n      swap1\n      pop\n      jump\t// out\n        /* \"#utility.yul\":4142:4264   */\n    tag_131:\n        /* \"#utility.yul\":4215:4239   */\n      tag_223\n        /* \"#utility.yul\":4233:4238   */\n      dup2\n        /* \"#utility.yul\":4215:4239   */\n      tag_130\n      jump\t// in\n    tag_223:\n        /* \"#utility.yul\":4208:4213   */\n      dup2\n        /* \"#utility.yul\":4205:4240   */\n      eq\n        /* \"#utility.yul\":4195:4258   */\n      tag_224\n      jumpi\n        /* \"#utility.yul\":4254:4255   */\n      0x00\n        /* \"#utility.yul\":4251:4252   */\n      0x00\n        /* \"#utility.yul\":4244:4256   */\n      revert\n        /* \"#utility.yul\":4195:4258   */\n    tag_224:\n        /* \"#utility.yul\":4142:4264   */\n      pop\n      jump\t// out\n        /* \"#utility.yul\":4270:4409   */\n    tag_132:\n        /* \"#utility.yul\":4316:4321   */\n      0x00\n        /* \"#utility.yul\":4354:4360   */\n      dup2\n        /* \"#utility.yul\":4341:4361   */\n      calldataload\n        /* \"#utility.yul\":4332:4361   */\n      swap1\n      pop\n        /* \"#utility.yul\":4370:4403   */\n      tag_226\n        /* \"#utility.yul\":4397:4402   */\n      dup2\n        /* \"#utility.yul\":4370:4403   */\n      tag_131\n      jump\t// in\n    tag_226:\n        /* \"#utility.yul\":4270:4409   */\n      swap3\n      swap2\n      pop\n      pop\n      jump\t// out\n        /* \"#utility.yul\":4415:5380   */\n    tag_33:\n        /* \"#utility.yul\":4513:4519   */\n      0x00\n        /* \"#utility.yul\":4521:4527   */\n      0x00\n        /* \"#utility.yul\":4529:4535   */\n      0x00\n        /* \"#utility.yul\":4537:4543   */\n      0x00\n        /* \"#utility.yul\":4545:4551   */\n      0x00\n        /* \"#utility.yul\":4594:4597   */\n      0x80\n        /* \"#utility.yul\":4582:4591   */\n      dup7\n        /* \"#utility.yul\":4573:4580   */\n      dup9\n        /* \"#utility.yul\":4569:4592   */\n      sub\n        /* \"#utility.yul\":4565:4598   */\n      slt\n        /* \"#utility.yul\":4562:4682   */\n      iszero\n      tag_228\n      jumpi\n        /* \"#utility.yul\":4601:4680   */\n      tag_229\n      tag_114\n      jump\t// in\n    tag_229:\n        /* \"#utility.yul\":4562:4682   */\n    tag_228:\n        /* \"#utility.yul\":4749:4750   */\n      0x00\n        /* \"#utility.yul\":4738:4747   */\n      dup7\n        /* \"#utility.yul\":4734:4751   */\n      add\n        /* \"#utility.yul\":4721:4752   */\n      calldataload\n        /* \"#utility.yul\":4779:4797   */\n      0xffffffffffffffff\n        /* \"#utility.yul\":4771:4777   */\n      dup2\n        /* \"#utility.yul\":4768:4798   */\n      gt\n        /* \"#utility.yul\":4765:4882   */\n      iszero\n      tag_230\n      jumpi\n        /* \"#utility.yul\":4801:4880   */\n      tag_231\n      tag_115\n      jump\t// in\n    tag_231:\n        /* \"#utility.yul\":4765:4882   */\n    tag_230:\n        /* \"#utility.yul\":4914:4979   */\n      tag_232\n        /* \"#utility.yul\":4971:4978   */\n      dup9\n        /* \"#utility.yul\":4962:4968   */\n      dup3\n        /* \"#utility.yul\":4951:4960   */\n      dup10\n        /* \"#utility.yul\":4947:4969   */\n      add\n        /* \"#utility.yul\":4914:4979   */\n      tag_129\n      jump\t// in\n    tag_232:\n        /* \"#utility.yul\":4896:4979   */\n      swap6\n      pop\n      swap6\n      pop\n        /* \"#utility.yul\":4692:4989   */\n      pop\n        /* \"#utility.yul\":5028:5030   */\n      0x20\n        /* \"#utility.yul\":5054:5107   */\n      tag_233\n        /* \"#utility.yul\":5099:5106   */\n      dup9\n        /* \"#utility.yul\":5090:5096   */\n      dup3\n        /* \"#utility.yul\":5079:5088   */\n      dup10\n        /* \"#utility.yul\":5075:5097   */\n      add\n        /* \"#utility.yul\":5054:5107   */\n      tag_132\n      jump\t// in\n    tag_233:\n        /* \"#utility.yul\":5044:5107   */\n      swap4\n      pop\n        /* \"#utility.yul\":4999:5117   */\n      pop\n        /* \"#utility.yul\":5156:5158   */\n      0x40\n        /* \"#utility.yul\":5182:5235   */\n      tag_234\n        /* \"#utility.yul\":5227:5234   */\n      dup9\n        /* \"#utility.yul\":5218:5224   */\n      dup3\n        /* \"#utility.yul\":5207:5216   */\n      dup10\n        /* \"#utility.yul\":5203:5225   */\n      add\n        /* \"#utility.yul\":5182:5235   */\n      tag_125\n      jump\t// in\n    tag_234:\n        /* \"#utility.yul\":5172:5235   */\n      swap3\n      pop\n        /* \"#utility.yul\":5127:5245   */\n      pop\n        /* \"#utility.yul\":5284:5286   */\n      0x60\n        /* \"#utility.yul\":5310:5363   */\n      tag_235\n        /* \"#utility.yul\":5355:5362   */\n      dup9\n        /* \"#utility.yul\":5346:5352   */\n      dup3\n        /* \"#utility.yul\":5335:5344   */\n      dup10\n        /* \"#utility.yul\":5331:5353   */\n      add\n        /* \"#utility.yul\":5310:5363   */\n      tag_118\n      jump\t// in\n    tag_235:\n        /* \"#utility.yul\":5300:5363   */\n      swap2\n      pop\n        /* \"#utility.yul\":5255:5373   */\n      pop\n        /* \"#utility.yul\":4415:5380   */\n      swap3\n      swap6\n      pop\n      swap3\n      swap6\n      swap1\n      swap4\n      pop\n      jump\t// out\n        /* \"#utility.yul\":5386:5504   */\n    tag_133:\n        /* \"#utility.yul\":5473:5497   */\n      tag_237\n        /* \"#utility.yul\":5491:5496   */\n      dup2\n        /* \"#utility.yul\":5473:5497   */\n      tag_130\n      jump\t// in\n    tag_237:\n        /* \"#utility.yul\":5468:5471   */\n      dup3\n        /* \"#utility.yul\":5461:5498   */\n      mstore\n        /* \"#utility.yul\":5386:5504   */\n      pop\n      pop\n      jump\t// out\n        /* \"#utility.yul\":5510:5732   */\n    tag_36:\n        /* \"#utility.yul\":5603:5607   */\n      0x00\n        /* \"#utility.yul\":5641:5643   */\n      0x20\n        /* \"#utility.yul\":5630:5639   */\n      dup3\n        /* \"#utility.yul\":5626:5644   */\n      add\n        /* \"#utility.yul\":5618:5644   */\n      swap1\n      pop\n        /* \"#utility.yul\":5654:5725   */\n      tag_239\n        /* \"#utility.yul\":5722:5723   */\n      0x00\n        /* \"#utility.yul\":5711:5720   */\n      dup4\n        /* \"#utility.yul\":5707:5724   */\n      add\n        /* \"#utility.yul\":5698:5704   */\n      dup5\n        /* \"#utility.yul\":5654:5725   */\n      tag_133\n      jump\t// in\n    tag_239:\n        /* \"#utility.yul\":5510:5732   */\n      swap3\n      swap2\n      pop\n      pop\n      jump\t// out\n        /* \"#utility.yul\":5738:5837   */\n    tag_134:\n        /* \"#utility.yul\":5790:5796   */\n      0x00\n        /* \"#utility.yul\":5824:5829   */\n      dup2\n        /* \"#utility.yul\":5818:5830   */\n      mload\n        /* \"#utility.yul\":5808:5830   */\n      swap1\n      pop\n        /* \"#utility.yul\":5738:5837   */\n      swap2\n      swap1\n      pop\n      jump\t// out\n        /* \"#utility.yul\":5843:6012   */\n    tag_135:\n        /* \"#utility.yul\":5927:5938   */\n      0x00\n        /* \"#utility.yul\":5961:5967   */\n      dup3\n        /* \"#utility.yul\":5956:5959   */\n      dup3\n        /* \"#utility.yul\":5949:5968   */\n      mstore\n        /* \"#utility.yul\":6001:6005   */\n      0x20\n        /* \"#utility.yul\":5996:5999   */\n      dup3\n        /* \"#utility.yul\":5992:6006   */\n      add\n        /* \"#utility.yul\":5977:6006   */\n      swap1\n      pop\n        /* \"#utility.yul\":5843:6012   */\n      swap3\n      swap2\n      pop\n      pop\n      jump\t// out\n        /* \"#utility.yul\":6018:6157   */\n    tag_136:\n        /* \"#utility.yul\":6107:6113   */\n      dup3\n        /* \"#utility.yul\":6102:6105   */\n      dup2\n        /* \"#utility.yul\":6097:6100   */\n      dup4\n        /* \"#utility.yul\":6091:6114   */\n      mcopy\n        /* \"#utility.yul\":6148:6149   */\n      0x00\n        /* \"#utility.yul\":6139:6145   */\n      dup4\n        /* \"#utility.yul\":6134:6137   */\n      dup4\n        /* \"#utility.yul\":6130:6146   */\n      add\n        /* \"#utility.yul\":6123:6150   */\n      mstore\n        /* \"#utility.yul\":6018:6157   */\n      pop\n      pop\n      pop\n      jump\t// out\n        /* \"#utility.yul\":6163:6265   */\n    tag_137:\n        /* \"#utility.yul\":6204:6210   */\n      0x00\n        /* \"#utility.yul\":6255:6257   */\n      0x1f\n        /* \"#utility.yul\":6251:6258   */\n      not\n        /* \"#utility.yul\":6246:6248   */\n      0x1f\n        /* \"#utility.yul\":6239:6244   */\n      dup4\n        /* \"#utility.yul\":6235:6249   */\n      add\n        /* \"#utility.yul\":6231:6259   */\n      and\n        /* \"#utility.yul\":6221:6259   */\n      swap1\n      pop\n        /* \"#utility.yul\":6163:6265   */\n      swap2\n      swap1\n      pop\n      jump\t// out\n        /* \"#utility.yul\":6271:6648   */\n    tag_138:\n        /* \"#utility.yul\":6359:6362   */\n      0x00\n        /* \"#utility.yul\":6387:6426   */\n      tag_245\n        /* \"#utility.yul\":6420:6425   */\n      dup3\n        /* \"#utility.yul\":6387:6426   */\n      tag_134\n      jump\t// in\n    tag_245:\n        /* \"#utility.yul\":6442:6513   */\n      tag_246\n        /* \"#utility.yul\":6506:6512   */\n      dup2\n        /* \"#utility.yul\":6501:6504   */\n      dup6\n        /* \"#utility.yul\":6442:6513   */\n      tag_135\n      jump\t// in\n    tag_246:\n        /* \"#utility.yul\":6435:6513   */\n      swap4\n      pop\n        /* \"#utility.yul\":6522:6587   */\n      tag_247\n        /* \"#utility.yul\":6580:6586   */\n      dup2\n        /* \"#utility.yul\":6575:6578   */\n      dup6\n        /* \"#utility.yul\":6568:6572   */\n      0x20\n        /* \"#utility.yul\":6561:6566   */\n      dup7\n        /* \"#utility.yul\":6557:6573   */\n      add\n        /* \"#utility.yul\":6522:6587   */\n      tag_136\n      jump\t// in\n    tag_247:\n        /* \"#utility.yul\":6612:6641   */\n      tag_248\n        /* \"#utility.yul\":6634:6640   */\n      dup2\n        /* \"#utility.yul\":6612:6641   */\n      tag_137\n      jump\t// in\n    tag_248:\n        /* \"#utility.yul\":6607:6610   */\n      dup5\n        /* \"#utility.yul\":6603:6642   */\n      add\n        /* \"#utility.yul\":6596:6642   */\n      swap2\n      pop\n        /* \"#utility.yul\":6363:6648   */\n      pop\n        /* \"#utility.yul\":6271:6648   */\n      swap3\n      swap2\n      pop\n      pop\n      jump\t// out\n        /* \"#utility.yul\":6654:7286   */\n    tag_41:\n        /* \"#utility.yul\":6845:6849   */\n      0x00\n        /* \"#utility.yul\":6883:6886   */\n      0x80\n        /* \"#utility.yul\":6872:6881   */\n      dup3\n        /* \"#utility.yul\":6868:6887   */\n      add\n        /* \"#utility.yul\":6860:6887   */\n      swap1\n      pop\n        /* \"#utility.yul\":6897:6968   */\n      tag_250\n        /* \"#utility.yul\":6965:6966   */\n      0x00\n        /* \"#utility.yul\":6954:6963   */\n      dup4\n        /* \"#utility.yul\":6950:6967   */\n      add\n        /* \"#utility.yul\":6941:6947   */\n      dup8\n        /* \"#utility.yul\":6897:6968   */\n      tag_133\n      jump\t// in\n    tag_250:\n        /* \"#utility.yul\":7015:7024   */\n      dup2\n        /* \"#utility.yul\":7009:7013   */\n      dup2\n        /* \"#utility.yul\":7005:7025   */\n      sub\n        /* \"#utility.yul\":7000:7002   */\n      0x20\n        /* \"#utility.yul\":6989:6998   */\n      dup4\n        /* \"#utility.yul\":6985:7003   */\n      add\n        /* \"#utility.yul\":6978:7026   */\n      mstore\n        /* \"#utility.yul\":7043:7121   */\n      tag_251\n        /* \"#utility.yul\":7116:7120   */\n      dup2\n        /* \"#utility.yul\":7107:7113   */\n      dup7\n        /* \"#utility.yul\":7043:7121   */\n      tag_138\n      jump\t// in\n    tag_251:\n        /* \"#utility.yul\":7035:7121   */\n      swap1\n      pop\n        /* \"#utility.yul\":7131:7203   */\n      tag_252\n        /* \"#utility.yul\":7199:7201   */\n      0x40\n        /* \"#utility.yul\":7188:7197   */\n      dup4\n        /* \"#utility.yul\":7184:7202   */\n      add\n        /* \"#utility.yul\":7175:7181   */\n      dup6\n        /* \"#utility.yul\":7131:7203   */\n      tag_133\n      jump\t// in\n    tag_252:\n        /* \"#utility.yul\":7213:7279   */\n      tag_253\n        /* \"#utility.yul\":7275:7277   */\n      0x60\n        /* \"#utility.yul\":7264:7273   */\n      dup4\n        /* \"#utility.yul\":7260:7278   */\n      add\n        /* \"#utility.yul\":7251:7257   */\n      dup5\n        /* \"#utility.yul\":7213:7279   */\n      tag_121\n      jump\t// in\n    tag_253:\n        /* \"#utility.yul\":6654:7286   */\n      swap6\n      swap5\n      pop\n      pop\n      pop\n      pop\n      pop\n      jump\t// out\n        /* \"#utility.yul\":7292:7378   */\n    tag_139:\n        /* \"#utility.yul\":7327:7334   */\n      0x00\n        /* \"#utility.yul\":7367:7371   */\n      0xff\n        /* \"#utility.yul\":7360:7365   */\n      dup3\n        /* \"#utility.yul\":7356:7372   */\n      and\n        /* \"#utility.yul\":7345:7372   */\n      swap1\n      pop\n        /* \"#utility.yul\":7292:7378   */\n      swap2\n      swap1\n      pop\n      jump\t// out\n        /* \"#utility.yul\":7384:7496   */\n    tag_140:\n        /* \"#utility.yul\":7467:7489   */\n      tag_256\n        /* \"#utility.yul\":7483:7488   */\n      dup2\n        /* \"#utility.yul\":7467:7489   */\n      tag_139\n      jump\t// in\n    tag_256:\n        /* \"#utility.yul\":7462:7465   */\n      dup3\n        /* \"#utility.yul\":7455:7490   */\n      mstore\n        /* \"#utility.yul\":7384:7496   */\n      pop\n      pop\n      jump\t// out\n        /* \"#utility.yul\":7502:7716   */\n    tag_46:\n        /* \"#utility.yul\":7591:7595   */\n      0x00\n        /* \"#utility.yul\":7629:7631   */\n      0x20\n        /* \"#utility.yul\":7618:7627   */\n      dup3\n        /* \"#utility.yul\":7614:7632   */\n      add\n        /* \"#utility.yul\":7606:7632   */\n      swap1\n      pop\n        /* \"#utility.yul\":7642:7709   */\n      tag_258\n        /* \"#utility.yul\":7706:7707   */\n      0x00\n        /* \"#utility.yul\":7695:7704   */\n      dup4\n        /* \"#utility.yul\":7691:7708   */\n      add\n        /* \"#utility.yul\":7682:7688   */\n      dup5\n        /* \"#utility.yul\":7642:7709   */\n      tag_140\n      jump\t// in\n    tag_258:\n        /* \"#utility.yul\":7502:7716   */\n      swap3\n      swap2\n      pop\n      pop\n      jump\t// out\n        /* \"#utility.yul\":7722:8541   */\n    tag_49:\n        /* \"#utility.yul\":7811:7817   */\n      0x00\n        /* \"#utility.yul\":7819:7825   */\n      0x00\n        /* \"#utility.yul\":7827:7833   */\n      0x00\n        /* \"#utility.yul\":7835:7841   */\n      0x00\n        /* \"#utility.yul\":7884:7886   */\n      0x60\n        /* \"#utility.yul\":7872:7881   */\n      dup6\n        /* \"#utility.yul\":7863:7870   */\n      dup8\n        /* \"#utility.yul\":7859:7882   */\n      sub\n        /* \"#utility.yul\":7855:7887   */\n      slt\n        /* \"#utility.yul\":7852:7971   */\n      iszero\n      tag_260\n      jumpi\n        /* \"#utility.yul\":7890:7969   */\n      tag_261\n      tag_114\n      jump\t// in\n    tag_261:\n        /* \"#utility.yul\":7852:7971   */\n    tag_260:\n        /* \"#utility.yul\":8010:8011   */\n      0x00\n        /* \"#utility.yul\":8035:8088   */\n      tag_262\n        /* \"#utility.yul\":8080:8087   */\n      dup8\n        /* \"#utility.yul\":8071:8077   */\n      dup3\n        /* \"#utility.yul\":8060:8069   */\n      dup9\n        /* \"#utility.yul\":8056:8078   */\n      add\n        /* \"#utility.yul\":8035:8088   */\n      tag_118\n      jump\t// in\n    tag_262:\n        /* \"#utility.yul\":8025:8088   */\n      swap5\n      pop\n        /* \"#utility.yul\":7981:8098   */\n      pop\n        /* \"#utility.yul\":8165:8167   */\n      0x20\n        /* \"#utility.yul\":8154:8163   */\n      dup6\n        /* \"#utility.yul\":8150:8168   */\n      add\n        /* \"#utility.yul\":8137:8169   */\n      calldataload\n        /* \"#utility.yul\":8196:8214   */\n      0xffffffffffffffff\n        /* \"#utility.yul\":8188:8194   */\n      dup2\n        /* \"#utility.yul\":8185:8215   */\n      gt\n        /* \"#utility.yul\":8182:8299   */\n      iszero\n      tag_263\n      jumpi\n        /* \"#utility.yul\":8218:8297   */\n      tag_264\n      tag_115\n      jump\t// in\n    tag_264:\n        /* \"#utility.yul\":8182:8299   */\n    tag_263:\n        /* \"#utility.yul\":8331:8396   */\n      tag_265\n        /* \"#utility.yul\":8388:8395   */\n      dup8\n        /* \"#utility.yul\":8379:8385   */\n      dup3\n        /* \"#utility.yul\":8368:8377   */\n      dup9\n        /* \"#utility.yul\":8364:8386   */\n      add\n        /* \"#utility.yul\":8331:8396   */\n      tag_129\n      jump\t// in\n    tag_265:\n        /* \"#utility.yul\":8313:8396   */\n      swap4\n      pop\n      swap4\n      pop\n        /* \"#utility.yul\":8108:8406   */\n      pop\n        /* \"#utility.yul\":8445:8447   */\n      0x40\n        /* \"#utility.yul\":8471:8524   */\n      tag_266\n        /* \"#utility.yul\":8516:8523   */\n      dup8\n        /* \"#utility.yul\":8507:8513   */\n      dup3\n        /* \"#utility.yul\":8496:8505   */\n      dup9\n        /* \"#utility.yul\":8492:8514   */\n      add\n        /* \"#utility.yul\":8471:8524   */\n      tag_132\n      jump\t// in\n    tag_266:\n        /* \"#utility.yul\":8461:8524   */\n      swap2\n      pop\n        /* \"#utility.yul\":8416:8534   */\n      pop\n        /* \"#utility.yul\":7722:8541   */\n      swap3\n      swap6\n      swap2\n      swap5\n      pop\n      swap3\n      pop\n      jump\t// out\n        /* \"#utility.yul\":8547:8860   */\n    tag_55:\n        /* \"#utility.yul\":8660:8664   */\n      0x00\n        /* \"#utility.yul\":8698:8700   */\n      0x20\n        /* \"#utility.yul\":8687:8696   */\n      dup3\n        /* \"#utility.yul\":8683:8701   */\n      add\n        /* \"#utility.yul\":8675:8701   */\n      swap1\n      pop\n        /* \"#utility.yul\":8747:8756   */\n      dup2\n        /* \"#utility.yul\":8741:8745   */\n      dup2\n        /* \"#utility.yul\":8737:8757   */\n      sub\n        /* \"#utility.yul\":8733:8734   */\n      0x00\n        /* \"#utility.yul\":8722:8731   */\n      dup4\n        /* \"#utility.yul\":8718:8735   */\n      add\n        /* \"#utility.yul\":8711:8758   */\n      mstore\n        /* \"#utility.yul\":8775:8853   */\n      tag_268\n        /* \"#utility.yul\":8848:8852   */\n      dup2\n        /* \"#utility.yul\":8839:8845   */\n      dup5\n        /* \"#utility.yul\":8775:8853   */\n      tag_138\n      jump\t// in\n    tag_268:\n        /* \"#utility.yul\":8767:8853   */\n      swap1\n      pop\n        /* \"#utility.yul\":8547:8860   */\n      swap3\n      swap2\n      pop\n      pop\n      jump\t// out\n        /* \"#utility.yul\":8866:9340   */\n    tag_58:\n        /* \"#utility.yul\":8934:8940   */\n      0x00\n        /* \"#utility.yul\":8942:8948   */\n      0x00\n        /* \"#utility.yul\":8991:8993   */\n      0x40\n        /* \"#utility.yul\":8979:8988   */\n      dup4\n        /* \"#utility.yul\":8970:8977   */\n      dup6\n        /* \"#utility.yul\":8966:8989   */\n      sub\n        /* \"#utility.yul\":8962:8994   */\n      slt\n        /* \"#utility.yul\":8959:9078   */\n      iszero\n      tag_270\n      jumpi\n        /* \"#utility.yul\":8997:9076   */\n      tag_271\n      tag_114\n      jump\t// in\n    tag_271:\n        /* \"#utility.yul\":8959:9078   */\n    tag_270:\n        /* \"#utility.yul\":9117:9118   */\n      0x00\n        /* \"#utility.yul\":9142:9195   */\n      tag_272\n        /* \"#utility.yul\":9187:9194   */\n      dup6\n        /* \"#utility.yul\":9178:9184   */\n      dup3\n        /* \"#utility.yul\":9167:9176   */\n      dup7\n        /* \"#utility.yul\":9163:9185   */\n      add\n        /* \"#utility.yul\":9142:9195   */\n      tag_118\n      jump\t// in\n    tag_272:\n        /* \"#utility.yul\":9132:9195   */\n      swap3\n      pop\n        /* \"#utility.yul\":9088:9205   */\n      pop\n        /* \"#utility.yul\":9244:9246   */\n      0x20\n        /* \"#utility.yul\":9270:9323   */\n      tag_273\n        /* \"#utility.yul\":9315:9322   */\n      dup6\n        /* \"#utility.yul\":9306:9312   */\n      dup3\n        /* \"#utility.yul\":9295:9304   */\n      dup7\n        /* \"#utility.yul\":9291:9313   */\n      add\n        /* \"#utility.yul\":9270:9323   */\n      tag_132\n      jump\t// in\n    tag_273:\n        /* \"#utility.yul\":9260:9323   */\n      swap2\n      pop\n        /* \"#utility.yul\":9215:9333   */\n      pop\n        /* \"#utility.yul\":8866:9340   */\n      swap3\n      pop\n      swap3\n      swap1\n      pop\n      jump\t// out\n        /* \"#utility.yul\":9346:9820   */\n    tag_62:\n        /* \"#utility.yul\":9414:9420   */\n      0x00\n        /* \"#utility.yul\":9422:9428   */\n      0x00\n        /* \"#utility.yul\":9471:9473   */\n      0x40\n        /* \"#utility.yul\":9459:9468   */\n      dup4\n        /* \"#utility.yul\":9450:9457   */\n      dup6\n        /* \"#utility.yul\":9446:9469   */\n      sub\n        /* \"#utility.yul\":9442:9474   */\n      slt\n        /* \"#utility.yul\":9439:9558   */\n      iszero\n      tag_275\n      jumpi\n        /* \"#utility.yul\":9477:9556   */\n      tag_276\n      tag_114\n      jump\t// in\n    tag_276:\n        /* \"#utility.yul\":9439:9558   */\n    tag_275:\n        /* \"#utility.yul\":9597:9598   */\n      0x00\n        /* \"#utility.yul\":9622:9675   */\n      tag_277\n        /* \"#utility.yul\":9667:9674   */\n      dup6\n        /* \"#utility.yul\":9658:9664   */\n      dup3\n        /* \"#utility.yul\":9647:9656   */\n      dup7\n        /* \"#utility.yul\":9643:9665   */\n      add\n        /* \"#utility.yul\":9622:9675   */\n      tag_118\n      jump\t// in\n    tag_277:\n        /* \"#utility.yul\":9612:9675   */\n      swap3\n      pop\n        /* \"#utility.yul\":9568:9685   */\n      pop\n        /* \"#utility.yul\":9724:9726   */\n      0x20\n        /* \"#utility.yul\":9750:9803   */\n      tag_278\n        /* \"#utility.yul\":9795:9802   */\n      dup6\n        /* \"#utility.yul\":9786:9792   */\n      dup3\n        /* \"#utility.yul\":9775:9784   */\n      dup7\n        /* \"#utility.yul\":9771:9793   */\n      add\n        /* \"#utility.yul\":9750:9803   */\n      tag_118\n      jump\t// in\n    tag_278:\n        /* \"#utility.yul\":9740:9803   */\n      swap2\n      pop\n        /* \"#utility.yul\":9695:9813   */\n      pop\n        /* \"#utility.yul\":9346:9820   */\n      swap3\n      pop\n      swap3\n      swap1\n      pop\n      jump\t// out\n        /* \"#utility.yul\":9826:9974   */\n    tag_141:\n        /* \"#utility.yul\":9928:9939   */\n      0x00\n        /* \"#utility.yul\":9965:9968   */\n      dup2\n        /* \"#utility.yul\":9950:9968   */\n      swap1\n      pop\n        /* \"#utility.yul\":9826:9974   */\n      swap3\n      swap2\n      pop\n      pop\n      jump\t// out\n        /* \"#utility.yul\":9980:10128   */\n    tag_142:\n        /* \"#utility.yul\":10078:10084   */\n      dup3\n        /* \"#utility.yul\":10073:10076   */\n      dup2\n        /* \"#utility.yul\":10068:10071   */\n      dup4\n        /* \"#utility.yul\":10055:10085   */\n      calldatacopy\n        /* \"#utility.yul\":10119:10120   */\n      0x00\n        /* \"#utility.yul\":10110:10116   */\n      dup4\n        /* \"#utility.yul\":10105:10108   */\n      dup4\n        /* \"#utility.yul\":10101:10117   */\n      add\n        /* \"#utility.yul\":10094:10121   */\n      mstore\n        /* \"#utility.yul\":9980:10128   */\n      pop\n      pop\n      pop\n      jump\t// out\n        /* \"#utility.yul\":10158:10488   */\n    tag_143:\n        /* \"#utility.yul\":10274:10277   */\n      0x00\n        /* \"#utility.yul\":10295:10384   */\n      tag_282\n        /* \"#utility.yul\":10377:10383   */\n      dup4\n        /* \"#utility.yul\":10372:10375   */\n      dup6\n        /* \"#utility.yul\":10295:10384   */\n      tag_141\n      jump\t// in\n    tag_282:\n        /* \"#utility.yul\":10288:10384   */\n      swap4\n      pop\n        /* \"#utility.yul\":10394:10450   */\n      tag_283\n        /* \"#utility.yul\":10443:10449   */\n      dup4\n        /* \"#utility.yul\":10438:10441   */\n      dup6\n        /* \"#utility.yul\":10431:10436   */\n      dup5\n        /* \"#utility.yul\":10394:10450   */\n      tag_142\n      jump\t// in\n    tag_283:\n        /* \"#utility.yul\":10475:10481   */\n      dup3\n        /* \"#utility.yul\":10470:10473   */\n      dup5\n        /* \"#utility.yul\":10466:10482   */\n      add\n        /* \"#utility.yul\":10459:10482   */\n      swap1\n      pop\n        /* \"#utility.yul\":10158:10488   */\n      swap4\n      swap3\n      pop\n      pop\n      pop\n      jump\t// out\n        /* \"#utility.yul\":10494:10573   */\n    tag_144:\n        /* \"#utility.yul\":10533:10540   */\n      0x00\n        /* \"#utility.yul\":10562:10567   */\n      dup2\n        /* \"#utility.yul\":10551:10567   */\n      swap1\n      pop\n        /* \"#utility.yul\":10494:10573   */\n      swap2\n      swap1\n      pop\n      jump\t// out\n        /* \"#utility.yul\":10579:10736   */\n    tag_145:\n        /* \"#utility.yul\":10684:10729   */\n      tag_286\n        /* \"#utility.yul\":10704:10728   */\n      tag_287\n        /* \"#utility.yul\":10722:10727   */\n      dup3\n        /* \"#utility.yul\":10704:10728   */\n      tag_130\n      jump\t// in\n    tag_287:\n        /* \"#utility.yul\":10684:10729   */\n      tag_144\n      jump\t// in\n    tag_286:\n        /* \"#utility.yul\":10679:10682   */\n      dup3\n        /* \"#utility.yul\":10672:10730   */\n      mstore\n        /* \"#utility.yul\":10579:10736   */\n      pop\n      pop\n      jump\t// out\n        /* \"#utility.yul\":10742:10836   */\n    tag_146:\n        /* \"#utility.yul\":10775:10783   */\n      0x00\n        /* \"#utility.yul\":10823:10828   */\n      dup2\n        /* \"#utility.yul\":10819:10821   */\n      0x60\n        /* \"#utility.yul\":10815:10829   */\n      shl\n        /* \"#utility.yul\":10794:10829   */\n      swap1\n      pop\n        /* \"#utility.yul\":10742:10836   */\n      swap2\n      swap1\n      pop\n      jump\t// out\n        /* \"#utility.yul\":10842:10936   */\n    tag_147:\n        /* \"#utility.yul\":10881:10888   */\n      0x00\n        /* \"#utility.yul\":10910:10930   */\n      tag_290\n        /* \"#utility.yul\":10924:10929   */\n      dup3\n        /* \"#utility.yul\":10910:10930   */\n      tag_146\n      jump\t// in\n    tag_290:\n        /* \"#utility.yul\":10899:10930   */\n      swap1\n      pop\n        /* \"#utility.yul\":10842:10936   */\n      swap2\n      swap1\n      pop\n      jump\t// out\n        /* \"#utility.yul\":10942:11042   */\n    tag_148:\n        /* \"#utility.yul\":10981:10988   */\n      0x00\n        /* \"#utility.yul\":11010:11036   */\n      tag_292\n        /* \"#utility.yul\":11030:11035   */\n      dup3\n        /* \"#utility.yul\":11010:11036   */\n      tag_147\n      jump\t// in\n    tag_292:\n        /* \"#utility.yul\":10999:11036   */\n      swap1\n      pop\n        /* \"#utility.yul\":10942:11042   */\n      swap2\n      swap1\n      pop\n      jump\t// out\n        /* \"#utility.yul\":11048:11205   */\n    tag_149:\n        /* \"#utility.yul\":11153:11198   */\n      tag_294\n        /* \"#utility.yul\":11173:11197   */\n      tag_295\n        /* \"#utility.yul\":11191:11196   */\n      dup3\n        /* \"#utility.yul\":11173:11197   */\n      tag_123\n      jump\t// in\n    tag_295:\n        /* \"#utility.yul\":11153:11198   */\n      tag_148\n      jump\t// in\n    tag_294:\n        /* \"#utility.yul\":11148:11151   */\n      dup3\n        /* \"#utility.yul\":11141:11199   */\n      mstore\n        /* \"#utility.yul\":11048:11205   */\n      pop\n      pop\n      jump\t// out\n        /* \"#utility.yul\":11211:11290   */\n    tag_150:\n        /* \"#utility.yul\":11250:11257   */\n      0x00\n        /* \"#utility.yul\":11279:11284   */\n      dup2\n        /* \"#utility.yul\":11268:11284   */\n      swap1\n      pop\n        /* \"#utility.yul\":11211:11290   */\n      swap2\n      swap1\n      pop\n      jump\t// out\n        /* \"#utility.yul\":11296:11453   */\n    tag_151:\n        /* \"#utility.yul\":11401:11446   */\n      tag_298\n        /* \"#utility.yul\":11421:11445   */\n      tag_299\n        /* \"#utility.yul\":11439:11444   */\n      dup3\n        /* \"#utility.yul\":11421:11445   */\n      tag_116\n      jump\t// in\n    tag_299:\n        /* \"#utility.yul\":11401:11446   */\n      tag_150\n      jump\t// in\n    tag_298:\n        /* \"#utility.yul\":11396:11399   */\n      dup3\n        /* \"#utility.yul\":11389:11447   */\n      mstore\n        /* \"#utility.yul\":11296:11453   */\n      pop\n      pop\n      jump\t// out\n        /* \"#utility.yul\":11459:12177   */\n    tag_70:\n        /* \"#utility.yul\":11685:11688   */\n      0x00\n        /* \"#utility.yul\":11707:11812   */\n      tag_301\n        /* \"#utility.yul\":11808:11811   */\n      dup3\n        /* \"#utility.yul\":11799:11805   */\n      dup8\n        /* \"#utility.yul\":11791:11797   */\n      dup10\n        /* \"#utility.yul\":11707:11812   */\n      tag_143\n      jump\t// in\n    tag_301:\n        /* \"#utility.yul\":11700:11812   */\n      swap2\n      pop\n        /* \"#utility.yul\":11822:11897   */\n      tag_302\n        /* \"#utility.yul\":11893:11896   */\n      dup3\n        /* \"#utility.yul\":11884:11890   */\n      dup7\n        /* \"#utility.yul\":11822:11897   */\n      tag_145\n      jump\t// in\n    tag_302:\n        /* \"#utility.yul\":11922:11924   */\n      0x20\n        /* \"#utility.yul\":11917:11920   */\n      dup3\n        /* \"#utility.yul\":11913:11925   */\n      add\n        /* \"#utility.yul\":11906:11925   */\n      swap2\n      pop\n        /* \"#utility.yul\":11935:12010   */\n      tag_303\n        /* \"#utility.yul\":12006:12009   */\n      dup3\n        /* \"#utility.yul\":11997:12003   */\n      dup6\n        /* \"#utility.yul\":11935:12010   */\n      tag_149\n      jump\t// in\n    tag_303:\n        /* \"#utility.yul\":12035:12037   */\n      0x14\n        /* \"#utility.yul\":12030:12033   */\n      dup3\n        /* \"#utility.yul\":12026:12038   */\n      add\n        /* \"#utility.yul\":12019:12038   */\n      swap2\n      pop\n        /* \"#utility.yul\":12048:12123   */\n      tag_304\n        /* \"#utility.yul\":12119:12122   */\n      dup3\n        /* \"#utility.yul\":12110:12116   */\n      dup5\n        /* \"#utility.yul\":12048:12123   */\n      tag_151\n      jump\t// in\n    tag_304:\n        /* \"#utility.yul\":12148:12150   */\n      0x20\n        /* \"#utility.yul\":12143:12146   */\n      dup3\n        /* \"#utility.yul\":12139:12151   */\n      add\n        /* \"#utility.yul\":12132:12151   */\n      swap2\n      pop\n        /* \"#utility.yul\":12168:12171   */\n      dup2\n        /* \"#utility.yul\":12161:12171   */\n      swap1\n      pop\n        /* \"#utility.yul\":11459:12177   */\n      swap7\n      swap6\n      pop\n      pop\n      pop\n      pop\n      pop\n      pop\n      jump\t// out\n        /* \"#utility.yul\":12183:12363   */\n    tag_152:\n        /* \"#utility.yul\":12231:12308   */\n      0x4e487b7100000000000000000000000000000000000000000000000000000000\n        /* \"#utility.yul\":12228:12229   */\n      0x00\n        /* \"#utility.yul\":12221:12309   */\n      mstore\n        /* \"#utility.yul\":12328:12332   */\n      0x22\n        /* \"#utility.yul\":12325:12326   */\n      0x04\n        /* \"#utility.yul\":12318:12333   */\n      mstore\n        /* \"#utility.yul\":12352:12356   */\n      0x24\n        /* \"#utility.yul\":12349:12350   */\n      0x00\n        /* \"#utility.yul\":12342:12357   */\n      revert\n        /* \"#utility.yul\":12369:12689   */\n    tag_72:\n        /* \"#utility.yul\":12413:12419   */\n      0x00\n        /* \"#utility.yul\":12450:12451   */\n      0x02\n        /* \"#utility.yul\":12444:12448   */\n      dup3\n        /* \"#utility.yul\":12440:12452   */\n      div\n        /* \"#utility.yul\":12430:12452   */\n      swap1\n      pop\n        /* \"#utility.yul\":12497:12498   */\n      0x01\n        /* \"#utility.yul\":12491:12495   */\n      dup3\n        /* \"#utility.yul\":12487:12499   */\n      and\n        /* \"#utility.yul\":12518:12536   */\n      dup1\n        /* \"#utility.yul\":12508:12589   */\n      tag_307\n      jumpi\n        /* \"#utility.yul\":12574:12578   */\n      0x7f\n        /* \"#utility.yul\":12566:12572   */\n      dup3\n        /* \"#utility.yul\":12562:12579   */\n      and\n        /* \"#utility.yul\":12552:12579   */\n      swap2\n      pop\n        /* \"#utility.yul\":12508:12589   */\n    tag_307:\n        /* \"#utility.yul\":12636:12638   */\n      0x20\n        /* \"#utility.yul\":12628:12634   */\n      dup3\n        /* \"#utility.yul\":12625:12639   */\n      lt\n        /* \"#utility.yul\":12605:12623   */\n      dup2\n        /* \"#utility.yul\":12602:12640   */\n      sub\n        /* \"#utility.yul\":12599:12683   */\n      tag_308\n      jumpi\n        /* \"#utility.yul\":12655:12673   */\n      tag_309\n      tag_152\n      jump\t// in\n    tag_309:\n        /* \"#utility.yul\":12599:12683   */\n    tag_308:\n        /* \"#utility.yul\":12420:12689   */\n      pop\n        /* \"#utility.yul\":12369:12689   */\n      swap2\n      swap1\n      pop\n      jump\t// out\n        /* \"#utility.yul\":12695:12875   */\n    tag_153:\n        /* \"#utility.yul\":12743:12820   */\n      0x4e487b7100000000000000000000000000000000000000000000000000000000\n        /* \"#utility.yul\":12740:12741   */\n      0x00\n        /* \"#utility.yul\":12733:12821   */\n      mstore\n        /* \"#utility.yul\":12840:12844   */\n      0x11\n        /* \"#utility.yul\":12837:12838   */\n      0x04\n        /* \"#utility.yul\":12830:12845   */\n      mstore\n        /* \"#utility.yul\":12864:12868   */\n      0x24\n        /* \"#utility.yul\":12861:12862   */\n      0x00\n        /* \"#utility.yul\":12854:12869   */\n      revert\n        /* \"#utility.yul\":12881:13072   */\n    tag_81:\n        /* \"#utility.yul\":12921:12924   */\n      0x00\n        /* \"#utility.yul\":12940:12960   */\n      tag_312\n        /* \"#utility.yul\":12958:12959   */\n      dup3\n        /* \"#utility.yul\":12940:12960   */\n      tag_116\n      jump\t// in\n    tag_312:\n        /* \"#utility.yul\":12935:12960   */\n      swap2\n      pop\n        /* \"#utility.yul\":12974:12994   */\n      tag_313\n        /* \"#utility.yul\":12992:12993   */\n      dup4\n        /* \"#utility.yul\":12974:12994   */\n      tag_116\n      jump\t// in\n    tag_313:\n        /* \"#utility.yul\":12969:12994   */\n      swap3\n      pop\n        /* \"#utility.yul\":13017:13018   */\n      dup3\n        /* \"#utility.yul\":13014:13015   */\n      dup3\n        /* \"#utility.yul\":13010:13019   */\n      add\n        /* \"#utility.yul\":13003:13019   */\n      swap1\n      pop\n        /* \"#utility.yul\":13038:13041   */\n      dup1\n        /* \"#utility.yul\":13035:13036   */\n      dup3\n        /* \"#utility.yul\":13032:13042   */\n      gt\n        /* \"#utility.yul\":13029:13065   */\n      iszero\n      tag_314\n      jumpi\n        /* \"#utility.yul\":13045:13063   */\n      tag_315\n      tag_153\n      jump\t// in\n    tag_315:\n        /* \"#utility.yul\":13029:13065   */\n    tag_314:\n        /* \"#utility.yul\":12881:13072   */\n      swap3\n      swap2\n      pop\n      pop\n      jump\t// out\n        /* \"#utility.yul\":13078:13175   */\n    tag_154:\n        /* \"#utility.yul\":13137:13143   */\n      0x00\n        /* \"#utility.yul\":13165:13168   */\n      dup3\n        /* \"#utility.yul\":13155:13168   */\n      swap1\n      pop\n        /* \"#utility.yul\":13078:13175   */\n      swap3\n      swap2\n      pop\n      pop\n      jump\t// out\n        /* \"#utility.yul\":13181:13361   */\n    tag_155:\n        /* \"#utility.yul\":13229:13306   */\n      0x4e487b7100000000000000000000000000000000000000000000000000000000\n        /* \"#utility.yul\":13226:13227   */\n      0x00\n        /* \"#utility.yul\":13219:13307   */\n      mstore\n        /* \"#utility.yul\":13326:13330   */\n      0x41\n        /* \"#utility.yul\":13323:13324   */\n      0x04\n        /* \"#utility.yul\":13316:13331   */\n      mstore\n        /* \"#utility.yul\":13350:13354   */\n      0x24\n        /* \"#utility.yul\":13347:13348   */\n      0x00\n        /* \"#utility.yul\":13340:13355   */\n      revert\n        /* \"#utility.yul\":13367:13508   */\n    tag_156:\n        /* \"#utility.yul\":13416:13420   */\n      0x00\n        /* \"#utility.yul\":13439:13442   */\n      dup2\n        /* \"#utility.yul\":13431:13442   */\n      swap1\n      pop\n        /* \"#utility.yul\":13462:13465   */\n      dup2\n        /* \"#utility.yul\":13459:13460   */\n      0x00\n        /* \"#utility.yul\":13452:13466   */\n      mstore\n        /* \"#utility.yul\":13496:13500   */\n      0x20\n        /* \"#utility.yul\":13493:13494   */\n      0x00\n        /* \"#utility.yul\":13483:13501   */\n      keccak256\n        /* \"#utility.yul\":13475:13501   */\n      swap1\n      pop\n        /* \"#utility.yul\":13367:13508   */\n      swap2\n      swap1\n      pop\n      jump\t// out\n        /* \"#utility.yul\":13514:13607   */\n    tag_157:\n        /* \"#utility.yul\":13551:13557   */\n      0x00\n        /* \"#utility.yul\":13598:13600   */\n      0x20\n        /* \"#utility.yul\":13593:13595   */\n      0x1f\n        /* \"#utility.yul\":13586:13591   */\n      dup4\n        /* \"#utility.yul\":13582:13596   */\n      add\n        /* \"#utility.yul\":13578:13601   */\n      div\n        /* \"#utility.yul\":13568:13601   */\n      swap1\n      pop\n        /* \"#utility.yul\":13514:13607   */\n      swap2\n      swap1\n      pop\n      jump\t// out\n        /* \"#utility.yul\":13613:13720   */\n    tag_158:\n        /* \"#utility.yul\":13657:13665   */\n      0x00\n        /* \"#utility.yul\":13707:13712   */\n      dup3\n        /* \"#utility.yul\":13701:13705   */\n      dup3\n        /* \"#utility.yul\":13697:13713   */\n      shl\n        /* \"#utility.yul\":13676:13713   */\n      swap1\n      pop\n        /* \"#utility.yul\":13613:13720   */\n      swap3\n      swap2\n      pop\n      pop\n      jump\t// out\n        /* \"#utility.yul\":13726:14119   */\n    tag_159:\n        /* \"#utility.yul\":13795:13801   */\n      0x00\n        /* \"#utility.yul\":13845:13846   */\n      0x08\n        /* \"#utility.yul\":13833:13843   */\n      dup4\n        /* \"#utility.yul\":13829:13847   */\n      mul\n        /* \"#utility.yul\":13868:13965   */\n      tag_322\n        /* \"#utility.yul\":13898:13964   */\n      0xffffffffffffffffffffffffffffffffffffffffffffffffffffffffffffffff\n        /* \"#utility.yul\":13887:13896   */\n      dup3\n        /* \"#utility.yul\":13868:13965   */\n      tag_158\n      jump\t// in\n    tag_322:\n        /* \"#utility.yul\":13986:14025   */\n      tag_323\n        /* \"#utility.yul\":14016:14024   */\n      dup7\n        /* \"#utility.yul\":14005:14014   */\n      dup4\n        /* \"#utility.yul\":13986:14025   */\n      tag_158\n      jump\t// in\n    tag_323:\n        /* \"#utility.yul\":13974:14025   */\n      swap6\n      pop\n        /* \"#utility.yul\":14058:14062   */\n      dup1\n        /* \"#utility.yul\":14054:14063   */\n      not\n        /* \"#utility.yul\":14047:14052   */\n      dup5\n        /* \"#utility.yul\":14043:14064   */\n      and\n        /* \"#utility.yul\":14034:14064   */\n      swap4\n      pop\n        /* \"#utility.yul\":14107:14111   */\n      dup1\n        /* \"#utility.yul\":14097:14105   */\n      dup7\n        /* \"#utility.yul\":14093:14112   */\n      and\n        /* \"#utility.yul\":14086:14091   */\n      dup5\n        /* \"#utility.yul\":14083:14113   */\n      or\n        /* \"#utility.yul\":14073:14113   */\n      swap3\n      pop\n        /* \"#utility.yul\":13802:14119   */\n      pop\n      pop\n        /* \"#utility.yul\":13726:14119   */\n      swap4\n      swap3\n      pop\n      pop\n      pop\n      jump\t// out\n        /* \"#utility.yul\":14125:14185   */\n    tag_160:\n        /* \"#utility.yul\":14153:14156   */\n      0x00\n        /* \"#utility.yul\":14174:14179   */\n      dup2\n        /* \"#utility.yul\":14167:14179   */\n      swap1\n      pop\n        /* \"#utility.yul\":14125:14185   */\n      swap2\n      swap1\n      pop\n      jump\t// out\n        /* \"#utility.yul\":14191:14333   */\n    tag_161:\n        /* \"#utility.yul\":14241:14250   */\n      0x00\n        /* \"#utility.yul\":14274:14327   */\n      tag_326\n        /* \"#utility.yul\":14292:14326   */\n      tag_327\n        /* \"#utility.yul\":14301:14325   */\n      tag_328\n        /* \"#utility.yul\":14319:14324   */\n      dup5\n        /* \"#utility.yul\":14301:14325   */\n      tag_116\n      jump\t// in\n    tag_328:\n        /* \"#utility.yul\":14292:14326   */\n      tag_160\n      jump\t// in\n    tag_327:\n        /* \"#utility.yul\":14274:14327   */\n      tag_116\n      jump\t// in\n    tag_326:\n        /* \"#utility.yul\":14261:14327   */\n      swap1\n      pop\n        /* \"#utility.yul\":14191:14333   */\n      swap2\n      swap1\n      pop\n      jump\t// out\n        /* \"#utility.yul\":14339:14414   */\n    tag_162:\n        /* \"#utility.yul\":14382:14385   */\n      0x00\n        /* \"#utility.yul\":14403:14408   */\n      dup2\n        /* \"#utility.yul\":14396:14408   */\n      swap1\n      pop\n        /* \"#utility.yul\":14339:14414   */\n      swap2\n      swap1\n      pop\n      jump\t// out\n        /* \"#utility.yul\":14420:14689   */\n    tag_163:\n        /* \"#utility.yul\":14530:14569   */\n      tag_331\n        /* \"#utility.yul\":14561:14568   */\n      dup4\n        /* \"#utility.yul\":14530:14569   */\n      tag_161\n      jump\t// in\n    tag_331:\n        /* \"#utility.yul\":14591:14682   */\n      tag_332\n        /* \"#utility.yul\":14640:14681   */\n      tag_333\n        /* \"#utility.yul\":14664:14680   */\n      dup3\n        /* \"#utility.yul\":14640:14681   */\n      tag_162\n      jump\t// in\n    tag_333:\n        /* \"#utility.yul\":14632:14638   */\n      dup5\n        /* \"#utility.yul\":14625:14629   */\n      dup5\n        /* \"#utility.yul\":14619:14630   */\n      sload\n        /* \"#utility.yul\":14591:14682   */\n      tag_159\n      jump\t// in\n    tag_332:\n        /* \"#utility.yul\":14585:14589   */\n      dup3\n        /* \"#utility.yul\":14578:14683   */\n      sstore\n        /* \"#utility.yul\":14496:14689   */\n      pop\n        /* \"#utility.yul\":14420:14689   */\n      pop\n      pop\n      pop\n      jump\t// out\n        /* \"#utility.yul\":14695:14768   */\n    tag_164:\n        /* \"#utility.yul\":14740:14743   */\n      0x00\n        /* \"#utility.yul\":14761:14762   */\n      0x00\n        /* \"#utility.yul\":14754:14762   */\n      swap1\n      pop\n        /* \"#utility.yul\":14695:14768   */\n      swap1\n      jump\t// out\n        /* \"#utility.yul\":14774:14963   */\n    tag_165:\n        /* \"#utility.yul\":14851:14883   */\n      tag_336\n      tag_164\n      jump\t// in\n    tag_336:\n        /* \"#utility.yul\":14892:14957   */\n      tag_337\n        /* \"#utility.yul\":14950:14956   */\n      dup2\n        /* \"#utility.yul\":14942:14948   */\n      dup5\n        /* \"#utility.yul\":14936:14940   */\n      dup5\n        /* \"#utility.yul\":14892:14957   */\n      tag_163\n      jump\t// in\n    tag_337:\n        /* \"#utility.yul\":14827:14963   */\n      pop\n        /* \"#utility.yul\":14774:14963   */\n      pop\n      pop\n      jump\t// out\n        /* \"#utility.yul\":14969:15183   */\n    tag_166:\n        /* \"#utility.yul\":15054:15055   */\n      0x00\n        /* \"#utility.yul\":15039:15177   */\n    tag_339:\n        /* \"#utility.yul\":15064:15073   */\n      dup3\n        /* \"#utility.yul\":15061:15062   */\n      dup2\n        /* \"#utility.yul\":15058:15074   */\n      lt\n        /* \"#utility.yul\":15039:15177   */\n      iszero\n      tag_341\n      jumpi\n        /* \"#utility.yul\":15116:15167   */\n      tag_342\n        /* \"#utility.yul\":15165:15166   */\n      0x00\n        /* \"#utility.yul\":15161:15162   */\n      dup3\n        /* \"#utility.yul\":15150:15159   */\n      dup5\n        /* \"#utility.yul\":15146:15163   */\n      add\n        /* \"#utility.yul\":15116:15167   */\n      tag_165\n      jump\t// in\n    tag_342:\n        /* \"#utility.yul\":15089:15090   */\n      0x01\n        /* \"#utility.yul\":15086:15087   */\n      dup2\n        /* \"#utility.yul\":15082:15091   */\n      add\n        /* \"#utility.yul\":15077:15091   */\n      swap1\n      pop\n        /* \"#utility.yul\":15039:15177   */\n      jump(tag_339)\n    tag_341:\n        /* \"#utility.yul\":15043:15057   */\n      pop\n        /* \"#utility.yul\":14969:15183   */\n      pop\n      pop\n      jump\t// out\n        /* \"#utility.yul\":15189:15935   */\n    tag_167:\n        /* \"#utility.yul\":15290:15292   */\n      0x1f\n        /* \"#utility.yul\":15285:15288   */\n      dup3\n        /* \"#utility.yul\":15282:15293   */\n      gt\n        /* \"#utility.yul\":15279:15928   */\n      iszero\n      tag_344\n      jumpi\n        /* \"#utility.yul\":15319:15329   */\n      dup3\n        /* \"#utility.yul\":15314:15317   */\n      dup3\n        /* \"#utility.yul\":15311:15330   */\n      gt\n        /* \"#utility.yul\":15308:15918   */\n      iszero\n      tag_345\n      jumpi\n        /* \"#utility.yul\":15365:15403   */\n      tag_346\n        /* \"#utility.yul\":15397:15402   */\n      dup2\n        /* \"#utility.yul\":15365:15403   */\n      tag_156\n      jump\t// in\n    tag_346:\n        /* \"#utility.yul\":15440:15462   */\n      tag_347\n        /* \"#utility.yul\":15458:15461   */\n      dup4\n        /* \"#utility.yul\":15440:15462   */\n      tag_157\n      jump\t// in\n    tag_347:\n        /* \"#utility.yul\":15499:15528   */\n      tag_348\n        /* \"#utility.yul\":15517:15527   */\n      dup6\n        /* \"#utility.yul\":15499:15528   */\n      tag_157\n      jump\t// in\n    tag_348:\n        /* \"#utility.yul\":15689:15691   */\n      0x20\n        /* \"#utility.yul\":15677:15687   */\n      dup7\n        /* \"#utility.yul\":15674:15692   */\n      lt\n        /* \"#utility.yul\":15671:15750   */\n      iszero\n      tag_349\n      jumpi\n        /* \"#utility.yul\":15731:15732   */\n      0x00\n        /* \"#utility.yul\":15715:15732   */\n      swap1\n      pop\n        /* \"#utility.yul\":15671:15750   */\n    tag_349:\n        /* \"#utility.yul\":15800:15812   */\n      dup1\n        /* \"#utility.yul\":15790:15798   */\n      dup4\n        /* \"#utility.yul\":15786:15813   */\n      add\n        /* \"#utility.yul\":15830:15904   */\n      tag_350\n        /* \"#utility.yul\":15890:15902   */\n      dup3\n        /* \"#utility.yul\":15876:15888   */\n      dup5\n        /* \"#utility.yul\":15872:15903   */\n      sub\n        /* \"#utility.yul\":15859:15870   */\n      dup3\n        /* \"#utility.yul\":15830:15904   */\n      tag_166\n      jump\t// in\n    tag_350:\n        /* \"#utility.yul\":15331:15918   */\n      pop\n      pop\n      pop\n      pop\n        /* \"#utility.yul\":15308:15918   */\n    tag_345:\n        /* \"#utility.yul\":15279:15928   */\n    tag_344:\n        /* \"#utility.yul\":15189:15935   */\n      pop\n      pop\n      pop\n      jump\t// out\n        /* \"#utility.yul\":15941:16058   */\n    tag_168:\n        /* \"#utility.yul\":15995:16003   */\n      0x00\n        /* \"#utility.yul\":16045:16050   */\n      dup3\n        /* \"#utility.yul\":16039:16043   */\n      dup3\n        /* \"#utility.yul\":16035:16051   */\n      shr\n        /* \"#utility.yul\":16014:16051   */\n      swap1\n      pop\n        /* \"#utility.yul\":15941:16058   */\n      swap3\n      swap2\n      pop\n      pop\n      jump\t// out\n        /* \"#utility.yul\":16064:16233   */\n    tag_169:\n        /* \"#utility.yul\":16108:16114   */\n      0x00\n        /* \"#utility.yul\":16141:16192   */\n      tag_353\n        /* \"#utility.yul\":16189:16190   */\n      0x00\n        /* \"#utility.yul\":16185:16191   */\n      not\n        /* \"#utility.yul\":16177:16182   */\n      dup5\n        /* \"#utility.yul\":16174:16175   */\n      0x08\n        /* \"#utility.yul\":16170:16183   */\n      mul\n        /* \"#utility.yul\":16141:16192   */\n      tag_168\n      jump\t// in\n    tag_353:\n        /* \"#utility.yul\":16137:16193   */\n      not\n        /* \"#utility.yul\":16222:16226   */\n      dup1\n        /* \"#utility.yul\":16216:16220   */\n      dup4\n        /* \"#utility.yul\":16212:16227   */\n      and\n        /* \"#utility.yul\":16202:16227   */\n      swap2\n      pop\n        /* \"#utility.yul\":16115:16233   */\n      pop\n        /* \"#utility.yul\":16064:16233   */\n      swap3\n      swap2\n      pop\n      pop\n      jump\t// out\n        /* \"#utility.yul\":16238:16533   */\n    tag_170:\n        /* \"#utility.yul\":16314:16318   */\n      0x00\n        /* \"#utility.yul\":16460:16489   */\n      tag_355\n        /* \"#utility.yul\":16485:16488   */\n      dup4\n        /* \"#utility.yul\":16479:16483   */\n      dup4\n        /* \"#utility.yul\":16460:16489   */\n      tag_169\n      jump\t// in\n    tag_355:\n        /* \"#utility.yul\":16452:16489   */\n      swap2\n      pop\n        /* \"#utility.yul\":16522:16525   */\n      dup3\n        /* \"#utility.yul\":16519:16520   */\n      0x02\n        /* \"#utility.yul\":16515:16526   */\n      mul\n        /* \"#utility.yul\":16509:16513   */\n      dup3\n        /* \"#utility.yul\":16506:16527   */\n      or\n        /* \"#utility.yul\":16498:16527   */\n      swap1\n      pop\n        /* \"#utility.yul\":16238:16533   */\n      swap3\n      swap2\n      pop\n      pop\n      jump\t// out\n        /* \"#utility.yul\":16538:17941   */\n    tag_94:\n        /* \"#utility.yul\":16662:16706   */\n      tag_357\n        /* \"#utility.yul\":16702:16705   */\n      dup4\n        /* \"#utility.yul\":16697:16700   */\n      dup4\n        /* \"#utility.yul\":16662:16706   */\n      tag_154\n      jump\t// in\n    tag_357:\n        /* \"#utility.yul\":16771:16789   */\n      0xffffffffffffffff\n        /* \"#utility.yul\":16763:16769   */\n      dup2\n        /* \"#utility.yul\":16760:16790   */\n      gt\n        /* \"#utility.yul\":16757:16813   */\n      iszero\n      tag_358\n      jumpi\n        /* \"#utility.yul\":16793:16811   */\n      tag_359\n      tag_155\n      jump\t// in\n    tag_359:\n        /* \"#utility.yul\":16757:16813   */\n    tag_358:\n        /* \"#utility.yul\":16837:16875   */\n      tag_360\n        /* \"#utility.yul\":16869:16873   */\n      dup3\n        /* \"#utility.yul\":16863:16874   */\n      sload\n        /* \"#utility.yul\":16837:16875   */\n      tag_72\n      jump\t// in\n    tag_360:\n        /* \"#utility.yul\":16922:16989   */\n      tag_361\n        /* \"#utility.yul\":16982:16988   */\n      dup3\n        /* \"#utility.yul\":16974:16980   */\n      dup3\n        /* \"#utility.yul\":16968:16972   */\n      dup6\n        /* \"#utility.yul\":16922:16989   */\n      tag_167\n      jump\t// in\n    tag_361:\n        /* \"#utility.yul\":17016:17017   */\n      0x00\n        /* \"#utility.yul\":17045:17047   */\n      0x1f\n        /* \"#utility.yul\":17037:17043   */\n      dup4\n        /* \"#utility.yul\":17034:17048   */\n      gt\n        /* \"#utility.yul\":17062:17063   */\n      0x01\n        /* \"#utility.yul\":17057:17689   */\n      dup2\n      eq\n      tag_363\n      jumpi\n        /* \"#utility.yul\":17733:17734   */\n      0x00\n        /* \"#utility.yul\":17750:17756   */\n      dup5\n        /* \"#utility.yul\":17747:17831   */\n      iszero\n      tag_364\n      jumpi\n        /* \"#utility.yul\":17806:17815   */\n      dup3\n        /* \"#utility.yul\":17801:17804   */\n      dup8\n        /* \"#utility.yul\":17797:17816   */\n      add\n        /* \"#utility.yul\":17784:17817   */\n      calldataload\n        /* \"#utility.yul\":17775:17817   */\n      swap1\n      pop\n        /* \"#utility.yul\":17747:17831   */\n    tag_364:\n        /* \"#utility.yul\":17857:17924   */\n      tag_365\n        /* \"#utility.yul\":17917:17923   */\n      dup6\n        /* \"#utility.yul\":17910:17915   */\n      dup3\n        /* \"#utility.yul\":17857:17924   */\n      tag_170\n      jump\t// in\n    tag_365:\n        /* \"#utility.yul\":17851:17855   */\n      dup7\n        /* \"#utility.yul\":17844:17925   */\n      sstore\n        /* \"#utility.yul\":17706:17935   */\n      pop\n        /* \"#utility.yul\":17027:17935   */\n      jump(tag_362)\n        /* \"#utility.yul\":17057:17689   */\n    tag_363:\n        /* \"#utility.yul\":17109:17113   */\n      0x1f\n        /* \"#utility.yul\":17105:17114   */\n      not\n        /* \"#utility.yul\":17097:17103   */\n      dup5\n        /* \"#utility.yul\":17093:17115   */\n      and\n        /* \"#utility.yul\":17143:17180   */\n      tag_366\n        /* \"#utility.yul\":17175:17179   */\n      dup7\n        /* \"#utility.yul\":17143:17180   */\n      tag_156\n      jump\t// in\n    tag_366:\n        /* \"#utility.yul\":17202:17203   */\n      0x00\n        /* \"#utility.yul\":17216:17431   */\n    tag_367:\n        /* \"#utility.yul\":17230:17237   */\n      dup3\n        /* \"#utility.yul\":17227:17228   */\n      dup2\n        /* \"#utility.yul\":17224:17238   */\n      lt\n        /* \"#utility.yul\":17216:17431   */\n      iszero\n      tag_369\n      jumpi\n        /* \"#utility.yul\":17316:17325   */\n      dup5\n        /* \"#utility.yul\":17311:17314   */\n      dup10\n        /* \"#utility.yul\":17307:17326   */\n      add\n        /* \"#utility.yul\":17294:17327   */\n      calldataload\n        /* \"#utility.yul\":17286:17292   */\n      dup3\n        /* \"#utility.yul\":17279:17328   */\n      sstore\n        /* \"#utility.yul\":17367:17368   */\n      0x01\n        /* \"#utility.yul\":17359:17365   */\n      dup3\n        /* \"#utility.yul\":17355:17369   */\n      add\n        /* \"#utility.yul\":17345:17369   */\n      swap2\n      pop\n        /* \"#utility.yul\":17414:17416   */\n      0x20\n        /* \"#utility.yul\":17403:17412   */\n      dup6\n        /* \"#utility.yul\":17399:17417   */\n      add\n        /* \"#utility.yul\":17386:17417   */\n      swap5\n      pop\n        /* \"#utility.yul\":17253:17257   */\n      0x20\n        /* \"#utility.yul\":17250:17251   */\n      dup2\n        /* \"#utility.yul\":17246:17258   */\n      add\n        /* \"#utility.yul\":17241:17258   */\n      swap1\n      pop\n        /* \"#utility.yul\":17216:17431   */\n      jump(tag_367)\n    tag_369:\n        /* \"#utility.yul\":17459:17465   */\n      dup7\n        /* \"#utility.yul\":17450:17457   */\n      dup4\n        /* \"#utility.yul\":17447:17466   */\n      lt\n        /* \"#utility.yul\":17444:17630   */\n      iszero\n      tag_370\n      jumpi\n        /* \"#utility.yul\":17524:17533   */\n      dup5\n        /* \"#utility.yul\":17519:17522   */\n      dup10\n        /* \"#utility.yul\":17515:17534   */\n      add\n        /* \"#utility.yul\":17502:17535   */\n      calldataload\n        /* \"#utility.yul\":17567:17615   */\n      tag_371\n        /* \"#utility.yul\":17609:17613   */\n      0x1f\n        /* \"#utility.yul\":17601:17607   */\n      dup10\n        /* \"#utility.yul\":17597:17614   */\n      and\n        /* \"#utility.yul\":17586:17595   */\n      dup3\n        /* \"#utility.yul\":17567:17615   */\n      tag_169\n      jump\t// in\n    tag_371:\n        /* \"#utility.yul\":17559:17565   */\n      dup4\n        /* \"#utility.yul\":17552:17616   */\n      sstore\n        /* \"#utility.yul\":17467:17630   */\n      pop\n        /* \"#utility.yul\":17444:17630   */\n    tag_370:\n        /* \"#utility.yul\":17676:17677   */\n      0x01\n        /* \"#utility.yul\":17672:17673   */\n      0x02\n        /* \"#utility.yul\":17664:17670   */\n      dup9\n        /* \"#utility.yul\":17660:17674   */\n      mul\n        /* \"#utility.yul\":17656:17678   */\n      add\n        /* \"#utility.yul\":17650:17654   */\n      dup9\n        /* \"#utility.yul\":17643:17679   */\n      sstore\n        /* \"#utility.yul\":17064:17689   */\n      pop\n      pop\n      pop\n        /* \"#utility.yul\":17027:17935   */\n    tag_362:\n      pop\n        /* \"#utility.yul\":16637:17941   */\n      pop\n      pop\n      pop\n        /* \"#utility.yul\":16538:17941   */\n      pop\n      pop\n      pop\n      jump\t// out\n        /* \"#utility.yul\":17971:18288   */\n    tag_171:\n        /* \"#utility.yul\":18069:18072   */\n      0x00\n        /* \"#utility.yul\":18090:18161   */\n      tag_373\n        /* \"#utility.yul\":18154:18160   */\n      dup4\n        /* \"#utility.yul\":18149:18152   */\n      dup6\n        /* \"#utility.yul\":18090:18161   */\n      tag_135\n      jump\t// in\n    tag_373:\n        /* \"#utility.yul\":18083:18161   */\n      swap4\n      pop\n        /* \"#utility.yul\":18171:18227   */\n      tag_374\n        /* \"#utility.yul\":18220:18226   */\n      dup4\n        /* \"#utility.yul\":18215:18218   */\n      dup6\n        /* \"#utility.yul\":18208:18213   */\n      dup5\n        /* \"#utility.yul\":18171:18227   */\n      tag_142\n      jump\t// in\n    tag_374:\n        /* \"#utility.yul\":18252:18281   */\n      tag_375\n        /* \"#utility.yul\":18274:18280   */\n      dup4\n        /* \"#utility.yul\":18252:18281   */\n      tag_137\n      jump\t// in\n    tag_375:\n        /* \"#utility.yul\":18247:18250   */\n      dup5\n        /* \"#utility.yul\":18243:18282   */\n      add\n        /* \"#utility.yul\":18236:18282   */\n      swap1\n      pop\n        /* \"#utility.yul\":17971:18288   */\n      swap4\n      swap3\n      pop\n      pop\n      pop\n      jump\t// out\n        /* \"#utility.yul\":18294:18737   */\n    tag_96:\n        /* \"#utility.yul\":18445:18449   */\n      0x00\n        /* \"#utility.yul\":18483:18485   */\n      0x40\n        /* \"#utility.yul\":18472:18481   */\n      dup3\n        /* \"#utility.yul\":18468:18486   */\n      add\n        /* \"#utility.yul\":18460:18486   */\n      swap1\n      pop\n        /* \"#utility.yul\":18532:18541   */\n      dup2\n        /* \"#utility.yul\":18526:18530   */\n      dup2\n        /* \"#utility.yul\":18522:18542   */\n      sub\n        /* \"#utility.yul\":18518:18519   */\n      0x00\n        /* \"#utility.yul\":18507:18516   */\n      dup4\n        /* \"#utility.yul\":18503:18520   */\n      add\n        /* \"#utility.yul\":18496:18543   */\n      mstore\n        /* \"#utility.yul\":18560:18648   */\n      tag_377\n        /* \"#utility.yul\":18643:18647   */\n      dup2\n        /* \"#utility.yul\":18634:18640   */\n      dup6\n        /* \"#utility.yul\":18626:18632   */\n      dup8\n        /* \"#utility.yul\":18560:18648   */\n      tag_171\n      jump\t// in\n    tag_377:\n        /* \"#utility.yul\":18552:18648   */\n      swap1\n      pop\n        /* \"#utility.yul\":18658:18730   */\n      tag_378\n        /* \"#utility.yul\":18726:18728   */\n      0x20\n        /* \"#utility.yul\":18715:18724   */\n      dup4\n        /* \"#utility.yul\":18711:18729   */\n      add\n        /* \"#utility.yul\":18702:18708   */\n      dup5\n        /* \"#utility.yul\":18658:18730   */\n      tag_133\n      jump\t// in\n    tag_378:\n        /* \"#utility.yul\":18294:18737   */\n      swap5\n      swap4\n      pop\n      pop\n      pop\n      pop\n      jump\t// out\n\n    auxdata: 0xa264697066735822122065dcba68f897804faaca2e672c72c522164b4b54118b1867fbcee5c2638d27a864736f6c63430008220033\n}\n",
				"bytecode": {
					"linkReferences": {},
					"object": "6080604052348015600e575f5ffd5b506115448061001c5f395ff3fe608060405234801561000f575f5ffd5b50600436106100a7575f3560e01c8063b1fb64051161006f578063b1fb64051461018d578063d5198a71146101bd578063e3ca7323146101d9578063e6a3d9dc14610209578063edf6922514610225578063fd3a832914610241576100a7565b80630d1d771b146100ab57806316b5551d146100dc57806317e931cf1461010c57806337eb3e3b1461012a5780639b3393941461015a575b5f5ffd5b6100c560048036038101906100c09190610bb4565b61025f565b6040516100d3929190610c08565b60405180910390f35b6100f660048036038101906100f19190610c89565b61028a565b6040516101039190610cc7565b60405180910390f35b6101146102ef565b6040516101219190610ce0565b60405180910390f35b610144600480360381019061013f9190610d8d565b6102f5565b6040516101519190610e20565b60405180910390f35b610174600480360381019061016f9190610c89565b610330565b6040516101849493929190610ea9565b60405180910390f35b6101a760048036038101906101a29190610bb4565b6103f9565b6040516101b49190610f0e565b60405180910390f35b6101d760048036038101906101d29190610f27565b61046c565b005b6101f360048036038101906101ee9190610c89565b610763565b6040516102009190610f98565b60405180910390f35b610223600480360381019061021e9190610fb8565b61088f565b005b61023f600480360381019061023a9190610ff6565b610a55565b005b610249610b73565b6040516102569190610ce0565b60405180910390f35b5f602052805f5260405f205f91509050805f015490806001015f9054906101000a900460ff16905082565b5f60015f8481526020019081526020015f205f8373ffffffffffffffffffffffffffffffffffffffff1673ffffffffffffffffffffffffffffffffffffffff1681526020019081526020015f206003015f9054906101000a900460ff16905092915050565b610e1081565b5f858585858560405160200161030f9594939291906110f5565b60405160208183030381529060405280519060200120905095945050505050565b6001602052815f5260405f20602052805f5260405f205f9150915050805f0154908060010180546103609061116d565b80601f016020809104026020016040519081016040528092919081815260200182805461038c9061116d565b80156103d75780601f106103ae576101008083540402835291602001916103d7565b820191905f5260205f20905b8154815290600101906020018083116103ba57829003601f168201915b505050505090806002015490806003015f9054906101000a900460ff16905084565b5f5f5f5f8481526020019081526020015f209050806001015f9054906101000a900460ff1661042c576002915050610467565b805f0154421015610440575f915050610467565b610e10815f015461045191906111ca565b4211610461576001915050610467565b60029150505b919050565b5f5f5f8681526020019081526020015f209050806001015f9054906101000a900460ff166104c6576040517ffc8c599700000000000000000000000000000000000000000000000000000000815260040160405180910390fd5b805f01544211610502576040517f7ff3813100000000000000000000000000000000000000000000000000000000815260040160405180910390fd5b610e10815f015461051391906111ca565b42111561054c576040517f59f7396100000000000000000000000000000000000000000000000000000000815260040160405180910390fd5b6107d084849050111561058b576040517f727c70e100000000000000000000000000000000000000000000000000000000815260040160405180910390fd5b5f60015f8781526020019081526020015f205f3373ffffffffffffffffffffffffffffffffffffffff1673ffffffffffffffffffffffffffffffffffffffff1681526020019081526020015f2090505f5f1b815f015403610618576040517f835a24b100000000000000000000000000000000000000000000000000000000815260040160405180910390fd5b806003015f9054906101000a900460ff1615610660576040517fa89ac15100000000000000000000000000000000000000000000000000000000815260040160405180910390fd5b5f858585338a60405160200161067a9594939291906110f5565b604051602081830303815290604052805190602001209050815f015481146106ce576040517f3f4d605300000000000000000000000000000000000000000000000000000000815260040160405180910390fd5b85858360010191826106e19291906113e5565b508382600201819055506001826003015f6101000a81548160ff0219169083151502179055503373ffffffffffffffffffffffffffffffffffffffff16877fa129ccbaf9f77b4d5415c89beea575cd28ea63a9b5b776c955c8d2508e471a22888888604051610752939291906114de565b60405180910390a350505050505050565b60605f60015f8581526020019081526020015f205f8473ffffffffffffffffffffffffffffffffffffffff1673ffffffffffffffffffffffffffffffffffffffff1681526020019081526020015f209050806003015f9054906101000a900460ff166107fb576040517f19738cc400000000000000000000000000000000000000000000000000000000815260040160405180910390fd5b80600101805461080a9061116d565b80601f01602080910402602001604051908101604052809291908181526020018280546108369061116d565b80156108815780601f1061085857610100808354040283529160200191610881565b820191905f5260205f20905b81548152906001019060200180831161086457829003601f168201915b505050505091505092915050565b5f5f5f8481526020019081526020015f209050806001015f9054906101000a900460ff166108e9576040517ffc8c599700000000000000000000000000000000000000000000000000000000815260040160405180910390fd5b805f01544210610925576040517f5d0e774000000000000000000000000000000000000000000000000000000000815260040160405180910390fd5b5f5f1b60015f8581526020019081526020015f205f3373ffffffffffffffffffffffffffffffffffffffff1673ffffffffffffffffffffffffffffffffffffffff1681526020019081526020015f205f0154146109ae576040517fbfec555800000000000000000000000000000000000000000000000000000000815260040160405180910390fd5b8160015f8581526020019081526020015f205f3373ffffffffffffffffffffffffffffffffffffffff1673ffffffffffffffffffffffffffffffffffffffff1681526020019081526020015f205f01819055503373ffffffffffffffffffffffffffffffffffffffff16837f26a454697a4923cb3646779d831b5e4696bd3fab14b67dd6dfe23d72354f57dd84604051610a489190610e20565b60405180910390a3505050565b5f5f8381526020019081526020015f206001015f9054906101000a900460ff1615610aac576040517fa9bd404600000000000000000000000000000000000000000000000000000000815260040160405180910390fd5b428111610ae5576040517f769d11e400000000000000000000000000000000000000000000000000000000815260040160405180910390fd5b6040518060400160405280828152602001600115158152505f5f8481526020019081526020015f205f820151815f01556020820151816001015f6101000a81548160ff021916908315150217905550905050817f75f6a44b2756cd8e77c70d23d4bcb8afb24746b7966d1a125bf43236e27b9d3482604051610b679190610ce0565b60405180910390a25050565b6107d081565b5f5ffd5b5f5ffd5b5f819050919050565b610b9381610b81565b8114610b9d575f5ffd5b50565b5f81359050610bae81610b8a565b92915050565b5f60208284031215610bc957610bc8610b79565b5b5f610bd684828501610ba0565b91505092915050565b610be881610b81565b82525050565b5f8115159050919050565b610c0281610bee565b82525050565b5f604082019050610c1b5f830185610bdf565b610c286020830184610bf9565b9392505050565b5f73ffffffffffffffffffffffffffffffffffffffff82169050919050565b5f610c5882610c2f565b9050919050565b610c6881610c4e565b8114610c72575f5ffd5b50565b5f81359050610c8381610c5f565b92915050565b5f5f60408385031215610c9f57610c9e610b79565b5b5f610cac85828601610ba0565b9250506020610cbd85828601610c75565b9150509250929050565b5f602082019050610cda5f830184610bf9565b92915050565b5f602082019050610cf35f830184610bdf565b92915050565b5f5ffd5b5f5ffd5b5f5ffd5b5f5f83601f840112610d1a57610d19610cf9565b5b8235905067ffffffffffffffff811115610d3757610d36610cfd565b5b602083019150836001820283011115610d5357610d52610d01565b5b9250929050565b5f819050919050565b610d6c81610d5a565b8114610d76575f5ffd5b50565b5f81359050610d8781610d63565b92915050565b5f5f5f5f5f60808688031215610da657610da5610b79565b5b5f86013567ffffffffffffffff811115610dc357610dc2610b7d565b5b610dcf88828901610d05565b95509550506020610de288828901610d79565b9350506040610df388828901610c75565b9250506060610e0488828901610ba0565b9150509295509295909350565b610e1a81610d5a565b82525050565b5f602082019050610e335f830184610e11565b92915050565b5f81519050919050565b5f82825260208201905092915050565b8281835e5f83830152505050565b5f601f19601f8301169050919050565b5f610e7b82610e39565b610e858185610e43565b9350610e95818560208601610e53565b610e9e81610e61565b840191505092915050565b5f608082019050610ebc5f830187610e11565b8181036020830152610ece8186610e71565b9050610edd6040830185610e11565b610eea6060830184610bf9565b95945050505050565b5f60ff82169050919050565b610f0881610ef3565b82525050565b5f602082019050610f215f830184610eff565b92915050565b5f5f5f5f60608587031215610f3f57610f3e610b79565b5b5f610f4c87828801610ba0565b945050602085013567ffffffffffffffff811115610f6d57610f6c610b7d565b5b610f7987828801610d05565b93509350506040610f8c87828801610d79565b91505092959194509250565b5f6020820190508181035f830152610fb08184610e71565b905092915050565b5f5f60408385031215610fce57610fcd610b79565b5b5f610fdb85828601610ba0565b9250506020610fec85828601610d79565b9150509250929050565b5f5f6040838503121561100c5761100b610b79565b5b5f61101985828601610ba0565b925050602061102a85828601610ba0565b9150509250929050565b5f81905092915050565b828183375f83830152505050565b5f6110578385611034565b935061106483858461103e565b82840190509392505050565b5f819050919050565b61108a61108582610d5a565b611070565b82525050565b5f8160601b9050919050565b5f6110a682611090565b9050919050565b5f6110b78261109c565b9050919050565b6110cf6110ca82610c4e565b6110ad565b82525050565b5f819050919050565b6110ef6110ea82610b81565b6110d5565b82525050565b5f61110182878961104c565b915061110d8286611079565b60208201915061111d82856110be565b60148201915061112d82846110de565b6020820191508190509695505050505050565b7f4e487b71000000000000000000000000000000000000000000000000000000005f52602260045260245ffd5b5f600282049050600182168061118457607f821691505b60208210810361119757611196611140565b5b50919050565b7f4e487b71000000000000000000000000000000000000000000000000000000005f52601160045260245ffd5b5f6111d482610b81565b91506111df83610b81565b92508282019050808211156111f7576111f661119d565b5b92915050565b5f82905092915050565b7f4e487b71000000000000000000000000000000000000000000000000000000005f52604160045260245ffd5b5f819050815f5260205f209050919050565b5f6020601f8301049050919050565b5f82821b905092915050565b5f600883026112907fffffffffffffffffffffffffffffffffffffffffffffffffffffffffffffffff82611255565b61129a8683611255565b95508019841693508086168417925050509392505050565b5f819050919050565b5f6112d56112d06112cb84610b81565b6112b2565b610b81565b9050919050565b5f819050919050565b6112ee836112bb565b6113026112fa826112dc565b848454611261565b825550505050565b5f5f905090565b61131961130a565b6113248184846112e5565b505050565b5f5b8281101561134a5761133f5f828401611311565b60018101905061132b565b505050565b601f82111561139d578282111561139c5761136981611234565b61137283611246565b61137b85611246565b6020861015611388575f90505b80830161139782840382611329565b505050505b5b505050565b5f82821c905092915050565b5f6113bd5f19846008026113a2565b1980831691505092915050565b5f6113d583836113ae565b9150826002028217905092915050565b6113ef83836111fd565b67ffffffffffffffff81111561140857611407611207565b5b611412825461116d565b61141d82828561134f565b5f601f83116001811461144a575f8415611438578287013590505b61144285826113ca565b8655506114a9565b601f19841661145886611234565b5f5b8281101561147f5784890135825560018201915060208501945060208101905061145a565b8683101561149c5784890135611498601f8916826113ae565b8355505b6001600288020188555050505b50505050505050565b5f6114bd8385610e43565b93506114ca83858461103e565b6114d383610e61565b840190509392505050565b5f6040820190508181035f8301526114f78185876114b2565b90506115066020830184610e11565b94935050505056fea264697066735822122065dcba68f897804faaca2e672c72c522164b4b54118b1867fbcee5c2638d27a864736f6c63430008220033",
					"opcodes": "PUSH1 0x80 PUSH1 0x40 MSTORE CALLVALUE DUP1 ISZERO PUSH1 0xE JUMPI PUSH0 PUSH0 REVERT JUMPDEST POP PUSH2 0x1544 DUP1 PUSH2 0x1C PUSH0 CODECOPY PUSH0 RETURN INVALID PUSH1 0x80 PUSH1 0x40 MSTORE CALLVALUE DUP1 ISZERO PUSH2 0xF JUMPI PUSH0 PUSH0 REVERT JUMPDEST POP PUSH1 0x4 CALLDATASIZE LT PUSH2 0xA7 JUMPI PUSH0 CALLDATALOAD PUSH1 0xE0 SHR DUP1 PUSH4 0xB1FB6405 GT PUSH2 0x6F JUMPI DUP1 PUSH4 0xB1FB6405 EQ PUSH2 0x18D JUMPI DUP1 PUSH4 0xD5198A71 EQ PUSH2 0x1BD JUMPI DUP1 PUSH4 0xE3CA7323 EQ PUSH2 0x1D9 JUMPI DUP1 PUSH4 0xE6A3D9DC EQ PUSH2 0x209 JUMPI DUP1 PUSH4 0xEDF69225 EQ PUSH2 0x225 JUMPI DUP1 PUSH4 0xFD3A8329 EQ PUSH2 0x241 JUMPI PUSH2 0xA7 JUMP JUMPDEST DUP1 PUSH4 0xD1D771B EQ PUSH2 0xAB JUMPI DUP1 PUSH4 0x16B5551D EQ PUSH2 0xDC JUMPI DUP1 PUSH4 0x17E931CF EQ PUSH2 0x10C JUMPI DUP1 PUSH4 0x37EB3E3B EQ PUSH2 0x12A JUMPI DUP1 PUSH4 0x9B339394 EQ PUSH2 0x15A JUMPI JUMPDEST PUSH0 PUSH0 REVERT JUMPDEST PUSH2 0xC5 PUSH1 0x4 DUP1 CALLDATASIZE SUB DUP2 ADD SWAP1 PUSH2 0xC0 SWAP2 SWAP1 PUSH2 0xBB4 JUMP JUMPDEST PUSH2 0x25F JUMP JUMPDEST PUSH1 0x40 MLOAD PUSH2 0xD3 SWAP3 SWAP2 SWAP1 PUSH2 0xC08 JUMP JUMPDEST PUSH1 0x40 MLOAD DUP1 SWAP2 SUB SWAP1 RETURN JUMPDEST PUSH2 0xF6 PUSH1 0x4 DUP1 CALLDATASIZE SUB DUP2 ADD SWAP1 PUSH2 0xF1 SWAP2 SWAP1 PUSH2 0xC89 JUMP JUMPDEST PUSH2 0x28A JUMP JUMPDEST PUSH1 0x40 MLOAD PUSH2 0x103 SWAP2 SWAP1 PUSH2 0xCC7 JUMP JUMPDEST PUSH1 0x40 MLOAD DUP1 SWAP2 SUB SWAP1 RETURN JUMPDEST PUSH2 0x114 PUSH2 0x2EF JUMP JUMPDEST PUSH1 0x40 MLOAD PUSH2 0x121 SWAP2 SWAP1 PUSH2 0xCE0 JUMP JUMPDEST PUSH1 0x40 MLOAD DUP1 SWAP2 SUB SWAP1 RETURN JUMPDEST PUSH2 0x144 PUSH1 0x4 DUP1 CALLDATASIZE SUB DUP2 ADD SWAP1 PUSH2 0x13F SWAP2 SWAP1 PUSH2 0xD8D JUMP JUMPDEST PUSH2 0x2F5 JUMP JUMPDEST PUSH1 0x40 MLOAD PUSH2 0x151 SWAP2 SWAP1 PUSH2 0xE20 JUMP JUMPDEST PUSH1 0x40 MLOAD DUP1 SWAP2 SUB SWAP1 RETURN JUMPDEST PUSH2 0x174 PUSH1 0x4 DUP1 CALLDATASIZE SUB DUP2 ADD SWAP1 PUSH2 0x16F SWAP2 SWAP1 PUSH2 0xC89 JUMP JUMPDEST PUSH2 0x330 JUMP JUMPDEST PUSH1 0x40 MLOAD PUSH2 0x184 SWAP5 SWAP4 SWAP3 SWAP2 SWAP1 PUSH2 0xEA9 JUMP JUMPDEST PUSH1 0x40 MLOAD DUP1 SWAP2 SUB SWAP1 RETURN JUMPDEST PUSH2 0x1A7 PUSH1 0x4 DUP1 CALLDATASIZE SUB DUP2 ADD SWAP1 PUSH2 0x1A2 SWAP2 SWAP1 PUSH2 0xBB4 JUMP JUMPDEST PUSH2 0x3F9 JUMP JUMPDEST PUSH1 0x40 MLOAD PUSH2 0x1B4 SWAP2 SWAP1 PUSH2 0xF0E JUMP JUMPDEST PUSH1 0x40 MLOAD DUP1 SWAP2 SUB SWAP1 RETURN JUMPDEST PUSH2 0x1D7 PUSH1 0x4 DUP1 CALLDATASIZE SUB DUP2 ADD SWAP1 PUSH2 0x1D2 SWAP2 SWAP1 PUSH2 0xF27 JUMP JUMPDEST PUSH2 0x46C JUMP JUMPDEST STOP JUMPDEST PUSH2 0x1F3 PUSH1 0x4 DUP1 CALLDATASIZE SUB DUP2 ADD SWAP1 PUSH2 0x1EE SWAP2 SWAP1 PUSH2 0xC89 JUMP JUMPDEST PUSH2 0x763 JUMP JUMPDEST PUSH1 0x40 MLOAD PUSH2 0x200 SWAP2 SWAP1 PUSH2 0xF98 JUMP JUMPDEST PUSH1 0x40 MLOAD DUP1 SWAP2 SUB SWAP1 RETURN JUMPDEST PUSH2 0x223 PUSH1 0x4 DUP1 CALLDATASIZE SUB DUP2 ADD SWAP1 PUSH2 0x21E SWAP2 SWAP1 PUSH2 0xFB8 JUMP JUMPDEST PUSH2 0x88F JUMP JUMPDEST STOP JUMPDEST PUSH2 0x23F PUSH1 0x4 DUP1 CALLDATASIZE SUB DUP2 ADD SWAP1 PUSH2 0x23A SWAP2 SWAP1 PUSH2 0xFF6 JUMP JUMPDEST PUSH2 0xA55 JUMP JUMPDEST STOP JUMPDEST PUSH2 0x249 PUSH2 0xB73 JUMP JUMPDEST PUSH1 0x40 MLOAD PUSH2 0x256 SWAP2 SWAP1 PUSH2 0xCE0 JUMP JUMPDEST PUSH1 0x40 MLOAD DUP1 SWAP2 SUB SWAP1 RETURN JUMPDEST PUSH0 PUSH1 0x20 MSTORE DUP1 PUSH0 MSTORE PUSH1 0x40 PUSH0 KECCAK256 PUSH0 SWAP2 POP SWAP1 POP DUP1 PUSH0 ADD SLOAD SWAP1 DUP1 PUSH1 0x1 ADD PUSH0 SWAP1 SLOAD SWAP1 PUSH2 0x100 EXP SWAP1 DIV PUSH1 0xFF AND SWAP1 POP DUP3 JUMP JUMPDEST PUSH0 PUSH1 0x1 PUSH0 DUP5 DUP2 MSTORE PUSH1 0x20 ADD SWAP1 DUP2 MSTORE PUSH1 0x20 ADD PUSH0 KECCAK256 PUSH0 DUP4 PUSH20 0xFFFFFFFFFFFFFFFFFFFFFFFFFFFFFFFFFFFFFFFF AND PUSH20 0xFFFFFFFFFFFFFFFFFFFFFFFFFFFFFFFFFFFFFFFF AND DUP2 MSTORE PUSH1 0x20 ADD SWAP1 DUP2 MSTORE PUSH1 0x20 ADD PUSH0 KECCAK256 PUSH1 0x3 ADD PUSH0 SWAP1 SLOAD SWAP1 PUSH2 0x100 EXP SWAP1 DIV PUSH1 0xFF AND SWAP1 POP SWAP3 SWAP2 POP POP JUMP JUMPDEST PUSH2 0xE10 DUP2 JUMP JUMPDEST PUSH0 DUP6 DUP6 DUP6 DUP6 DUP6 PUSH1 0x40 MLOAD PUSH1 0x20 ADD PUSH2 0x30F SWAP6 SWAP5 SWAP4 SWAP3 SWAP2 SWAP1 PUSH2 0x10F5 JUMP JUMPDEST PUSH1 0x40 MLOAD PUSH1 0x20 DUP2 DUP4 SUB SUB DUP2 MSTORE SWAP1 PUSH1 0x40 MSTORE DUP1 MLOAD SWAP1 PUSH1 0x20 ADD KECCAK256 SWAP1 POP SWAP6 SWAP5 POP POP POP POP POP JUMP JUMPDEST PUSH1 0x1 PUSH1 0x20 MSTORE DUP2 PUSH0 MSTORE PUSH1 0x40 PUSH0 KECCAK256 PUSH1 0x20 MSTORE DUP1 PUSH0 MSTORE PUSH1 0x40 PUSH0 KECCAK256 PUSH0 SWAP2 POP SWAP2 POP POP DUP1 PUSH0 ADD SLOAD SWAP1 DUP1 PUSH1 0x1 ADD DUP1 SLOAD PUSH2 0x360 SWAP1 PUSH2 0x116D JUMP JUMPDEST DUP1 PUSH1 0x1F ADD PUSH1 0x20 DUP1 SWAP2 DIV MUL PUSH1 0x20 ADD PUSH1 0x40 MLOAD SWAP1 DUP2 ADD PUSH1 0x40 MSTORE DUP1 SWAP3 SWAP2 SWAP1 DUP2 DUP2 MSTORE PUSH1 0x20 ADD DUP3 DUP1 SLOAD PUSH2 0x38C SWAP1 PUSH2 0x116D JUMP JUMPDEST DUP1 ISZERO PUSH2 0x3D7 JUMPI DUP1 PUSH1 0x1F LT PUSH2 0x3AE JUMPI PUSH2 0x100 DUP1 DUP4 SLOAD DIV MUL DUP4 MSTORE SWAP2 PUSH1 0x20 ADD SWAP2 PUSH2 0x3D7 JUMP JUMPDEST DUP3 ADD SWAP2 SWAP1 PUSH0 MSTORE PUSH1 0x20 PUSH0 KECCAK256 SWAP1 JUMPDEST DUP2 SLOAD DUP2 MSTORE SWAP1 PUSH1 0x1 ADD SWAP1 PUSH1 0x20 ADD DUP1 DUP4 GT PUSH2 0x3BA JUMPI DUP3 SWAP1 SUB PUSH1 0x1F AND DUP3 ADD SWAP2 JUMPDEST POP POP POP POP POP SWAP1 DUP1 PUSH1 0x2 ADD SLOAD SWAP1 DUP1 PUSH1 0x3 ADD PUSH0 SWAP1 SLOAD SWAP1 PUSH2 0x100 EXP SWAP1 DIV PUSH1 0xFF AND SWAP1 POP DUP5 JUMP JUMPDEST PUSH0 PUSH0 PUSH0 PUSH0 DUP5 DUP2 MSTORE PUSH1 0x20 ADD SWAP1 DUP2 MSTORE PUSH1 0x20 ADD PUSH0 KECCAK256 SWAP1 POP DUP1 PUSH1 0x1 ADD PUSH0 SWAP1 SLOAD SWAP1 PUSH2 0x100 EXP SWAP1 DIV PUSH1 0xFF AND PUSH2 0x42C JUMPI PUSH1 0x2 SWAP2 POP POP PUSH2 0x467 JUMP JUMPDEST DUP1 PUSH0 ADD SLOAD TIMESTAMP LT ISZERO PUSH2 0x440 JUMPI PUSH0 SWAP2 POP POP PUSH2 0x467 JUMP JUMPDEST PUSH2 0xE10 DUP2 PUSH0 ADD SLOAD PUSH2 0x451 SWAP2 SWAP1 PUSH2 0x11CA JUMP JUMPDEST TIMESTAMP GT PUSH2 0x461 JUMPI PUSH1 0x1 SWAP2 POP POP PUSH2 0x467 JUMP JUMPDEST PUSH1 0x2 SWAP2 POP POP JUMPDEST SWAP2 SWAP1 POP JUMP JUMPDEST PUSH0 PUSH0 PUSH0 DUP7 DUP2 MSTORE PUSH1 0x20 ADD SWAP1 DUP2 MSTORE PUSH1 0x20 ADD PUSH0 KECCAK256 SWAP1 POP DUP1 PUSH1 0x1 ADD PUSH0 SWAP1 SLOAD SWAP1 PUSH2 0x100 EXP SWAP1 DIV PUSH1 0xFF AND PUSH2 0x4C6 JUMPI PUSH1 0x40 MLOAD PUSH32 0xFC8C599700000000000000000000000000000000000000000000000000000000 DUP2 MSTORE PUSH1 0x4 ADD PUSH1 0x40 MLOAD DUP1 SWAP2 SUB SWAP1 REVERT JUMPDEST DUP1 PUSH0 ADD SLOAD TIMESTAMP GT PUSH2 0x502 JUMPI PUSH1 0x40 MLOAD PUSH32 0x7FF3813100000000000000000000000000000000000000000000000000000000 DUP2 MSTORE PUSH1 0x4 ADD PUSH1 0x40 MLOAD DUP1 SWAP2 SUB SWAP1 REVERT JUMPDEST PUSH2 0xE10 DUP2 PUSH0 ADD SLOAD PUSH2 0x513 SWAP2 SWAP1 PUSH2 0x11CA JUMP JUMPDEST TIMESTAMP GT ISZERO PUSH2 0x54C JUMPI PUSH1 0x40 MLOAD PUSH32 0x59F7396100000000000000000000000000000000000000000000000000000000 DUP2 MSTORE PUSH1 0x4 ADD PUSH1 0x40 MLOAD DUP1 SWAP2 SUB SWAP1 REVERT JUMPDEST PUSH2 0x7D0 DUP5 DUP5 SWAP1 POP GT ISZERO PUSH2 0x58B JUMPI PUSH1 0x40 MLOAD PUSH32 0x727C70E100000000000000000000000000000000000000000000000000000000 DUP2 MSTORE PUSH1 0x4 ADD PUSH1 0x40 MLOAD DUP1 SWAP2 SUB SWAP1 REVERT JUMPDEST PUSH0 PUSH1 0x1 PUSH0 DUP8 DUP2 MSTORE PUSH1 0x20 ADD SWAP1 DUP2 MSTORE PUSH1 0x20 ADD PUSH0 KECCAK256 PUSH0 CALLER PUSH20 0xFFFFFFFFFFFFFFFFFFFFFFFFFFFFFFFFFFFFFFFF AND PUSH20 0xFFFFFFFFFFFFFFFFFFFFFFFFFFFFFFFFFFFFFFFF AND DUP2 MSTORE PUSH1 0x20 ADD SWAP1 DUP2 MSTORE PUSH1 0x20 ADD PUSH0 KECCAK256 SWAP1 POP PUSH0 PUSH0 SHL DUP2 PUSH0 ADD SLOAD SUB PUSH2 0x618 JUMPI PUSH1 0x40 MLOAD PUSH32 0x835A24B100000000000000000000000000000000000000000000000000000000 DUP2 MSTORE PUSH1 0x4 ADD PUSH1 0x40 MLOAD DUP1 SWAP2 SUB SWAP1 REVERT JUMPDEST DUP1 PUSH1 0x3 ADD PUSH0 SWAP1 SLOAD SWAP1 PUSH2 0x100 EXP SWAP1 DIV PUSH1 0xFF AND ISZERO PUSH2 0x660 JUMPI PUSH1 0x40 MLOAD PUSH32 0xA89AC15100000000000000000000000000000000000000000000000000000000 DUP2 MSTORE PUSH1 0x4 ADD PUSH1 0x40 MLOAD DUP1 SWAP2 SUB SWAP1 REVERT JUMPDEST PUSH0 DUP6 DUP6 DUP6 CALLER DUP11 PUSH1 0x40 MLOAD PUSH1 0x20 ADD PUSH2 0x67A SWAP6 SWAP5 SWAP4 SWAP3 SWAP2 SWAP1 PUSH2 0x10F5 JUMP JUMPDEST PUSH1 0x40 MLOAD PUSH1 0x20 DUP2 DUP4 SUB SUB DUP2 MSTORE SWAP1 PUSH1 0x40 MSTORE DUP1 MLOAD SWAP1 PUSH1 0x20 ADD KECCAK256 SWAP1 POP DUP2 PUSH0 ADD SLOAD DUP2 EQ PUSH2 0x6CE JUMPI PUSH1 0x40 MLOAD PUSH32 0x3F4D605300000000000000000000000000000000000000000000000000000000 DUP2 MSTORE PUSH1 0x4 ADD PUSH1 0x40 MLOAD DUP1 SWAP2 SUB SWAP1 REVERT JUMPDEST DUP6 DUP6 DUP4 PUSH1 0x1 ADD SWAP2 DUP3 PUSH2 0x6E1 SWAP3 SWAP2 SWAP1 PUSH2 0x13E5 JUMP JUMPDEST POP DUP4 DUP3 PUSH1 0x2 ADD DUP2 SWAP1 SSTORE POP PUSH1 0x1 DUP3 PUSH1 0x3 ADD PUSH0 PUSH2 0x100 EXP DUP2 SLOAD DUP2 PUSH1 0xFF MUL NOT AND SWAP1 DUP4 ISZERO ISZERO MUL OR SWAP1 SSTORE POP CALLER PUSH20 0xFFFFFFFFFFFFFFFFFFFFFFFFFFFFFFFFFFFFFFFF AND DUP8 PUSH32 0xA129CCBAF9F77B4D5415C89BEEA575CD28EA63A9B5B776C955C8D2508E471A22 DUP9 DUP9 DUP9 PUSH1 0x40 MLOAD PUSH2 0x752 SWAP4 SWAP3 SWAP2 SWAP1 PUSH2 0x14DE JUMP JUMPDEST PUSH1 0x40 MLOAD DUP1 SWAP2 SUB SWAP1 LOG3 POP POP POP POP POP POP POP JUMP JUMPDEST PUSH1 0x60 PUSH0 PUSH1 0x1 PUSH0 DUP6 DUP2 MSTORE PUSH1 0x20 ADD SWAP1 DUP2 MSTORE PUSH1 0x20 ADD PUSH0 KECCAK256 PUSH0 DUP5 PUSH20 0xFFFFFFFFFFFFFFFFFFFFFFFFFFFFFFFFFFFFFFFF AND PUSH20 0xFFFFFFFFFFFFFFFFFFFFFFFFFFFFFFFFFFFFFFFF AND DUP2 MSTORE PUSH1 0x20 ADD SWAP1 DUP2 MSTORE PUSH1 0x20 ADD PUSH0 KECCAK256 SWAP1 POP DUP1 PUSH1 0x3 ADD PUSH0 SWAP1 SLOAD SWAP1 PUSH2 0x100 EXP SWAP1 DIV PUSH1 0xFF AND PUSH2 0x7FB JUMPI PUSH1 0x40 MLOAD PUSH32 0x19738CC400000000000000000000000000000000000000000000000000000000 DUP2 MSTORE PUSH1 0x4 ADD PUSH1 0x40 MLOAD DUP1 SWAP2 SUB SWAP1 REVERT JUMPDEST DUP1 PUSH1 0x1 ADD DUP1 SLOAD PUSH2 0x80A SWAP1 PUSH2 0x116D JUMP JUMPDEST DUP1 PUSH1 0x1F ADD PUSH1 0x20 DUP1 SWAP2 DIV MUL PUSH1 0x20 ADD PUSH1 0x40 MLOAD SWAP1 DUP2 ADD PUSH1 0x40 MSTORE DUP1 SWAP3 SWAP2 SWAP1 DUP2 DUP2 MSTORE PUSH1 0x20 ADD DUP3 DUP1 SLOAD PUSH2 0x836 SWAP1 PUSH2 0x116D JUMP JUMPDEST DUP1 ISZERO PUSH2 0x881 JUMPI DUP1 PUSH1 0x1F LT PUSH2 0x858 JUMPI PUSH2 0x100 DUP1 DUP4 SLOAD DIV MUL DUP4 MSTORE SWAP2 PUSH1 0x20 ADD SWAP2 PUSH2 0x881 JUMP JUMPDEST DUP3 ADD SWAP2 SWAP1 PUSH0 MSTORE PUSH1 0x20 PUSH0 KECCAK256 SWAP1 JUMPDEST DUP2 SLOAD DUP2 MSTORE SWAP1 PUSH1 0x1 ADD SWAP1 PUSH1 0x20 ADD DUP1 DUP4 GT PUSH2 0x864 JUMPI DUP3 SWAP1 SUB PUSH1 0x1F AND DUP3 ADD SWAP2 JUMPDEST POP POP POP POP POP SWAP2 POP POP SWAP3 SWAP2 POP POP JUMP JUMPDEST PUSH0 PUSH0 PUSH0 DUP5 DUP2 MSTORE PUSH1 0x20 ADD SWAP1 DUP2 MSTORE PUSH1 0x20 ADD PUSH0 KECCAK256 SWAP1 POP DUP1 PUSH1 0x1 ADD PUSH0 SWAP1 SLOAD SWAP1 PUSH2 0x100 EXP SWAP1 DIV PUSH1 0xFF AND PUSH2 0x8E9 JUMPI PUSH1 0x40 MLOAD PUSH32 0xFC8C599700000000000000000000000000000000000000000000000000000000 DUP2 MSTORE PUSH1 0x4 ADD PUSH1 0x40 MLOAD DUP1 SWAP2 SUB SWAP1 REVERT JUMPDEST DUP1 PUSH0 ADD SLOAD TIMESTAMP LT PUSH2 0x925 JUMPI PUSH1 0x40 MLOAD PUSH32 0x5D0E774000000000000000000000000000000000000000000000000000000000 DUP2 MSTORE PUSH1 0x4 ADD PUSH1 0x40 MLOAD DUP1 SWAP2 SUB SWAP1 REVERT JUMPDEST PUSH0 PUSH0 SHL PUSH1 0x1 PUSH0 DUP6 DUP2 MSTORE PUSH1 0x20 ADD SWAP1 DUP2 MSTORE PUSH1 0x20 ADD PUSH0 KECCAK256 PUSH0 CALLER PUSH20 0xFFFFFFFFFFFFFFFFFFFFFFFFFFFFFFFFFFFFFFFF AND PUSH20 0xFFFFFFFFFFFFFFFFFFFFFFFFFFFFFFFFFFFFFFFF AND DUP2 MSTORE PUSH1 0x20 ADD SWAP1 DUP2 MSTORE PUSH1 0x20 ADD PUSH0 KECCAK256 PUSH0 ADD SLOAD EQ PUSH2 0x9AE JUMPI PUSH1 0x40 MLOAD PUSH32 0xBFEC555800000000000000000000000000000000000000000000000000000000 DUP2 MSTORE PUSH1 0x4 ADD PUSH1 0x40 MLOAD DUP1 SWAP2 SUB SWAP1 REVERT JUMPDEST DUP2 PUSH1 0x1 PUSH0 DUP6 DUP2 MSTORE PUSH1 0x20 ADD SWAP1 DUP2 MSTORE PUSH1 0x20 ADD PUSH0 KECCAK256 PUSH0 CALLER PUSH20 0xFFFFFFFFFFFFFFFFFFFFFFFFFFFFFFFFFFFFFFFF AND PUSH20 0xFFFFFFFFFFFFFFFFFFFFFFFFFFFFFFFFFFFFFFFF AND DUP2 MSTORE PUSH1 0x20 ADD SWAP1 DUP2 MSTORE PUSH1 0x20 ADD PUSH0 KECCAK256 PUSH0 ADD DUP2 SWAP1 SSTORE POP CALLER PUSH20 0xFFFFFFFFFFFFFFFFFFFFFFFFFFFFFFFFFFFFFFFF AND DUP4 PUSH32 0x26A454697A4923CB3646779D831B5E4696BD3FAB14B67DD6DFE23D72354F57DD DUP5 PUSH1 0x40 MLOAD PUSH2 0xA48 SWAP2 SWAP1 PUSH2 0xE20 JUMP JUMPDEST PUSH1 0x40 MLOAD DUP1 SWAP2 SUB SWAP1 LOG3 POP POP POP JUMP JUMPDEST PUSH0 PUSH0 DUP4 DUP2 MSTORE PUSH1 0x20 ADD SWAP1 DUP2 MSTORE PUSH1 0x20 ADD PUSH0 KECCAK256 PUSH1 0x1 ADD PUSH0 SWAP1 SLOAD SWAP1 PUSH2 0x100 EXP SWAP1 DIV PUSH1 0xFF AND ISZERO PUSH2 0xAAC JUMPI PUSH1 0x40 MLOAD PUSH32 0xA9BD404600000000000000000000000000000000000000000000000000000000 DUP2 MSTORE PUSH1 0x4 ADD PUSH1 0x40 MLOAD DUP1 SWAP2 SUB SWAP1 REVERT JUMPDEST TIMESTAMP DUP2 GT PUSH2 0xAE5 JUMPI PUSH1 0x40 MLOAD PUSH32 0x769D11E400000000000000000000000000000000000000000000000000000000 DUP2 MSTORE PUSH1 0x4 ADD PUSH1 0x40 MLOAD DUP1 SWAP2 SUB SWAP1 REVERT JUMPDEST PUSH1 0x40 MLOAD DUP1 PUSH1 0x40 ADD PUSH1 0x40 MSTORE DUP1 DUP3 DUP2 MSTORE PUSH1 0x20 ADD PUSH1 0x1 ISZERO ISZERO DUP2 MSTORE POP PUSH0 PUSH0 DUP5 DUP2 MSTORE PUSH1 0x20 ADD SWAP1 DUP2 MSTORE PUSH1 0x20 ADD PUSH0 KECCAK256 PUSH0 DUP3 ADD MLOAD DUP2 PUSH0 ADD SSTORE PUSH1 0x20 DUP3 ADD MLOAD DUP2 PUSH1 0x1 ADD PUSH0 PUSH2 0x100 EXP DUP2 SLOAD DUP2 PUSH1 0xFF MUL NOT AND SWAP1 DUP4 ISZERO ISZERO MUL OR SWAP1 SSTORE POP SWAP1 POP POP DUP2 PUSH32 0x75F6A44B2756CD8E77C70D23D4BCB8AFB24746B7966D1A125BF43236E27B9D34 DUP3 PUSH1 0x40 MLOAD PUSH2 0xB67 SWAP2 SWAP1 PUSH2 0xCE0 JUMP JUMPDEST PUSH1 0x40 MLOAD DUP1 SWAP2 SUB SWAP1 LOG2 POP POP JUMP JUMPDEST PUSH2 0x7D0 DUP2 JUMP JUMPDEST PUSH0 PUSH0 REVERT JUMPDEST PUSH0 PUSH0 REVERT JUMPDEST PUSH0 DUP2 SWAP1 POP SWAP2 SWAP1 POP JUMP JUMPDEST PUSH2 0xB93 DUP2 PUSH2 0xB81 JUMP JUMPDEST DUP2 EQ PUSH2 0xB9D JUMPI PUSH0 PUSH0 REVERT JUMPDEST POP JUMP JUMPDEST PUSH0 DUP2 CALLDATALOAD SWAP1 POP PUSH2 0xBAE DUP2 PUSH2 0xB8A JUMP JUMPDEST SWAP3 SWAP2 POP POP JUMP JUMPDEST PUSH0 PUSH1 0x20 DUP3 DUP5 SUB SLT ISZERO PUSH2 0xBC9 JUMPI PUSH2 0xBC8 PUSH2 0xB79 JUMP JUMPDEST JUMPDEST PUSH0 PUSH2 0xBD6 DUP5 DUP3 DUP6 ADD PUSH2 0xBA0 JUMP JUMPDEST SWAP2 POP POP SWAP3 SWAP2 POP POP JUMP JUMPDEST PUSH2 0xBE8 DUP2 PUSH2 0xB81 JUMP JUMPDEST DUP3 MSTORE POP POP JUMP JUMPDEST PUSH0 DUP2 ISZERO ISZERO SWAP1 POP SWAP2 SWAP1 POP JUMP JUMPDEST PUSH2 0xC02 DUP2 PUSH2 0xBEE JUMP JUMPDEST DUP3 MSTORE POP POP JUMP JUMPDEST PUSH0 PUSH1 0x40 DUP3 ADD SWAP1 POP PUSH2 0xC1B PUSH0 DUP4 ADD DUP6 PUSH2 0xBDF JUMP JUMPDEST PUSH2 0xC28 PUSH1 0x20 DUP4 ADD DUP5 PUSH2 0xBF9 JUMP JUMPDEST SWAP4 SWAP3 POP POP POP JUMP JUMPDEST PUSH0 PUSH20 0xFFFFFFFFFFFFFFFFFFFFFFFFFFFFFFFFFFFFFFFF DUP3 AND SWAP1 POP SWAP2 SWAP1 POP JUMP JUMPDEST PUSH0 PUSH2 0xC58 DUP3 PUSH2 0xC2F JUMP JUMPDEST SWAP1 POP SWAP2 SWAP1 POP JUMP JUMPDEST PUSH2 0xC68 DUP2 PUSH2 0xC4E JUMP JUMPDEST DUP2 EQ PUSH2 0xC72 JUMPI PUSH0 PUSH0 REVERT JUMPDEST POP JUMP JUMPDEST PUSH0 DUP2 CALLDATALOAD SWAP1 POP PUSH2 0xC83 DUP2 PUSH2 0xC5F JUMP JUMPDEST SWAP3 SWAP2 POP POP JUMP JUMPDEST PUSH0 PUSH0 PUSH1 0x40 DUP4 DUP6 SUB SLT ISZERO PUSH2 0xC9F JUMPI PUSH2 0xC9E PUSH2 0xB79 JUMP JUMPDEST JUMPDEST PUSH0 PUSH2 0xCAC DUP6 DUP3 DUP7 ADD PUSH2 0xBA0 JUMP JUMPDEST SWAP3 POP POP PUSH1 0x20 PUSH2 0xCBD DUP6 DUP3 DUP7 ADD PUSH2 0xC75 JUMP JUMPDEST SWAP2 POP POP SWAP3 POP SWAP3 SWAP1 POP JUMP JUMPDEST PUSH0 PUSH1 0x20 DUP3 ADD SWAP1 POP PUSH2 0xCDA PUSH0 DUP4 ADD DUP5 PUSH2 0xBF9 JUMP JUMPDEST SWAP3 SWAP2 POP POP JUMP JUMPDEST PUSH0 PUSH1 0x20 DUP3 ADD SWAP1 POP PUSH2 0xCF3 PUSH0 DUP4 ADD DUP5 PUSH2 0xBDF JUMP JUMPDEST SWAP3 SWAP2 POP POP JUMP JUMPDEST PUSH0 PUSH0 REVERT JUMPDEST PUSH0 PUSH0 REVERT JUMPDEST PUSH0 PUSH0 REVERT JUMPDEST PUSH0 PUSH0 DUP4 PUSH1 0x1F DUP5 ADD SLT PUSH2 0xD1A JUMPI PUSH2 0xD19 PUSH2 0xCF9 JUMP JUMPDEST JUMPDEST DUP3 CALLDATALOAD SWAP1 POP PUSH8 0xFFFFFFFFFFFFFFFF DUP2 GT ISZERO PUSH2 0xD37 JUMPI PUSH2 0xD36 PUSH2 0xCFD JUMP JUMPDEST JUMPDEST PUSH1 0x20 DUP4 ADD SWAP2 POP DUP4 PUSH1 0x1 DUP3 MUL DUP4 ADD GT ISZERO PUSH2 0xD53 JUMPI PUSH2 0xD52 PUSH2 0xD01 JUMP JUMPDEST JUMPDEST SWAP3 POP SWAP3 SWAP1 POP JUMP JUMPDEST PUSH0 DUP2 SWAP1 POP SWAP2 SWAP1 POP JUMP JUMPDEST PUSH2 0xD6C DUP2 PUSH2 0xD5A JUMP JUMPDEST DUP2 EQ PUSH2 0xD76 JUMPI PUSH0 PUSH0 REVERT JUMPDEST POP JUMP JUMPDEST PUSH0 DUP2 CALLDATALOAD SWAP1 POP PUSH2 0xD87 DUP2 PUSH2 0xD63 JUMP JUMPDEST SWAP3 SWAP2 POP POP JUMP JUMPDEST PUSH0 PUSH0 PUSH0 PUSH0 PUSH0 PUSH1 0x80 DUP7 DUP9 SUB SLT ISZERO PUSH2 0xDA6 JUMPI PUSH2 0xDA5 PUSH2 0xB79 JUMP JUMPDEST JUMPDEST PUSH0 DUP7 ADD CALLDATALOAD PUSH8 0xFFFFFFFFFFFFFFFF DUP2 GT ISZERO PUSH2 0xDC3 JUMPI PUSH2 0xDC2 PUSH2 0xB7D JUMP JUMPDEST JUMPDEST PUSH2 0xDCF DUP9 DUP3 DUP10 ADD PUSH2 0xD05 JUMP JUMPDEST SWAP6 POP SWAP6 POP POP PUSH1 0x20 PUSH2 0xDE2 DUP9 DUP3 DUP10 ADD PUSH2 0xD79 JUMP JUMPDEST SWAP4 POP POP PUSH1 0x40 PUSH2 0xDF3 DUP9 DUP3 DUP10 ADD PUSH2 0xC75 JUMP JUMPDEST SWAP3 POP POP PUSH1 0x60 PUSH2 0xE04 DUP9 DUP3 DUP10 ADD PUSH2 0xBA0 JUMP JUMPDEST SWAP2 POP POP SWAP3 SWAP6 POP SWAP3 SWAP6 SWAP1 SWAP4 POP JUMP JUMPDEST PUSH2 0xE1A DUP2 PUSH2 0xD5A JUMP JUMPDEST DUP3 MSTORE POP POP JUMP JUMPDEST PUSH0 PUSH1 0x20 DUP3 ADD SWAP1 POP PUSH2 0xE33 PUSH0 DUP4 ADD DUP5 PUSH2 0xE11 JUMP JUMPDEST SWAP3 SWAP2 POP POP JUMP JUMPDEST PUSH0 DUP2 MLOAD SWAP1 POP SWAP2 SWAP1 POP JUMP JUMPDEST PUSH0 DUP3 DUP3 MSTORE PUSH1 0x20 DUP3 ADD SWAP1 POP SWAP3 SWAP2 POP POP JUMP JUMPDEST DUP3 DUP2 DUP4 MCOPY PUSH0 DUP4 DUP4 ADD MSTORE POP POP POP JUMP JUMPDEST PUSH0 PUSH1 0x1F NOT PUSH1 0x1F DUP4 ADD AND SWAP1 POP SWAP2 SWAP1 POP JUMP JUMPDEST PUSH0 PUSH2 0xE7B DUP3 PUSH2 0xE39 JUMP JUMPDEST PUSH2 0xE85 DUP2 DUP6 PUSH2 0xE43 JUMP JUMPDEST SWAP4 POP PUSH2 0xE95 DUP2 DUP6 PUSH1 0x20 DUP7 ADD PUSH2 0xE53 JUMP JUMPDEST PUSH2 0xE9E DUP2 PUSH2 0xE61 JUMP JUMPDEST DUP5 ADD SWAP2 POP POP SWAP3 SWAP2 POP POP JUMP JUMPDEST PUSH0 PUSH1 0x80 DUP3 ADD SWAP1 POP PUSH2 0xEBC PUSH0 DUP4 ADD DUP8 PUSH2 0xE11 JUMP JUMPDEST DUP2 DUP2 SUB PUSH1 0x20 DUP4 ADD MSTORE PUSH2 0xECE DUP2 DUP7 PUSH2 0xE71 JUMP JUMPDEST SWAP1 POP PUSH2 0xEDD PUSH1 0x40 DUP4 ADD DUP6 PUSH2 0xE11 JUMP JUMPDEST PUSH2 0xEEA PUSH1 0x60 DUP4 ADD DUP5 PUSH2 0xBF9 JUMP JUMPDEST SWAP6 SWAP5 POP POP POP POP POP JUMP JUMPDEST PUSH0 PUSH1 0xFF DUP3 AND SWAP1 POP SWAP2 SWAP1 POP JUMP JUMPDEST PUSH2 0xF08 DUP2 PUSH2 0xEF3 JUMP JUMPDEST DUP3 MSTORE POP POP JUMP JUMPDEST PUSH0 PUSH1 0x20 DUP3 ADD SWAP1 POP PUSH2 0xF21 PUSH0 DUP4 ADD DUP5 PUSH2 0xEFF JUMP JUMPDEST SWAP3 SWAP2 POP POP JUMP JUMPDEST PUSH0 PUSH0 PUSH0 PUSH0 PUSH1 0x60 DUP6 DUP8 SUB SLT ISZERO PUSH2 0xF3F JUMPI PUSH2 0xF3E PUSH2 0xB79 JUMP JUMPDEST JUMPDEST PUSH0 PUSH2 0xF4C DUP8 DUP3 DUP9 ADD PUSH2 0xBA0 JUMP JUMPDEST SWAP5 POP POP PUSH1 0x20 DUP6 ADD CALLDATALOAD PUSH8 0xFFFFFFFFFFFFFFFF DUP2 GT ISZERO PUSH2 0xF6D JUMPI PUSH2 0xF6C PUSH2 0xB7D JUMP JUMPDEST JUMPDEST PUSH2 0xF79 DUP8 DUP3 DUP9 ADD PUSH2 0xD05 JUMP JUMPDEST SWAP4 POP SWAP4 POP POP PUSH1 0x40 PUSH2 0xF8C DUP8 DUP3 DUP9 ADD PUSH2 0xD79 JUMP JUMPDEST SWAP2 POP POP SWAP3 SWAP6 SWAP2 SWAP5 POP SWAP3 POP JUMP JUMPDEST PUSH0 PUSH1 0x20 DUP3 ADD SWAP1 POP DUP2 DUP2 SUB PUSH0 DUP4 ADD MSTORE PUSH2 0xFB0 DUP2 DUP5 PUSH2 0xE71 JUMP JUMPDEST SWAP1 POP SWAP3 SWAP2 POP POP JUMP JUMPDEST PUSH0 PUSH0 PUSH1 0x40 DUP4 DUP6 SUB SLT ISZERO PUSH2 0xFCE JUMPI PUSH2 0xFCD PUSH2 0xB79 JUMP JUMPDEST JUMPDEST PUSH0 PUSH2 0xFDB DUP6 DUP3 DUP7 ADD PUSH2 0xBA0 JUMP JUMPDEST SWAP3 POP POP PUSH1 0x20 PUSH2 0xFEC DUP6 DUP3 DUP7 ADD PUSH2 0xD79 JUMP JUMPDEST SWAP2 POP POP SWAP3 POP SWAP3 SWAP1 POP JUMP JUMPDEST PUSH0 PUSH0 PUSH1 0x40 DUP4 DUP6 SUB SLT ISZERO PUSH2 0x100C JUMPI PUSH2 0x100B PUSH2 0xB79 JUMP JUMPDEST JUMPDEST PUSH0 PUSH2 0x1019 DUP6 DUP3 DUP7 ADD PUSH2 0xBA0 JUMP JUMPDEST SWAP3 POP POP PUSH1 0x20 PUSH2 0x102A DUP6 DUP3 DUP7 ADD PUSH2 0xBA0 JUMP JUMPDEST SWAP2 POP POP SWAP3 POP SWAP3 SWAP1 POP JUMP JUMPDEST PUSH0 DUP2 SWAP1 POP SWAP3 SWAP2 POP POP JUMP JUMPDEST DUP3 DUP2 DUP4 CALLDATACOPY PUSH0 DUP4 DUP4 ADD MSTORE POP POP POP JUMP JUMPDEST PUSH0 PUSH2 0x1057 DUP4 DUP6 PUSH2 0x1034 JUMP JUMPDEST SWAP4 POP PUSH2 0x1064 DUP4 DUP6 DUP5 PUSH2 0x103E JUMP JUMPDEST DUP3 DUP5 ADD SWAP1 POP SWAP4 SWAP3 POP POP POP JUMP JUMPDEST PUSH0 DUP2 SWAP1 POP SWAP2 SWAP1 POP JUMP JUMPDEST PUSH2 0x108A PUSH2 0x1085 DUP3 PUSH2 0xD5A JUMP JUMPDEST PUSH2 0x1070 JUMP JUMPDEST DUP3 MSTORE POP POP JUMP JUMPDEST PUSH0 DUP2 PUSH1 0x60 SHL SWAP1 POP SWAP2 SWAP1 POP JUMP JUMPDEST PUSH0 PUSH2 0x10A6 DUP3 PUSH2 0x1090 JUMP JUMPDEST SWAP1 POP SWAP2 SWAP1 POP JUMP JUMPDEST PUSH0 PUSH2 0x10B7 DUP3 PUSH2 0x109C JUMP JUMPDEST SWAP1 POP SWAP2 SWAP1 POP JUMP JUMPDEST PUSH2 0x10CF PUSH2 0x10CA DUP3 PUSH2 0xC4E JUMP JUMPDEST PUSH2 0x10AD JUMP JUMPDEST DUP3 MSTORE POP POP JUMP JUMPDEST PUSH0 DUP2 SWAP1 POP SWAP2 SWAP1 POP JUMP JUMPDEST PUSH2 0x10EF PUSH2 0x10EA DUP3 PUSH2 0xB81 JUMP JUMPDEST PUSH2 0x10D5 JUMP JUMPDEST DUP3 MSTORE POP POP JUMP JUMPDEST PUSH0 PUSH2 0x1101 DUP3 DUP8 DUP10 PUSH2 0x104C JUMP JUMPDEST SWAP2 POP PUSH2 0x110D DUP3 DUP7 PUSH2 0x1079 JUMP JUMPDEST PUSH1 0x20 DUP3 ADD SWAP2 POP PUSH2 0x111D DUP3 DUP6 PUSH2 0x10BE JUMP JUMPDEST PUSH1 0x14 DUP3 ADD SWAP2 POP PUSH2 0x112D DUP3 DUP5 PUSH2 0x10DE JUMP JUMPDEST PUSH1 0x20 DUP3 ADD SWAP2 POP DUP2 SWAP1 POP SWAP7 SWAP6 POP POP POP POP POP POP JUMP JUMPDEST PUSH32 0x4E487B7100000000000000000000000000000000000000000000000000000000 PUSH0 MSTORE PUSH1 0x22 PUSH1 0x4 MSTORE PUSH1 0x24 PUSH0 REVERT JUMPDEST PUSH0 PUSH1 0x2 DUP3 DIV SWAP1 POP PUSH1 0x1 DUP3 AND DUP1 PUSH2 0x1184 JUMPI PUSH1 0x7F DUP3 AND SWAP2 POP JUMPDEST PUSH1 0x20 DUP3 LT DUP2 SUB PUSH2 0x1197 JUMPI PUSH2 0x1196 PUSH2 0x1140 JUMP JUMPDEST JUMPDEST POP SWAP2 SWAP1 POP JUMP JUMPDEST PUSH32 0x4E487B7100000000000000000000000000000000000000000000000000000000 PUSH0 MSTORE PUSH1 0x11 PUSH1 0x4 MSTORE PUSH1 0x24 PUSH0 REVERT JUMPDEST PUSH0 PUSH2 0x11D4 DUP3 PUSH2 0xB81 JUMP JUMPDEST SWAP2 POP PUSH2 0x11DF DUP4 PUSH2 0xB81 JUMP JUMPDEST SWAP3 POP DUP3 DUP3 ADD SWAP1 POP DUP1 DUP3 GT ISZERO PUSH2 0x11F7 JUMPI PUSH2 0x11F6 PUSH2 0x119D JUMP JUMPDEST JUMPDEST SWAP3 SWAP2 POP POP JUMP JUMPDEST PUSH0 DUP3 SWAP1 POP SWAP3 SWAP2 POP POP JUMP JUMPDEST PUSH32 0x4E487B7100000000000000000000000000000000000000000000000000000000 PUSH0 MSTORE PUSH1 0x41 PUSH1 0x4 MSTORE PUSH1 0x24 PUSH0 REVERT JUMPDEST PUSH0 DUP2 SWAP1 POP DUP2 PUSH0 MSTORE PUSH1 0x20 PUSH0 KECCAK256 SWAP1 POP SWAP2 SWAP1 POP JUMP JUMPDEST PUSH0 PUSH1 0x20 PUSH1 0x1F DUP4 ADD DIV SWAP1 POP SWAP2 SWAP1 POP JUMP JUMPDEST PUSH0 DUP3 DUP3 SHL SWAP1 POP SWAP3 SWAP2 POP POP JUMP JUMPDEST PUSH0 PUSH1 0x8 DUP4 MUL PUSH2 0x1290 PUSH32 0xFFFFFFFFFFFFFFFFFFFFFFFFFFFFFFFFFFFFFFFFFFFFFFFFFFFFFFFFFFFFFFFF DUP3 PUSH2 0x1255 JUMP JUMPDEST PUSH2 0x129A DUP7 DUP4 PUSH2 0x1255 JUMP JUMPDEST SWAP6 POP DUP1 NOT DUP5 AND SWAP4 POP DUP1 DUP7 AND DUP5 OR SWAP3 POP POP POP SWAP4 SWAP3 POP POP POP JUMP JUMPDEST PUSH0 DUP2 SWAP1 POP SWAP2 SWAP1 POP JUMP JUMPDEST PUSH0 PUSH2 0x12D5 PUSH2 0x12D0 PUSH2 0x12CB DUP5 PUSH2 0xB81 JUMP JUMPDEST PUSH2 0x12B2 JUMP JUMPDEST PUSH2 0xB81 JUMP JUMPDEST SWAP1 POP SWAP2 SWAP1 POP JUMP JUMPDEST PUSH0 DUP2 SWAP1 POP SWAP2 SWAP1 POP JUMP JUMPDEST PUSH2 0x12EE DUP4 PUSH2 0x12BB JUMP JUMPDEST PUSH2 0x1302 PUSH2 0x12FA DUP3 PUSH2 0x12DC JUMP JUMPDEST DUP5 DUP5 SLOAD PUSH2 0x1261 JUMP JUMPDEST DUP3 SSTORE POP POP POP POP JUMP JUMPDEST PUSH0 PUSH0 SWAP1 POP SWAP1 JUMP JUMPDEST PUSH2 0x1319 PUSH2 0x130A JUMP JUMPDEST PUSH2 0x1324 DUP2 DUP5 DUP5 PUSH2 0x12E5 JUMP JUMPDEST POP POP POP JUMP JUMPDEST PUSH0 JUMPDEST DUP3 DUP2 LT ISZERO PUSH2 0x134A JUMPI PUSH2 0x133F PUSH0 DUP3 DUP5 ADD PUSH2 0x1311 JUMP JUMPDEST PUSH1 0x1 DUP2 ADD SWAP1 POP PUSH2 0x132B JUMP JUMPDEST POP POP POP JUMP JUMPDEST PUSH1 0x1F DUP3 GT ISZERO PUSH2 0x139D JUMPI DUP3 DUP3 GT ISZERO PUSH2 0x139C JUMPI PUSH2 0x1369 DUP2 PUSH2 0x1234 JUMP JUMPDEST PUSH2 0x1372 DUP4 PUSH2 0x1246 JUMP JUMPDEST PUSH2 0x137B DUP6 PUSH2 0x1246 JUMP JUMPDEST PUSH1 0x20 DUP7 LT ISZERO PUSH2 0x1388 JUMPI PUSH0 SWAP1 POP JUMPDEST DUP1 DUP4 ADD PUSH2 0x1397 DUP3 DUP5 SUB DUP3 PUSH2 0x1329 JUMP JUMPDEST POP POP POP POP JUMPDEST JUMPDEST POP POP POP JUMP JUMPDEST PUSH0 DUP3 DUP3 SHR SWAP1 POP SWAP3 SWAP2 POP POP JUMP JUMPDEST PUSH0 PUSH2 0x13BD PUSH0 NOT DUP5 PUSH1 0x8 MUL PUSH2 0x13A2 JUMP JUMPDEST NOT DUP1 DUP4 AND SWAP2 POP POP SWAP3 SWAP2 POP POP JUMP JUMPDEST PUSH0 PUSH2 0x13D5 DUP4 DUP4 PUSH2 0x13AE JUMP JUMPDEST SWAP2 POP DUP3 PUSH1 0x2 MUL DUP3 OR SWAP1 POP SWAP3 SWAP2 POP POP JUMP JUMPDEST PUSH2 0x13EF DUP4 DUP4 PUSH2 0x11FD JUMP JUMPDEST PUSH8 0xFFFFFFFFFFFFFFFF DUP2 GT ISZERO PUSH2 0x1408 JUMPI PUSH2 0x1407 PUSH2 0x1207 JUMP JUMPDEST JUMPDEST PUSH2 0x1412 DUP3 SLOAD PUSH2 0x116D JUMP JUMPDEST PUSH2 0x141D DUP3 DUP3 DUP6 PUSH2 0x134F JUMP JUMPDEST PUSH0 PUSH1 0x1F DUP4 GT PUSH1 0x1 DUP2 EQ PUSH2 0x144A JUMPI PUSH0 DUP5 ISZERO PUSH2 0x1438 JUMPI DUP3 DUP8 ADD CALLDATALOAD SWAP1 POP JUMPDEST PUSH2 0x1442 DUP6 DUP3 PUSH2 0x13CA JUMP JUMPDEST DUP7 SSTORE POP PUSH2 0x14A9 JUMP JUMPDEST PUSH1 0x1F NOT DUP5 AND PUSH2 0x1458 DUP7 PUSH2 0x1234 JUMP JUMPDEST PUSH0 JUMPDEST DUP3 DUP2 LT ISZERO PUSH2 0x147F JUMPI DUP5 DUP10 ADD CALLDATALOAD DUP3 SSTORE PUSH1 0x1 DUP3 ADD SWAP2 POP PUSH1 0x20 DUP6 ADD SWAP5 POP PUSH1 0x20 DUP2 ADD SWAP1 POP PUSH2 0x145A JUMP JUMPDEST DUP7 DUP4 LT ISZERO PUSH2 0x149C JUMPI DUP5 DUP10 ADD CALLDATALOAD PUSH2 0x1498 PUSH1 0x1F DUP10 AND DUP3 PUSH2 0x13AE JUMP JUMPDEST DUP4 SSTORE POP JUMPDEST PUSH1 0x1 PUSH1 0x2 DUP9 MUL ADD DUP9 SSTORE POP POP POP JUMPDEST POP POP POP POP POP POP POP JUMP JUMPDEST PUSH0 PUSH2 0x14BD DUP4 DUP6 PUSH2 0xE43 JUMP JUMPDEST SWAP4 POP PUSH2 0x14CA DUP4 DUP6 DUP5 PUSH2 0x103E JUMP JUMPDEST PUSH2 0x14D3 DUP4 PUSH2 0xE61 JUMP JUMPDEST DUP5 ADD SWAP1 POP SWAP4 SWAP3 POP POP POP JUMP JUMPDEST PUSH0 PUSH1 0x40 DUP3 ADD SWAP1 POP DUP2 DUP2 SUB PUSH0 DUP4 ADD MSTORE PUSH2 0x14F7 DUP2 DUP6 DUP8 PUSH2 0x14B2 JUMP JUMPDEST SWAP1 POP PUSH2 0x1506 PUSH1 0x20 DUP4 ADD DUP5 PUSH2 0xE11 JUMP JUMPDEST SWAP5 SWAP4 POP POP POP POP JUMP INVALID LOG2 PUSH5 0x6970667358 0x22 SLT KECCAK256 PUSH6 0xDCBA68F89780 0x4F 0xAA 0xCA 0x2E PUSH8 0x2C72C522164B4B54 GT DUP12 XOR PUSH8 0xFBCEE5C2638D27A8 PUSH5 0x736F6C6343 STOP ADDMOD 0x22 STOP CALLER "
				},
				"gasEstimates": {
					"creation": {
						"codeDepositCost": "1088800",
						"executionCost": "1132",
						"totalCost": "1089932"
					},
					"external": {
						"MAX_ANSWER_LENGTH()": "435",
						"REVEAL_WINDOW()": "370",
						"bountyMeta(uint256)": "infinite",
						"currentPhase(uint256)": "infinite",
						"entries(uint256,address)": "infinite",
						"getAnswer(uint256,address)": "infinite",
						"hasRevealed(uint256,address)": "3145",
						"makeCommitment(string,bytes32,address,uint256)": "infinite",
						"registerBounty(uint256,uint256)": "infinite",
						"revealAnswer(uint256,string,bytes32)": "infinite",
						"submitCommitment(uint256,bytes32)": "infinite"
					}
				},
				"methodIdentifiers": {
					"MAX_ANSWER_LENGTH()": "fd3a8329",
					"REVEAL_WINDOW()": "17e931cf",
					"bountyMeta(uint256)": "0d1d771b",
					"currentPhase(uint256)": "b1fb6405",
					"entries(uint256,address)": "9b339394",
					"getAnswer(uint256,address)": "e3ca7323",
					"hasRevealed(uint256,address)": "16b5551d",
					"makeCommitment(string,bytes32,address,uint256)": "37eb3e3b",
					"registerBounty(uint256,uint256)": "edf69225",
					"revealAnswer(uint256,string,bytes32)": "d5198a71",
					"submitCommitment(uint256,bytes32)": "e6a3d9dc"
				}
			},
			"storageLayout": {
				"storage": [
					{
						"astId": 54,
						"contract": "/ritual-chain-workshop/hardhat/contracts/CommitReveal.sol:CommitReveal",
						"label": "bountyMeta",
						"offset": 0,
						"slot": "0",
						"type": "t_mapping(t_uint256,t_struct(BountyMeta)48_storage)"
					},
					{
						"astId": 62,
						"contract": "/ritual-chain-workshop/hardhat/contracts/CommitReveal.sol:CommitReveal",
						"label": "entries",
						"offset": 0,
						"slot": "1",
						"type": "t_mapping(t_uint256,t_mapping(t_address,t_struct(Entry)43_storage))"
					}
				],
				"types": {
					"t_address": {
						"encoding": "inplace",
						"label": "address",
						"numberOfBytes": "20"
					},
					"t_bool": {
						"encoding": "inplace",
						"label": "bool",
						"numberOfBytes": "1"
					},
					"t_bytes32": {
						"encoding": "inplace",
						"label": "bytes32",
						"numberOfBytes": "32"
					},
					"t_mapping(t_address,t_struct(Entry)43_storage)": {
						"encoding": "mapping",
						"key": "t_address",
						"label": "mapping(address => struct CommitReveal.Entry)",
						"numberOfBytes": "32",
						"value": "t_struct(Entry)43_storage"
					},
					"t_mapping(t_uint256,t_mapping(t_address,t_struct(Entry)43_storage))": {
						"encoding": "mapping",
						"key": "t_uint256",
						"label": "mapping(uint256 => mapping(address => struct CommitReveal.Entry))",
						"numberOfBytes": "32",
						"value": "t_mapping(t_address,t_struct(Entry)43_storage)"
					},
					"t_mapping(t_uint256,t_struct(BountyMeta)48_storage)": {
						"encoding": "mapping",
						"key": "t_uint256",
						"label": "mapping(uint256 => struct CommitReveal.BountyMeta)",
						"numberOfBytes": "32",
						"value": "t_struct(BountyMeta)48_storage"
					},
					"t_string_storage": {
						"encoding": "bytes",
						"label": "string",
						"numberOfBytes": "32"
					},
					"t_struct(BountyMeta)48_storage": {
						"encoding": "inplace",
						"label": "struct CommitReveal.BountyMeta",
						"members": [
							{
								"astId": 45,
								"contract": "/ritual-chain-workshop/hardhat/contracts/CommitReveal.sol:CommitReveal",
								"label": "deadline",
								"offset": 0,
								"slot": "0",
								"type": "t_uint256"
							},
							{
								"astId": 47,
								"contract": "/ritual-chain-workshop/hardhat/contracts/CommitReveal.sol:CommitReveal",
								"label": "registered",
								"offset": 0,
								"slot": "1",
								"type": "t_bool"
							}
						],
						"numberOfBytes": "64"
					},
					"t_struct(Entry)43_storage": {
						"encoding": "inplace",
						"label": "struct CommitReveal.Entry",
						"members": [
							{
								"astId": 36,
								"contract": "/ritual-chain-workshop/hardhat/contracts/CommitReveal.sol:CommitReveal",
								"label": "commitment",
								"offset": 0,
								"slot": "0",
								"type": "t_bytes32"
							},
							{
								"astId": 38,
								"contract": "/ritual-chain-workshop/hardhat/contracts/CommitReveal.sol:CommitReveal",
								"label": "answer",
								"offset": 0,
								"slot": "1",
								"type": "t_string_storage"
							},
							{
								"astId": 40,
								"contract": "/ritual-chain-workshop/hardhat/contracts/CommitReveal.sol:CommitReveal",
								"label": "salt",
								"offset": 0,
								"slot": "2",
								"type": "t_bytes32"
							},
							{
								"astId": 42,
								"contract": "/ritual-chain-workshop/hardhat/contracts/CommitReveal.sol:CommitReveal",
								"label": "revealed",
								"offset": 0,
								"slot": "3",
								"type": "t_bool"
							}
						],
						"numberOfBytes": "128"
					},
					"t_uint256": {
						"encoding": "inplace",
						"label": "uint256",
						"numberOfBytes": "32"
					}
				}
			},
			"userdoc": {
				"kind": "user",
				"methods": {
					"MAX_ANSWER_LENGTH()": {
						"notice": "Maximum answer length (mirrors AIJudge.MAX_ANSWER_LENGTH)."
					},
					"REVEAL_WINDOW()": {
						"notice": "How long after the commit deadline the reveal window stays open."
					},
					"bountyMeta(uint256)": {
						"notice": "bountyId => BountyMeta"
					},
					"currentPhase(uint256)": {
						"notice": "Current phase for a bounty.         0 = commit open, 1 = reveal open, 2 = closed / not registered."
					},
					"entries(uint256,address)": {
						"notice": "bountyId => submitter => Entry"
					},
					"getAnswer(uint256,address)": {
						"notice": "Returns the revealed answer for a participant.         Reverts if not yet revealed — AIJudge should call this to gate judging."
					},
					"hasRevealed(uint256,address)": {
						"notice": "True only if the participant committed AND successfully revealed."
					},
					"makeCommitment(string,bytes32,address,uint256)": {
						"notice": "Compute the commitment hash (use off-chain or in tests)."
					},
					"registerBounty(uint256,uint256)": {
						"notice": "Register a bounty's deadline so this contract can enforce phases.         Called by the bounty owner (or AIJudge itself) after createBounty."
					},
					"revealAnswer(uint256,string,bytes32)": {
						"notice": "Reveal the answer after the submission deadline."
					},
					"submitCommitment(uint256,bytes32)": {
						"notice": "Submit a commitment for a specific bounty."
					}
				},
				"notice": "Commit-reveal scheme scoped per bounty, compatible with AIJudge. Commitment formula:   keccak256(abi.encodePacked(answer, salt, msg.sender, bountyId)) Flow:   1. commit(bountyId, hash)        — before bounty deadline   2. reveal(bountyId, answer, salt) — after deadline, within reveal window   3. AIJudge.judgeAll only considers entries where revealed == true",
				"version": 1
			}
		}
	}
}